:100000000C94AE0B0C94D60B0C94D60B0C94D60B14
:100010000C94D60B0C94D60B0C94D60B0C94D60BDC
:100020000C94D60B0C94D60B0C94D60B0C94D60BCC
:100030000C94D60B0C94D60B0C94D60B0C94D60BBC
:100040000C94DD1F0C94D60B0C94AB1F0C94851FE5
:100050000C94D60B0C94D60B0C94D60B0C94D60B9C
:100060000C9427200C94D60B01020B15243344501A
:100070005D6062636363605E5A5A5A5A01030B15EE
:1000800024333F474A4B4C4C4C4B4A49494847471D
:1000900000000000003E5B4F5B3E3E6B4F6B3E1C22
:1000A0003E7C3E1C183C7E3C181C577D571C1C5E39
:1000B0007F5E1C00183C1800FFE7C3E7FF00182410
:1000C0001800FFE7DBE7FF30483A060E26297929BA
:1000D00026407F050507407F05253F5A3CE73C5AEF
:1000E0007F3E1C1C08081C1C3E7F14227F22145FCC
:1000F0005F005F5F06097F017F006689956A606027
:1001000060606094A2FFA29408047E040810207E20
:10011000201008082A1C08081C2A08081E101010A5
:10012000100C1E0C1E0C30383E3830060E3E0E06EB
:10013000000000000000005F00000007000700143E
:100140007F147F14242A7F2A1223130864623649FD
:100150005620500008070300001C224100004122E5
:100160001C002A1C7F1C2A08083E080800807030EA
:100170000008080808080000606000201008040259
:100180003E5149453E00427F40007249494946215F
:1001900041494D331814127F1027454545393C4AD3
:1001A00049493141211109073649494936464949EA
:1001B000291E000014000000403400000008142232
:1001C00041141414141400412214080201590906A0
:1001D0003E415D594E7C1211127C7F494949363EA1
:1001E000414141227F4141413E7F494949417F0987
:1001F0000909013E414151737F0808087F00417F92
:1002000041002040413F017F081422417F4040408F
:10021000407F021C027F7F0408107F3E4141413E27
:100220007F090909063E4151215E7F0919294626A9
:100230004949493203017F01033F4040403F1F20AD
:1002400040201F3F4038403F631408146303047884
:1002500004036159494D43007F41414102040810A4
:1002600020004141417F04020102044040404040DF
:10027000000307080020545478407F28444438384D
:1002800044444428384444287F38545454180008BF
:100290007E090218A4A49C787F0804047800447D99
:1002A00040002040403D007F1028440000417F4036
:1002B000007C047804787C0804047838444444388A
:1002C000FC1824241818242418FC7C08040408486A
:1002D0005454542404043F44243C4040207C1C20BB
:1002E00040201C3C4030403C44281028444C909016
:1002F000907C4464544C4400083641000000770070
:1003000000004136080002010204023C2623263C7C
:100310001EA1A161123A4040207A38545455592107
:1003200055557941225454784221555478402054EF
:100330005579400C1E52721239555555593954543D
:10034000545939555454580000457C410002457DAC
:10035000420001457C407D1211127DF0282528F0D5
:100360007C545545002054547C547C0A097F493202
:10037000494949323A4444443A324A4848303A4179
:1003800041217A3A42402078009DA0A07D3D424222
:10039000423D3D4040403D3C24FF2424487E4943AB
:1003A000662B2FFC2F2BFF0929F620C0887E09031E
:1003B00020545479410000447D413048484A323845
:1003C0004040227A007A0A0A727D0D19317D262971
:1003D000292F28262929292630484D402038080869
:1003E000080808080808382F10C8ACBA2F1028349D
:1003F000FA00007B000008142A142222142A140890
:100400005500550055AA55AA55AAFF55FF55FF009E
:100410000000FF00101010FF00141414FF00101053
:10042000FF00FF1010F010F0141414FC001414F767
:1004300000FF0000FF00FF1414F404FC1414171054
:100440001F10101F101F1414141F00101010F000A4
:100450000000001F101010101F10101010F01000DE
:100460000000FF101010101010101010FF100000EE
:1004700000FF140000FF00FF00001F10170000FC29
:1004800004F414141710171414F404F40000FF00FB
:10049000F714141414141414F700F7141414171484
:1004A00010101F101F141414F4141010F010F0008A
:1004B000001F101F0000001F14000000FC140000AB
:1004C000F010F01010FF10FF141414FF141010108F
:1004D0001F00000000F010FFFFFFFFFFF0F0F0F042
:1004E000F0FFFFFF0000000000FFFF0F0F0F0F0FD6
:1004F0003844443844FC4A4A4A347E020206060222
:100500007E027E0263554941633844443C04407E88
:10051000201E2006027E020299A5E7A5991C2A4901
:100520002A1C4C7201724C304A4D4D30304878488C
:1005300030BC625A463D3E494949007E0101017E78
:100540002A2A2A2A2A44445F444440514A444040CB
:10055000444A51400000FF0103E080FF000008080A
:100560006B6B083612362436060F090F060000188A
:10057000180000001010003040FF0101001F0101B1
:100580001E00191D1712003C3C3C3C0000000000FE
:10059000000103070F1F3F7F0080C0E0F0F8FCFE62
:1005A00000000000230026002900000000080002CF
:1005B000010000030407000000000000000000002C
:1005C0000000240027002A00DB40A4A62EAF200054
:1005D000A1C8D300408DAED580A801020408102028
:1005E00040800102040810200102040810200000CD
:1005F0000000250028002B00040404040404040463
:10060000020202020202030303030303000060006C
:1006100000000000000000000000000000E00000FA
:10062000000000000000000000000001E0000000E9
:100630000000000000000000000001F000000000C9
:1006400000000000000000000003F00000000000B7
:10065000000000000000000007F0000000000000A3
:100660000000000000000007F8000000000000008B
:100670000000000000000FF800000003C0007E0032
:100680000001E0007F0FF800000003C000FE000042
:1006900001E000FFEFF800000003C000FE000001D1
:1006A000E000FFFFF800000003C000F00000000FB2
:1006B000007FFE7FC0000003C000F00000000F00BC
:1006C0003FFE7FF83FF1FBCFFCFEF3BC3DEFE01FA8
:1006D000FE7FFF7FFBFFDFFEFEFFBC3DEFE01FC69E
:1006E000FFFF7FFBFFDFFEFEFFBC3DEFE00FE3C738
:1006F000FE787BC3DE1EF0FFBC3DEF0007FF87FCEA
:10070000787BC3DE1EF0F83C3DEF0001FFFFF000F8
:100710007BC3C01EF0F03C3DEF0001F37FE03FFBE8
:10072000C3CFFEF0F03C3DEF0003E33F807FFBC30F
:10073000DFFEF0F03C3DEF0007E73C00787BC3DED6
:100740001EF0F03C3DEF0007FFBE00787BC3DE1ECD
:10075000F0F03C3DEF0007FFFE00787BC3DE1EF0AB
:10076000F03C3DEF000FFFFE007FFBFFDFFEF0F0EF
:100770003FFDEFE00FFFFF007FFBFFDFFEF0F03FEC
:10078000FDEFE00FF9FF003E79F9CF9EF0F01F3D3D
:10079000E7E01FF1FF000000000000000000000083
:1007A000001F80FF007FFFFFFFFFFFFFFFFFFFE055
:1007B0001C007F007FFFFFFFFEB46D888D18E000F6
:1007C000001F007FFFFFFFFE95AD7DB577E00000C5
:1007D0000F007FFFFFFFFEA5AD9D8D19E000000615
:1007E000007FFFFFFFFEB5ADEDB57EE0000000002D
:1007F00000018000000000000000000003800000F5
:100800000000000000000007C00000000000000021
:10081000000007C00000000000000000000FC00042
:1008200000000000000000001FE0000000000000C9
:100830000000001FE00000000000000000003FE09A
:100840000000000000000000003FF0000000000079
:10085000000000007FF0000000000000001FF87F93
:10086000F0000000000000003FFE7FF000000000EC
:100870000000003FFF7FF0000000000000001FFFAD
:10088000FBE0000000000000000FFFF9FFC00000C7
:10089000000000000FFFF9FFF80000000000000753
:1008A000FFF1FFFF00000000000003FC73FFFF806A
:1008B000000000000001FE3FFFFF8000000000007C
:1008C00000FF1E0FFF000000000000007FFE1FFC65
:1008D000000000000000003FFFFFF80000000000E3
:1008E00000000FDFFFE0000000000000001F19FF04
:1008F000C0000000000000003F3CFF0000000000BE
:100900000000007E7CF800000000000000007FFE78
:100910007C0000000000000000FFFFFC0000000061
:1009200000000000FFFFFE0000000000000000FFCC
:10093000FFFE0000000000000001FFEFFE000000CD
:100940000000000001FFCFFE0000000000000003D7
:10095000FF07FE0000000000000003FC07FE00008F
:10096000000000000003F003FE0000000000000093
:10097000018000FE000000000000000000007E007A
:100980000000000000000000003E00000000000029
:10099000000000000C000000000000078000FC00C8
:1009A0000003C0000000078001FC000003C000003D
:1009B00000078001FC000003C0000000078001E088
:1009C0000000001E000000078001E00000001E0083
:1009D0007FE3F79FF9FDE7787BDFC0FFF7FFBFFDFF
:1009E000FDFF787BDFC0FFF7FFBFFDFDFF787BDFFA
:1009F000C0F0F787BC3DE1FF787BDE00F0F787BCF5
:100A00003DE1F0787BDE0000F787803DE1E0787B18
:100A1000DE007FF7879FFDE1E0787BDE00FFF78750
:100A2000BFFDE1E0787BDE00F0F787BC3DE1E078D8
:100A30007BDE00F0F787BC3DE1E0787BDE00F0F77D
:100A400087BC3DE1E0787BDE00FFF7FFBFFDE1E022
:100A50007FFBDFC0FFF7FFBFFDE1E07FFBDFC07C76
:100A6000F3F39F3DE1E03E7BCFC0000000000000BB
:100A70000000000000FFFFFFFFFFFFFFFFFFFFC0C0
:100A8000FFFFFFFFFD68DB111A31C0FFFFFFFFFD15
:100A90002B5AFB6AEFC0FFFFFFFFFD4B5B3B1A3396
:100AA000C0FFFFFFFFFD6B5BDB6AFDC0E006300CA3
:100AB0003F00FC00E006300C7181FE00E00E300CBF
:100AC00060C30300E00E300CC0620300A00A300CCB
:100AD000C0620100B00A300CC0660180B00A300C60
:100AE000C0660180901A300CC00601809012300C54
:100AF000C00601809812300C600601809832300CDC
:100B0000700601809832300C180601808832300C53
:100B10000E0601808C22300C070601808C62300C9E
:100B2000038601808C62300C00C601808462300C28
:100B300000C601808442300C006601808642300C81
:100B4000C066018086C2300CC066018082C2301C43
:100B5000C06601008282301CC062010083821818C6
:100B6000C0C3030083821C3061C1FE0083820FE09A
:100B70003F80FC00000000000000000000000000BA
:100B800000000000000000000000000007FE0F84CD
:100B900002201000002010840220100000202044B9
:100BA00004201000002020440820100000204024D1
:100BB00000201000002040241020100000204024BD
:100BC000202010000020402420201000002040247D
:100BD00040201000002040248020100000204024ED
:100BE000802010000020402580201000002040269A
:100BF000C02010000020402640201000002040248B
:100C0000202010000020402410201000002040244C
:100C10001020100000204024082010000020204454
:100C20000830300000202044041020000020204420
:100C30000210200000201F84020FC00000000001ED
:100C4000C0000000000000000000000000000003E1
:100C5000E000003FFCF00000000000000000000386
:100C6000F000003FFCF00000000000000000000366
:100C7000F800003FFC000000000000000000000140
:100C8000FC000003C0F3DE700F83DC0000000000F6
:100C9000FE000003C0F3FFF83FE3FC00000000008B
:100CA0007F000003C0F3FFFC3FE3F80000000000FA
:100CB0003F800003C0F3CF3C78F3E00000007F806A
:100CC0001FC00003C0F3CF3C7FF3C0000003FFF060
:100CD0001FE00003C0F3CF3C7FF3C000000FFFFC18
:100CE0003FF00003C0F3CF3C7803C000003FFFFF9C
:100CF0007FF80003C0F3CF3C7CF3C000007FFFFF10
:100D0000FFFC0003C0F3CF3C3FE3C00000FF847F43
:100D1000FCFE0003C0F3CF3C3FE3C00003FE041F12
:100D2000F87F0003C0F3CF3C0F83C00003F8040733
:100D3000F83F0000000000000000000007F0000184
:100D4000F81F000000000000000000000FC00000BD
:100D5000FC0E000000000000000000001FC00000AA
:100D60007E00000000000000000000001FA0000046
:100D7000FE00000000000000000000003F10000125
:100D80003F00000000000000000000003E080000DE
:100D90001F00000000000000000000007E040000B2
:100DA0001F80000000000000000000007C00000028
:100DB0000F80000000000000000000007C00000028
:100DC0000F80000000000000000000007C00000018
:100DD0000F8000000000000000000000FC00000088
:100DE00007C000000000000000000000F800000044
:100DF00007C000000000000000000000F8003C00F8
:100E000027C000000000000000000000F8003C00C7
:100E100037C000000000000000000000FF003FFF9E
:100E2000FFE000000000000000000000F8003C00AF
:100E300037C000000000000000000000F8003C0087
:100E400027C000000000000000000000F8000000C3
:100E500007C000000000000000000000F8000000D3
:100E600007C0000000000000000000007C0000003F
:100E70000F80000000000000000000007C00000067
:100E80000F80000000000000000000007C00000057
:100E90000F80000000000000000000007E00000045
:100EA0001F80000000000000000000003E00000263
:100EB0001F00000000000000000000003F080001CB
:100EC0003F00000000000000000000001F90000034
:100ED000FE00000000000000000000001FA0000055
:100EE0007E00000000000000000000000FC00000B5
:100EF000FC003000000000000000000007F00001CE
:100F0000F800380001FFF0000000000007F80407B7
:100F1000F8003E0001FFF0000000000003FE041F87
:100F2000F0003F0001FFF000E007038001FF847F35
:100F3000E0003FC001FFF001F00F87C0007FFFFF1E
:100F4000C0003FE001FFF003B81DCEE0003FFFFF0F
:100F500000003FF001FFF003BB9DCEE0000FFFFE5D
:100F600000003FF801FFF003BB9DCEE00003FFF857
:100F700000003FFC01FFF003BB9DCEE00000FFC07E
:100F800000003FFC01FFF003B81DCEE000000000B0
:100F900000003FF801FFF003BB9DCEE00000000021
:100FA00000003FF001FFF001F38F87C00000000058
:100FB00000003FE001FFF001F38F87C00000000058
:100FC00000003F8001FFF000E00703800000000008
:100FD00000003F0001FFF0000000000000000000E2
:100FE00000003E00000000000000000000000000C3
:100FF00000003800000000000000000001FFC000F9
:101000000000000000000000000001FFC000000020
:10101000000000000000000001FFC0000000000010
:1010200000000000000001FFC00000000000000000
:101030000000000001FFC0000000000000000000F0
:10104000000001FFC00000000000000000000000E0
:101050007FFFFF00000000000000000000007FFF95
:10106000FF00000000000000000000007FFFFF0004
:10107000000F00000000000000007FFFFF00001FC5
:1010800000000000000000007FFFFF00003F0000A4
:101090000000000000007C001F00007E0000000037
:1010A000000000007C001F0000FC000000000000A9
:1010B00000007C001F0001F800E038F0C0000000D4
:1010C0007C001F0003F000F038F3C00000007C003B
:1010D0001F0007E000F83803C00000007C001F007C
:1010E0000FE000F838F7F3DC7C007C001F001FC025
:1010F00000FC38F7F3FCFF007C001F003F8000FE7F
:1011000038F7F3F9FF007C001F007F0000FF38F381
:10111000C3E3EF807C001F00FFFF00F738F3C3C379
:10112000C7807C001F01FFFF00F3B8F3C3C3C78073
:101130007C001F01FFFF00F1F8F3C3C3C7807C00F0
:101140001F01FFFE00F0F8F3C3C3EF807C001F0017
:10115000FFFC00F0F8F3F3C1FF007C001F0001FC6E
:1011600000F078F3F3C0FE007C001F0003F800F0ED
:1011700038F1F3C07C007C001F0003F00000000089
:10118000000000007C001F0007E0000000000000DD
:1011900000007C001F000FC00000000000000000E5
:1011A0007C001F001FC000000000000000007C0049
:1011B0001F023F8000000000000000007C001F03B1
:1011C0007F0000000000000000007C001F03FE0004
:1011D00000000000000000007C001F03FC00000075
:1011E0000000000000007C001F03FC000000000065
:1011F000000000007C001F03F80000000000000059
:1012000000007FFFFF03F800000000000000000066
:101210007FFFFF03FC0000000000000000007FFFD4
:10122000FF03FE0000000000000000007FFFFF0041
:10123000000000000000000000007FFFFF00000031
:1012400000000000000000001415161718191A1BE2
:101250001C1D1E1F202122232425262728292A2B56
:101260002C2D2E2F303132333435363738393A3B46
:101270003C3D3E3F404142434445464748494A4B36
:101280004C4D4E4F505152535455565758595A5B26
:101290005C5D5E5F606162636465666768696A6B16
:1012A0006C6D6E6F707172737475767778797A7B06
:1012B0007C7D7E7F808182838485868788898A8BF6
:1012C0008C8D8E8F909192939495969798999A9BE6
:1012D0009C9D9E9FA0C8A8681898D838780484C49C
:1012E000A4E4945434B4F48CCCACEC1C5CDCBC7C36
:1012F0000282C22262E2925232B2F20A4ACAAA6A56
:101300001A9ADA3A7AFA864626A6E61656D6B676B5
:101310000E8ECE2E6EEE9E5E3EBEFE8141C1A1615E
:101320001191D13171F1894929A9E91959D9B979AD
:101330000585C52565E5955535B5F50D4DCDAD6DE5
:101340001D9DDD3D7DFD834323A3E3139353D333E1
:10135000B373F38B4BCB2BAB6BEB9B5BDB7BFB0759
:1013600087C700007FFFFFFFC000000000000000F3
:1013700000000000FFFFFFFFE00000000000000091
:1013800000000001FFFFFFFFF0000000F8633E7C5B
:1013900000000001FFFFFFFFF0000001FC633E7E44
:1013A00000000003FFFFFFFFF80000038E633066BC
:1013B00000000003E0000000F800000306363E666F
:1013C00000000007E0000000FC00000306363E7E3F
:1013D00000000007C00000007E0000030636307CDD
:1013E0000000000FC00000007E0000038E1C306C67
:1013F0000000001F800000003F000001FC1C3E6652
:101400000000001F800000003F000000F81C3E6646
:101410000000003F000000001F80000000000000EE
:101420000000003F000000000F80000000000000EE
:101430000000007E000000000FC00000000000005F
:101440000000007C0000000007C003C333E3E3E6B4
:101450001BF000FC0000000007E007F333F3F3E7A4
:101460001BF000F80000000003E00E2333333307C5
:1014700098C001F80000000003F00C03333333E799
:1014800098C001F00000000001F00C0333F3F3E614
:10149000D8C003F00000000001F80C0333E3E306BA
:1014A00078C003E0F0FF8703F0F80E233363630690
:1014B00078C007E0F8FF9F83F8FC07F3F33333E6C7
:1014C00038C007C3FCFFBFC3F87E03C1E33333E674
:1014D00018C00FC39E1839C39C7E00000000000096
:1014E00000001F839E1879E39C3F0000000000006D
:1014F00000001F839E1879E39C3F0000000000005D
:1015000000003F03801879E39C1F8000000000006A
:1015100000003F03801879E39C0F8000000000006A
:1015200000007E01801879E39C0FC00000070000D6
:1015300000007C01F01879E3FC07C000000F800078
:101540000000FC00FC1879E3F807E000000F8000C1
:101550000000F800FC1879E3F003E000000F8000C1
:101560000000FC001E1879E38007E000000F8000F7
:1015700000007C001E1879E38007C000000F800087
:1015800000007E001E1879E3800FC000000F80006D
:1015900000003E031E1879E3800F8000000F8000DA
:1015A00000003F031E1839E3801F8000000F8000F9
:1015B00000001F839E183DC3801F0000000F8000A5
:1015C00000001F81FC183FC3803F0000000F800017
:1015D00000000FC0FC181F83807E0000000F8000F9
:1015E00000000FC000000000007E0000000F80001F
:1015F000000007E00000000000FC0000000F800079
:10160000000003E00000000000FC0000000F80006C
:10161000000003F00000000001F80000000F80004F
:10162000000001F00000000001F00000000F800049
:10163000000001F80000000003F00000000F80002F
:10164000000000F80000000003E00000000F800030
:10165000000000FC0000000007E00000000F800018
:101660000000007C0000000007C00000000F8000A8
:101670000000007E000000000FC00000000F80008E
:101680000000003F000000000F8000000007000085
:101690000000003F000000001F800000000000006C
:1016A0000000001F800000003F000000000000005C
:1016B0000000001F800000003F000000000000004C
:1016C0000000000FC00000007E00000000070000C6
:1016D00000000007C00000007E000000000F800036
:1016E00000000007E0000000FC000000001FC00038
:1016F00000000003E0000000F8000000001FC00030
:1017000000000003FFFFFFFFF8000000000F800053
:1017100000000001FFFFFFFFF000000000070000D5
:1017200000000001FFFFFFFFF000000000000000CC
:1017300000000000FFFFFFFFE000000000000000CD
:10174000000000007FFFFFFFC0000000000000005D
:1017500000002200FF2100002823843211241FBE34
:10176000CFEFD8E0DEBFCDBF11E0A0E0B1E0E0E810
:10177000F0E702C005900D92A83EB107D9F724E02A
:10178000A8EEB1E001C01D92A530B207E1F71BE061
:10179000CDEADBE004C02197FE010E942434CC3A5C
:1017A000D107C9F70E948E230C9433380C940000A3
:1017B0000895FC01538D448D252F30E0842F90E057
:1017C000821B930B541710F0CF960895019708953C
:1017D000FC01918D828D981761F0A28DAE0FBF2F05
:1017E000B11D5D968C91928D9F5F9F73928F90E05B
:1017F00008958FEF9FEF0895FC01918D828D9817CA
:1018000031F0828DE80FF11D858D90E008958FEF06
:101810009FEF0895FC01918D228D892F90E0805CCF
:101820009F4F821B91098F7399270895FC01A48D06
:10183000A80FB92FB11DA35ABF4F2C91848D90E0F2
:1018400001968F739927848FA689B7892C93A089D5
:10185000B1898C91837080648C93938D848D98135F
:1018600006C00288F389E02D80818F7D80830895F2
:10187000EF92FF920F931F93CF93DF93EC0181E0E0
:10188000888F9B8D8C8D98131AC0E889F989808187
:1018900085FF15C09FB7F894EE89FF896083E889BA
:1018A000F98980818370806480839FBF81E090E0AC
:1018B000DF91CF911F910F91FF90EF900895F62E39
:1018C0000B8D10E00F5F1F4F0F731127E02E8C8DD3
:1018D0008E110CC00FB607FCFACFE889F989808118
:1018E00085FFF5CFCE010E94160CF1CFEB8DEC0FEA
:1018F000FD2FF11DE35AFF4FF0829FB7F8940B8F35
:10190000EA89FB8980818062CFCFCF93DF93EC019E
:10191000888D8823B9F0AA89BB89E889F9898C91D7
:1019200085FD03C0808186FD0DC00FB607FCF7CF93
:101930008C9185FFF2CF808185FFEDCFCE010E9493
:10194000160CE9CFDF91CF91089584E293E00E94D5
:101950000A0C21E0892B09F420E0822F089580E011
:1019600090E0892B29F00E94A50C81110C940000B5
:10197000089508950895AF92BF92CF92DF92EF92AB
:10198000FF920F931F93CF93DF936C017B018B0129
:10199000040F151FEB015E01AE18BF08C017D10779
:1019A00059F06991D601ED91FC910190F081E02D03
:1019B000C6010995892B79F7C501DF91CF911F9158
:1019C0000F91FF90EF90DF90CF90BF90AF90089570
:1019D000833081F028F4813099F08230A9F00895A5
:1019E0008730A9F08830C9F08430B1F4809180004C
:1019F0008F7D03C0809180008F7780938000089551
:101A000084B58F7784BD089584B58F7DFBCF809199
:101A1000B0008F778093B00008958091B0008F7DE3
:101A2000F9CFCF93DF93282F30E0F901E655FA4F35
:101A30008491F901E652FA4FD491F901E850FA4F36
:101A4000C491CC23A1F081110E94E80CEC2FF0E0AE
:101A5000EE0FFF1FE056FA4FA591B491EC91ED23E4
:101A600081E090E009F480E0DF91CF91089580E07B
:101A700090E0FACF1F93CF93DF93282F30E0F90146
:101A8000E655FA4F8491F901E652FA4FD491F901E3
:101A9000E850FA4FC491CC23A9F0162F81110E946F
:101AA000E80CEC2FF0E0EE0FFF1FE251FA4FA5918A
:101AB000B4918FB7F894EC91111108C0D095DE2342
:101AC000DC938FBFDF91CF911F910895DE2BF8CF6C
:101AD000CF93DF9390E0FC01E652FA4F24918850B7
:101AE0009A4FFC0184918823D1F090E0880F991FD0
:101AF000FC01E254FA4FA591B491FC01E251FA4F76
:101B0000C591D49161110EC09FB7F8948C91E22FCA
:101B1000E0958E238C932881E223E8839FBFDF9199
:101B2000CF9108958FB7F894EC91E22BEC938FBF8F
:101B3000F6CF8E3008F08E508770806480937C00E2
:101B400080917A00806480937A0080917A0086FD8B
:101B5000FCCF809178009091790008953FB7F89478
:101B600080919D0290919E02A0919F02B091A0024F
:101B700026B5A89B05C02F3F19F00196A11DB11DE8
:101B80003FBFBA2FA92F982F8827BC01CD01620F24
:101B9000711D811D911D42E0660F771F881F991FDF
:101BA0004A95D1F708958F929F92AF92BF92CF92AC
:101BB000DF92EF92FF926B017C010E94AE0D4B0110
:101BC0005C01C114D104E104F104B9F00E94AE0D2E
:101BD000681979098A099B09683E73408105910556
:101BE00080F321E0C21AD108E108F10888EE880EDE
:101BF00083E0981EA11CB11CE4CFFF90EF90DF9012
:101C0000CF90BF90AF909F908F9008952FB7F8948A
:101C10006091990270919A0280919B0290919C022E
:101C20002FBF0895EF92FF920F931F93CF93DF93EF
:101C3000EC01EC80FD806E157F050CF070C057FF45
:101C400004C0240F351F50E040E08E819F81FA01CF
:101C5000E20FF31F8E179F071CF49C01241B350B0A
:101C6000121613060CF05BC0922F842F8695869572
:101C700086958E9DD0018F9DB00D11246A0F7B1F1C
:101C8000AF8DB8A1A60FB71F477049F188E0841B3C
:101C9000482F682F70E0FB01E856FA4FE4912817AF
:101CA00008F063C0621B71092FEF30E002C0359568
:101CB00027956A95E2F7E2230130110539F0B0F17A
:101CC0000230110561F58C91E82702C08C91E82B58
:101CD000EC93941720F12C813D81A20FB31FE92FC3
:101CE000E41BE83078F00230110521F58E2F9C912D
:101CF00090959C932C813D81A20FB31F8850883012
:101D0000B0F7E770EE2359F0F0E0E057FA4FE491B6
:101D100001301105F9F010F10230110519F1DF91D0
:101D2000CF911F910F91FF90EF900895E0958C91C6
:101D3000E823CECF81E00115110509F480E08195FB
:101D40009E2F8C932C813D81A20FB31F9850983009
:101D5000C0F7D7CF8C91E82BEC93E1CFE0958C9135
:101D6000E823FACF8C91E827F7CF0130110509F469
:101D7000ADCFE0F20230110509F4A5CFAE0DBF1DC5
:101D8000AECF0F931F93CF93DF9377FF04C0260F3F
:101D9000371F70E060E0DC011496CD91DC91FB010F
:101DA000E20FF31FCE17DF071CF49E01261B370B33
:101DB000121613064CF5FA0157FD3796A3E0F59578
:101DC000E795AA95E1F7EC9FD001ED9FB00DFC9F40
:101DD000B00D11246A0F7B1FDC015F96ED91FC9121
:101DE000E60FF71F4770552781E090E001C0880F8C
:101DF0004A95EAF7482F0130110559F0A8F02E0F47
:101E00003F1F02301105E1F0DF91CF911F910F913B
:101E100008952E0F3F1FE217F307B1F38191DF0101
:101E20001197842B8C93F7CF80952E0F3F1FE217CD
:101E3000F30751F39191DF01119798239C93F7CF0A
:101E4000E217F30709F38191DF01119784278C933F
:101E5000F7CF0F931F93FA01DC0156964C915697DA
:101E60004230E9F04330A1F1413061F514964D91D3
:101E70005C91DA01AE1BBF0BFD01E21BF30B77FD9A
:101E80000BC0DC0116964D915C916417750724F424
:101E9000AB01BF010E94C10E1F910F9108951496CE
:101EA0004D915C91DA01A61BB70BBD016150710920
:101EB000DC0116964D915C91DA01AE1BBF0BFD0162
:101EC000E21BF30B77FDE8CFAF010E94120EE4CFC7
:101ED00016964D915C91DA01A61BB70BBD016150BE
:101EE0007109CDCF0F931F93FA01DC0156964C91E7
:101EF00056974230A9F0433091F1413019F51496CC
:101F00004D915C91DA01AE1BBF0BFD013197F7FDDE
:101F100004C0AB01BF010E94120E1F910F910895E2
:101F200014964D915C91DA01A61BB70BBD01DC0143
:101F300016964D915C91DA01AE1BBF0BFD013197F6
:101F4000621B730BF7FDE9CFDC0116964D915C9196
:101F5000E417F50714F7AF010E94C10EDECF169605
:101F60004D915C91DA01A61BB70BBD01621B730B8F
:101F7000CECFFC0177FD64C0808591856817790715
:101F80000CF05EC057FD5CC08285938548175907E9
:101F90000CF056C086898230B1F0833029F181304F
:101FA00041F484819581841B950BAB01BC01615088
:101FB00071092130310509F108F443C0223031059F
:101FC00009F463C0089584819581DC01A61BB70BD9
:101FD000BD016150710986819781DC01A41BB50B9D
:101FE000AD0141505109E5CF86819781861B970B42
:101FF000BA01AC0141505109DCCFCA0157FD079627
:10200000A3E095958795AA95E1F7A481B5818A9F6C
:1020100090018B9F300D9A9F300D1124620F731F1A
:10202000078CF0A1E02DE60FF71F4770552721E040
:1020300030E001C0220F4A95EAF78081822B80832D
:102040000895CA0157FD079633E0959587953A950F
:10205000E1F7A481B5818A9F90018B9F300D9A9FF3
:10206000300D1124620F731F078CF0A1E02DE60FD5
:10207000F71F4770552781E090E001C0880F4A950F
:10208000EAF7809590818923DACFCA0157FD079638
:1020900023E0959587952A95E1F7A481B5818A9FDC
:1020A00090018B9F300D9A9F300D1124620F731F8A
:1020B000078CF0A1E02DE60FF71F4770552721E0B0
:1020C00030E001C0220F4A95EAF780818227B7CF1E
:1020D00008958EBD00000DB407FEFDCF8EB50895A6
:1020E0008CBD9DBD08950895FC016370668B84814D
:1020F000958126813781613039F0633029F09187ED
:102100008087338722870895318720879387828746
:1021100008952F923F924F925F926F927F928F928B
:102120009F92AF92BF92CF92DF92EF92FF920F9366
:102130001F93CF93DF93CDB7DEB76A970FB6F894AE
:10214000DEBF0FBECDBF9A8F898F7A8369834A0124
:10215000D22E18870F833701BC2CDC0159962D91A4
:102160003C915A972115310509F015C118968D91AA
:102170009C911997681779070CF0D7C11A968D9121
:102180009C91481759070CF0D0C14C2C512CB6E04B
:10219000CB9E600D711D11247C876B871616170668
:1021A0000CF0C3C1EA2DF0E0FA87E98793E0EE0F67
:1021B000FF1F9A95E1F7F88BEF87CF01840F951FEA
:1021C000181619060CF0B1C1A98DBA8D58968C91CC
:1021D000811104C0BFEABD1508F4D394A98DBA8D4E
:1021E000ED91FC9111970284F385E02DCD010995C5
:1021F000B5E0DB9EC0011124E981FA81FC83EB8309
:10220000312C212C9C0120573F4F388F2F8B4A2D8A
:1022100050E05E8B4D8BEF89F88DE20DF31D4491FC
:102220009E828D82D12CC12C69817A81620D731DB1
:102230007A8B698B842F90E09C8B8B8BE98DFA8D48
:10224000A081B18140FF82C0F1E0BF126FC0AF1228
:102250006DC01C96ED91FC912F813885A4014C0D29
:102260005D1D69897A89898D9A8D0995EB89FC892B
:10227000F595E7954E2F5FEFC51AD50A6D817E81E2
:102280008D899E89680F791F7E836D8398E0C916BA
:10229000D10481F6AFEF2A1A3A0AEB81FC81E40DF2
:1022A000F51DFC83EB83F5E02F16310409F0B3CF65
:1022B0002F81388526153705B9F0A98DBA8DED9196
:1022C000FC91B1E0BB1257C0AB1255C069817A8155
:1022D0006B5F7F4F0088F189E02D830128E030E0BB
:1022E000A401898D9A8D0995A98DBA8DED91FC91E6
:1022F00011970688F789E02DCD016A960FB6F894FC
:10230000DEBF0FBECDBFDF91CF911F910F91FF9028
:10231000EF90DF90CF90BF90AF909F908F907F9085
:102320006F905F904F903F902F9009941E96ED9183
:10233000FC91EF80F88409851A8592014D815E81B8
:102340006B817C81898D9A8D099590CF2F813885FD
:102350002615370509F48ACF31E0B31207C0A3125E
:1023600005C01C96ED91FC91930178CF1E96ED91DE
:10237000FC917301E0CF6B857C8564197509068437
:10238000F785E02D73010F8518899201A401898DCD
:102390009A8D0995A9CFF901349694913297459178
:1023A0005491D91AB7E0DB9E400D511D1124F9015B
:1023B000259134913C8B2B8BFA0125903490FA01B6
:1023C0003296749031963491398B3296649031966E
:1023D000449041E04C1518F04A1508F07FC0662D76
:1023E000062C000C770B7C836B83842D042C000C53
:1023F000990B9E838D83A98DBA8DED91FC911197D8
:102400000284F385E02DCD010995512CD12CC12CEE
:10241000EA2DF0E0FA87E9872B2D30E03C872B8707
:10242000A401440D511D47FC5A95588F4F8B69816B
:102430007A81660D711D67FC7A957E876D87798933
:10244000C71608F051CF2C2D30E04D815E81420F30
:10245000531FA985BA854A9FC0014B9F900D5A9F73
:10246000900D1124FC01E80DF91DF88BEF87852DE7
:10247000612C4F89588D420F531F5E8B4D8B671413
:1024800008F050C044244394480E877041F4C101C1
:102490000196EB89FC89E20DF31DD4901C01D7FE57
:1024A00019C0A98DBA8DED91FC91662D70E0B1E057
:1024B000BB1219C0AB1217C02D853E85620F731F6A
:1024C0000484F585E02D2F8138854D895E89898DBD
:1024D0009A8D0995DD0C6394842DD1CF1E821D82C7
:1024E0001C821B8288CF4B815C81640F751FAB857A
:1024F000BC856A9FC0016B9F900D7A9F900D11243F
:1025000069817A81680F791F0684F785E02DEF8055
:10251000F88409851A859D014F855889898D9A8D82
:102520000995D8CF570CC3948ACF6A960FB6F89402
:10253000DEBF0FBECDBFDF91CF911F910F91FF90F6
:10254000EF90DF90CF90BF90AF909F908F907F9053
:102550006F905F904F903F902F9008958F929F9231
:10256000AF92CF92EF92FF920F931F93CF93DF938F
:10257000EC01262F898D9A8D0097B1F56A30D1F440
:102580001D861C868D8998E0899F900111248E8577
:102590009F85820F931F9F878E8781E090E0DF9158
:1025A000CF911F910F91FF90EF90CF90AF909F90A0
:1025B0008F9008956D3089F3EA88FB88088919891E
:1025C0004E855F856C857D85AD88CC88CE010E9467
:1025D00089102C898C859D8536E0239F800D911D67
:1025E00011249D878C87D9CF6A3069F41D861C869B
:1025F000FC013896E4912D898E859F85E29F800DA0
:10260000911D1124C8CF6D3041F2FC0134963491F4
:10261000631708F4C2CF3296E491E61708F4BDCFF1
:10262000FC01329685909490862F831B97E0899FBA
:10263000800C911C1124F401329684913196E4911E
:10264000882391F0EE2381F0F4013596E491EA8835
:10265000FB88088919894E855F856C857D85AD88E5
:10266000CC88CE010E948910F4013496E4912C8923
:102670008C859D85E29F800D911D1124B2CF6F92B4
:102680007F928F929F92AF92BF92CF92DF92EF9202
:10269000FF920F931F93CF93DF93EC016B015A01CD
:1026A00039014801E881F9810284F385E02D09951B
:1026B000E881F9810288F389E02D87019301A50162
:1026C000B601CE010995A501480D591D415051098A
:1026D000E881F9810288F389E02D9301B601CE01EA
:1026E0000995E881F9810088F189E02D9401A5011F
:1026F000B601CE010995C60CD71CB601615071090F
:10270000E881F9810088F189E02D9401A501CE01CD
:102710000995E881F9810688F789E02DCE01DF91DE
:10272000CF911F910F91FF90EF90DF90CF90BF90CE
:10273000AF909F908F907F906F9009946F927F924F
:102740008F929F92AF92BF92CF92DF92EF92FF92C1
:102750000F931F93CF93DF935C01EB016A01490153
:1027600038018701DC01ED91FC916217730719F5BF
:10277000641675062CF0962D872D3A01C92ED82E99
:102780009601261937092F5F3F4F048CF58DE02DF8
:10279000A301BE01C5010995DF91CF911F910F9152
:1027A000FF90EF90DF90CF90BF90AF909F908F9071
:1027B0007F906F9008954615570591F426173707B7
:1027C00024F0892D4B01C22FD82F9E0128193909D9
:1027D0002F5F3F4F068CF78DE02DA601B401DACFB5
:1027E0000284F385E02D0995D501ED91FC910488D3
:1027F000F589E02D83019401A601BE01C50109956B
:10280000D501ED91FC910688F789E02DC501DF9196
:10281000CF911F910F91FF90EF90DF90CF90BF90DD
:10282000AF909F908F907F906F900994EF92FF925E
:102830000F931F93DC011A960D911C911B9718960C
:102840002D913C911997ED91FC9100A0F1A1E02D03
:102850007B0150E040E070E060E009951F910F912E
:10286000FF90EF9008954F925F926F927F928F92B8
:102870009F92AF92BF92CF92DF92EF92FF920F930F
:102880001F93CF93DF936C012B015A01390148014B
:10289000DC01ED91FC910284F385E02D0995E201C4
:1028A000640C751CD601ED91FC91C615D7055CF43E
:1028B0000088F189E02D87019401A501BE01C601C0
:1028C00009952196EFCF0688F789E02DC601DF91A3
:1028D000CF911F910F91FF90EF90DF90CF90BF901D
:1028E000AF909F908F907F906F905F904F900994E2
:1028F0008F929F92AF92BF92CF92DF92EF92FF9210
:102900000F931F93CF93DF93EC015B014A016901A1
:10291000E881F9810284F385E02D099595012C0D5C
:102920003D1D21503109E881F9810488F589E02DA8
:1029300078018401A401B501CE010995E881F981EE
:102940000688F789E02DCE01DF91CF911F910F917D
:10295000FF90EF90DF90CF90BF90AF909F908F90BF
:1029600009948F929F92AF92BF92CF92DF92EF9293
:10297000FF920F931F93CF93DF93EC015B014A010A
:1029800069017801E881F9810284F385E02D0995D8
:10299000C80CD91C860101501109E881F98104880D
:1029A000F589E02D9501A401B501CE010995E881D5
:1029B000F9810688F789E02DCE01DF91CF911F9133
:1029C0000F91FF90EF90DF90CF90BF90AF909F90CE
:1029D0008F900994EF92FF920F931F93DC01ED917A
:1029E000FC9100A0F1A1E02D09951F910F91FF909E
:1029F000EF9008950F931F93DC01ED91FC91068CED
:102A0000F78DE02D09951F910F9108950F931F9356
:102A1000DC01ED91FC91048CF58DE02D09951F9161
:102A20000F9108952F923F924F925F926F927F92F3
:102A30008F929F92AF92BF92CF92DF92EF92FF92CE
:102A40000F931F93CF93DF9300D000D0CDB7DEB7A5
:102A50006C0101E010E029E030E043E350E0BC010C
:102A600081EC93E00E94061554E0452E512C22245F
:102A70002394312CF12CE12C84E090E09C838B8317
:102A800088EF9FEF9A8389837DEF672E77247A946E
:102A90009FEFE91AF90A82E0280E311C620C731CC0
:102AA0008B819C818E159F050CF457C04C01880CBE
:102AB000991C9FEF891A990A01E010E0940147E3FD
:102AC000A42EB12C8B819C81A81AB90AA501B7014B
:102AD0006C0D7D1D81EC93E00E9406159401A5010B
:102AE000B6016E197F0981EC93E00E9406158B8177
:102AF0009C8184159505F9F0B601640D751D01E002
:102B000010E0410192E0891A9108940188E3A82E0F
:102B1000B12CAE18BF08A50181EC93E00E94061508
:102B2000B601641975099401A50181EC93E00E9436
:102B300006154B805C808B819C81E816F90694F425
:102B400077FCA6CF01979C838B8389819A8102961B
:102B50009A838983680E791E9BCF8B819C81841513
:102B6000950551F60F900F900F900F90DF91CF9138
:102B70001F910F91FF90EF90DF90CF90BF90AF909B
:102B80009F908F907F906F905F904F903F902F908D
:102B90000895DC01ED91FC910084F185E02D09940C
:102BA0003F924F925F926F927F928F929F92AF92DD
:102BB000BF92CF92DF92EF92FF920F931F93CF932A
:102BC000DF9300D000D0CDB7DEB75C013B016A01D6
:102BD0004901280187E0480E511C93E05594479421
:102BE0009A95E1F7CA018E0D9F1D9A838983F12C76
:102BF000E12C312C1C821B828B819C818770992750
:102C0000330C892B61F4EB81FC8183E0F595E7952A
:102C10008A95E1F7EE0DFF1DE80DF91D349037FEA2
:102C20000AC021E030E0A6016B817C81660D771D32
:102C3000C5010E94C9158B819C8101969C838B8361
:102C400008171907C9F69FEFC91AD90AE40CF51C31
:102C500089819A81C816D90669F60F900F900F9056
:102C60000F90DF91CF911F910F91FF90EF90DF9028
:102C7000CF90BF90AF909F908F907F906F905F901C
:102C80004F903F9008952F923F924F925F926F9294
:102C90007F928F929F92AF92BF92CF92DF92EF92EC
:102CA000FF920F931F93CF93DF937C016B01EA0197
:102CB00081E090E05C01A41AB50A66247724641AC6
:102CC000750A660C771C10E000E088248394912C30
:102CD000822F8470582E822F8270482E822F887007
:102CE000382E2170222E0C171D070CF079C0B7FC6E
:102CF00006C0219782E0680E711CA60CB71C0F5FFE
:102D00001F4F82E0880E911CA80CB91C5520C1F001
:102D100021E030E0AE014C0D5D1DB701600F711F69
:102D200081EC93E00E94C91521E030E0A601400F3C
:102D3000511FBE016E0D7F1D81EC93E00E94C915ED
:102D40004420C1F021E030E0A6014C1B5D0BB7012F
:102D5000600F711F81EC93E00E94C91521E030E003
:102D6000A601401B510BBE016E0D7F1D81EC93E04F
:102D70000E94C9153320C1F021E030E0A601400FC8
:102D8000511FB7016C1B7D0B81EC93E00E94C915AC
:102D900021E030E0AE014C0D5D1DB701601B710BF1
:102DA00081EC93E00E94C915222009F49CCF21E018
:102DB00030E0A601401B510BB7016C1B7D0B81EC71
:102DC00093E00E94C91521E030E0A6014C1B5D0B89
:102DD000B701601B710B81EC93E00E94C91583CF92
:102DE000DF91CF911F910F91FF90EF90DF90CF90E7
:102DF000BF90AF909F908F907F906F905F904F901B
:102E00003F902F9008952F923F924F925F926F9232
:102E10007F928F929F92AF92BF92CF92DF92EF926A
:102E2000FF920F931F93CF93DF9300D000D0CDB7C5
:102E3000DEB72C013B011A0179011C830B83580179
:102E4000AA0CBB1C4A018A189B086801C40CD51C3B
:102E500001E010E09401AB01B60181EC93E00E9427
:102E6000FA14C701860D971D9A838983AC014150DE
:102E700051099401B60181EC93E00E94FA14EA181A
:102E8000FB088B819C81680E791E9701A301B2011A
:102E900081EC93E00E940615420C531CB201615074
:102EA00071099701A30181EC93E00E94061521E0CE
:102EB0004B815C81B301C6010E9443168B819C81CA
:102EC000481A590A91E0491A510822E04B815C8165
:102ED000B301C2010E944316E980FA808B819C8174
:102EE000E81AF90A91E0E91AF10824E04B815C81C3
:102EF000B701C2010E94431628E04B815C81B701F3
:102F0000C6010F900F900F900F90DF91CF911F91FE
:102F10000F91FF90EF90DF90CF90BF90AF909F9078
:102F20008F907F906F905F904F903F902F900C9478
:102F300043162F923F924F925F926F927F928F92A1
:102F40009F92AF92BF92CF92DF92EF92FF920F9338
:102F50001F93CF93DF9300D000D000D0CDB7DEB762
:102F60003C016A013E832D83FC82EB825801A41A46
:102F7000B50AB7FE03C0B194A194B1088D809E80BC
:102F8000861A970A97FE03C09194819491088A1437
:102F90009B045CF0902F812F0D811E819D838E8379
:102FA0009C2D8D2D6B01692F782F0C151D055CF064
:102FB0009D818E817E836D83692F782F902F812F45
:102FC0008601C92ED82E1601201A310A2B012D8117
:102FD0003E81421A530A57FE03C05194419451084E
:102FE000710137FE03C03FEFE31AF30AF594E7944B
:102FF0008D819E81861797075CF5A1E0B0E0BA83CA
:10300000A983C016D1064CF1D301ED91FC91048443
:10301000F585E02D2B813C81A8016D817E818A148C
:103020009B041CF04D815E81B801C3010995E41831
:10303000F508F7FE0AC02D813E8189819A81280F0B
:10304000391F3E832D83E20CF31C0F5F1F4FD9CF36
:103050002FEF3FEF3A832983D4CF26960FB6F8940B
:10306000DEBF0FBECDBFDF91CF911F910F91FF90BB
:10307000EF90DF90CF90BF90AF909F908F907F9018
:103080006F905F904F903F902F90089508952091FA
:103090004E02260F3327331F21323105ECF42091E5
:1030A0007202FC0190E080E0243069F082E0089533
:1030B000A0914E022191AC01425D5D4FA40FB52F4E
:1030C000B11D2C930196861798F380914E02680FDC
:1030D00060934E0280E0089581E00895109272029C
:1030E00081E0809374021092730261E082E10E9499
:1030F0003A0D61E083E10E943A0DE9EBF0E0808156
:103100008E7F808380818D7F808388E48093B80068
:1031100085E48093BC000895CF93DF9391E0909372
:103120002D028823B9F0C091B800D091BA008091E7
:10313000BC008A7B8093BC0060E082E10E943A0D73
:1031400060E083E10E943A0D0E946E18D093BA00AD
:10315000C093B800DF91CF910895E091A7028091CC
:10316000A602E81730F4F0E0E85FFD4F808190E0C0
:1031700008958FEF9FEF08959091A7028091A60286
:103180002FEF3FEF981748F4E92FF0E0E85FFD4F8D
:10319000208130E09F5F9093A702C901089580913C
:1031A000A6029091A702891B990B0895CF92DF92F6
:1031B000EF92FF920F931F93CF93DF937C01CB018C
:1031C0008A0120912303222389F0EB016B01C40EB5
:1031D000D51ECC15DD0569F06991D701ED91FC9103
:1031E0000190F081E02DC7010995F3CF642F0E9473
:1031F0004718C801DF91CF911F910F91FF90EF9079
:10320000DF90CF900895CF93DF931F92CDB7DEB7B5
:103210006983209123032223F9F020912003203297
:1032200058F021E030E0FC013383228390E080E01D
:103230000F90DF91CF91089580912103E82FF0E066
:10324000E851FE4F998190838F5F80932103809393
:10325000200381E090E0ECCF61E0CE0101960E9476
:103260004718F7CFCF92DF92EF92FF920F931F9301
:10327000CF93DF93D091200381E0D13208F09CC03E
:10328000C09122030E94AE0D6B017C0180917202FD
:1032900081116CC082E08093720281E0809374029D
:1032A0008FEF8093710210929602D0939502A8EE50
:1032B000B1E0E5E7F2E080E0D8138DC0109297020C
:1032C00080919702CC0FC82BC09397028091730214
:1032D000813009F084C0109273020E94AE0D6B0120
:1032E0007C01809197028093BB008091290290918C
:1032F0002A02A0912B02B0912C02892B8A2B8B2BB6
:10330000A1F00E94AE0D0091290210912A02209195
:103310002B0230912C026C197D098E099F0906172A
:1033200017072807390708F442C08091BC0083FDC5
:10333000D8CF85EC8093BC000E94AE0D6B017C0160
:1033400080917202823009F44CC0809171028F3FEB
:1033500009F469C080917102803209F466C08091DD
:103360007102803309F463C084E026C08091290291
:1033700090912A02A0912B02B0912C02892B8A2BCA
:103380008B2B09F483CF0E94AE0D0091290210917E
:103390002A0220912B0230912C026C197D098E0992
:1033A0009F09061717072807390708F06FCF809184
:1033B00028020E948C1885E01092210310922003AD
:1033C00010922303DF91CF911F910F91FF90EF9007
:1033D000DF90CF9008959D9191938F5F6DCF85EE93
:1033E000A9CF8091290290912A02A0912B02B0913D
:1033F0002C02892B8A2B8B2B09F4A2CF0E94AE0DB5
:103400000091290210912A0220912B0230912C0266
:103410006C197D098E099F090617170728073907B8
:1034200008F08ECFC4CF80E0C7CF82E0C5CF83E065
:10343000C3CFEF92FF920F931F93CF93DF937C0143
:10344000C62F8091DE039091DF03009709F459C0E5
:103450002091E20331E03093230320932203109262
:10346000210310922003DC01ED91FC910190F08189
:10347000E02D60E009958701EE24E394F12CD1E082
:10348000C1508091DE039091DF03CF3F91F1B0E214
:10349000EB16F104D8F00E9432198091DE0390916E
:1034A000DF032091E203D0932303209322031092A1
:1034B000210310922003DC01ED91FC910190F08139
:1034C000E02D60E00995EE24E394F12C8091DE0379
:1034D0009091DF03F8016491DC01ED91FC91019082
:1034E000F081E02D0995BFEFEB1AFB0A0F5F1F4F2C
:1034F000C7CFDF91CF911F910F91FF90EF900C9468
:103500003219E091EE03F091EF0390818091F40382
:103510008095892380838701C15008F438C0F80161
:1035200084912091DC033091DD03232B29F00E944C
:1035300069100F5F1F4FF0CF28E030E040E8E091C6
:10354000EA03F091EB039091F203582F5423D9F042
:103550005081952B9083E091EC03F091ED039081E5
:103560005091F303952B9083E091EC03F091ED03E0
:1035700050819091F3039095952390834695215027
:103580003109E9F6D6CF508190959523E3CFDF91AD
:10359000CF911F910F91FF90EF9008951F93CF93BC
:1035A000DF93EC018D8D9E8D009721F1162F29A1BF
:1035B00031E03093230320932203109221031092D1
:1035C0002003DC01ED91FC910190F081E02D60E0A1
:1035D00009958D8D9E8DDC01ED91FC910190F0811E
:1035E000E02D612F09958D8D9E8DDF91CF911F91DB
:1035F0000C943219ADA5BEA59C918BA98095892309
:103600008C938B8D9C8D892B31F0862FDF91CF9100
:103610001F910C94691028E030E080E8A9A5BAA5B4
:1036200099A9462F4823C1F04C91942B9C93ABA5AC
:10363000BCA59C914AA9942B9C93ABA5BCA54C918D
:103640009AA9909594239C9386952150310931F73E
:10365000DF91CF911F9108954C9190959423E6CFDF
:10366000DF92EF92FF920F931F93CF93DF9380919E
:10367000DE039091DF03892B09F498C02091F603B3
:103680003091F7034091F8035091F90360E074E240
:1036900084EF90E00E94EE33205131094109510935
:1036A00056954795379527952093B80065E082E5B4
:1036B00097E10E94191A6091C503615081EC93E073
:1036C0000E94CE1A2091C7033091C803C901079602
:1036D00097FD079633E0959587953A95E1F7209108
:1036E000C5033091C603829F8001839F100D929F76
:1036F000100D1124C091E003D091E1038091DE030D
:103700009091DF030C0F1D1F009709F48FC02091CB
:10371000E20331E03093230320932203109221032C
:1037200010922003DC01ED91FC910190F081E02DDD
:1037300060E40995EE24E394F12CDD24D394809188
:10374000DE039091DF030C171D0709F446C0B0E2B9
:10375000EB16F104D8F00E9432198091DE039091AB
:10376000DF032091E203D0922303209322031092DF
:10377000210310922003DC01ED91FC910190F08176
:10378000E02D60E40995EE24E394F12C8091DE03B2
:103790009091DF036991DC01ED91FC910190F08142
:1037A000E02D0995BFEFEB1AFB0AC9CF8091DC032E
:1037B0009091DD03892B31F08091FF0390910004FB
:1037C0000E947010E091F003F091F10390818091DC
:1037D000F50380958923808369CF0E9432198091F7
:1037E000DE039091DF03892B09F461C02091FA0375
:1037F0003091FB034091FC035091FD0360E074E2C3
:1038000084EF90E00E94EE332051310941095109C3
:1038100056954795379527952093B800DF91CF911E
:103820001F910F91FF90EF90DF900895E091EE03CC
:10383000F091EF0380819091F403892B80830C1722
:103840001D0769F289912091DC033091DD03232B60
:1038500019F00E946910F3CF28E030E040E8E091D1
:10386000EA03F091EB039091F203582F5423D9F01F
:103870005081952B9083E091EC03F091ED039081C2
:103880005091F303952B9083E091EC03F091ED03BD
:1038900050819091F3039095952390834695215004
:1038A0003109E9F6CCCF508190959523E3CFE09193
:1038B000F003F091F10380819091F503892B8083CF
:1038C000ADCF1F93CF93DF93EC01162F8D8D9E8D7F
:1038D000892BB1F12DA93EA94FA958AD60E074E242
:1038E00084EF90E00E94EE332051310941095109E3
:1038F00056954795379527952093B80066EA11119C
:1039000067EACE010E94CE1A8D8D9E8D892B41F1E2
:1039100029AD3AAD4BAD5CAD60E074E284EF90E070
:103920000E94EE33205131094109510956954795BE
:10393000379527952093B800DF91CF911F91089577
:103940008B8D9C8D892B21F08EAD9FAD0E947010C8
:10395000EFA5F8A990818CA9809589238083CECF8B
:10396000EFA5F8A980819CA9892B8083E5CF90E001
:1039700080E00895EF92FF920F931F93CF93DF9310
:103980007B01880F991F880F991FEC01259710E084
:1039900000E061E086E00E943A0DCE010197F1F768
:1039A00060E086E00E943A0DCE010197F1F70F5FCB
:1039B0001F4FE016F10669F7DF91CF911F910F912C
:1039C000FF90EF9008951F93CF93DF93182F0E94DD
:1039D000990DEC01812F0E94990D8C0F9D1F9695DA
:1039E0008795DF91CF911F9108953F924F925F92FB
:1039F0006F927F928F929F92AF92BF92CF92DF92FF
:103A0000EF92FF920F931F93CF93DF933B014A01F5
:103A10002901E7013C2C0E94110DF3019183808361
:103A2000F40120813181892B09F059C0C09017031E
:103A3000D0901803E0901903F0901A03213031055B
:103A400031F511821082F20180819181A281B381CE
:103A5000B701A601481B590B6A0B7B0BC801110F5C
:103A6000AA0BBB0B481759076A077B0780F03983FD
:103A70002883F501C082D182E282F382F1E03F1215
:103A80001CC06DE470E088EC90E00E94BA1CF50167
:103A900080819181A281B381A7019601281B390BF6
:103AA0004A0B5B0BDA01C9018C329140A105B105CB
:103AB00020F083E090E099838883DF91CF911F917C
:103AC0000F91FF90EF90DF90CF90BF90AF909F90BD
:103AD0008F907F906F905F904F903F900895232B31
:103AE00061F781E090E0918380838091170390914A
:103AF0001803A0911903B0911A03F20180839183F6
:103B0000A283B38388819981892BB9F282E090E006
:103B1000D2CF2091C7033091C803C901079697FD02
:103B2000079623E0959587952A95E1F72091C5039F
:103B30003091C603829FA001839F500D929F500D2C
:103B4000112470E060E08091E0039091E1030C9417
:103B50005435EF92FF920F931F9360E08FE00E9425
:103B60003A0D0E94891D8FE3E82EF12C0CE710E03E
:103B700022E633E150E040E070E060E081EC93E069
:103B80000E94D0150E94301B64E670E088EC90E043
:103B90000E94BA1C62E370E080E090E00E94D30DC6
:103BA00064E670E088EC90E00E94BA1C62E370E08A
:103BB00080E090E00E94D30D64E670E088EC90E035
:103BC0000E94BA1C6CED75E080E090E00E94D30D7D
:103BD00080911B038630B0F082E00E94110D892B8A
:103BE00031F080911E0390911F03019759F41092B8
:103BF0001B0310921D0310921C0310921F031092BE
:103C00001E03EACF0E94891D1F910F91FF90EF9034
:103C10000C94301B0E944F35FB0101900020E9F706
:103C20003197AF01461B570BDC01ED91FC910280EF
:103C3000F381E02D09948F929F92AF92BF920F93E0
:103C40001F93CF93DF93CDB7DEB7A1970FB6F8944C
:103C5000DEBF0FBECDBF19A2423008F44AE08E018C
:103C60000F5D1F4F842E912CB12CA12CA501940126
:103C70000E94EE33E62FB901CA01EA3004F5E05D97
:103C8000D801EE938D01232B242B252B79F790E07F
:103C900080E0109729F0BD0181EC93E00E940C1E9A
:103CA000A1960FB6F894DEBF0FBECDBFDF91CF91C6
:103CB0001F910F91BF90AF909F908F900895E95CF6
:103CC000DFCFCF92DF92EF92FF92CF93DF936B0122
:103CD0007C016DE281EC93E00E94AE12EC0166275C
:103CE0007727CB016C197D098E099F094AE00E9454
:103CF0001B1E8C0F9D1FDF91CF91FF90EF90DF90E7
:103D0000CF900895BC01990F880B990B97FD0C94E7
:103D1000611E4AE00C941B1EBC0181EC93E00C94E4
:103D20000C1ECF92DF92EF92FF920F931F93CF93CF
:103D3000DF93CDB7DEB728970FB6F894DEBF0FBE7E
:103D4000CDBF2091E602211142C07F936F939F93D4
:103D50008F9384E691E09F938F93CE0101966C013F
:103D60009F938F930E945B35F12CE12C07E010E0CC
:103D700020E230E049E350E06FE570E081EC93E051
:103D80000E94331481E08093D5038093D60381E0B1
:103D900090E09093D4038093D3039093D2038093C5
:103DA000D1038FE590E09093CE038093CD0389E318
:103DB00090E09093D0038093CF03C6010E948C1EA5
:103DC0000E94301B0FB6F894DEBF0FBECDBF289601
:103DD0000FB6F894DEBF0FBECDBFDF91CF911F911C
:103DE0000F91FF90EF90DF90CF9008950F931F9366
:103DF000811150C08091E60281114CC0233021F125
:103E000081E08093D5038093D603243051F18EE373
:103E100090E00436110514F082E090E09093CE0318
:103E20008093CD0389E390E09093D0038093CF03F8
:103E3000CA016130F9F01092D4031092D3031092AA
:103E4000D2031092D10320C02093D5032093D60330
:103E500082E090E09093CE038093CD038AE090E0DF
:103E6000E3CF8FE590E09093CE038093CD0382E083
:103E700090E0DACF21E030E03093D4032093D303F5
:103E80003093D2032093D1030E948C1E1F910F9177
:103E90000C94301B1F910F91089585ED8093BC0009
:103EA0008091290290912A02A0912B02B0912C02BC
:103EB0000796A11DB11D23E0B695A7959795879507
:103EC0002A95D1F72091BC0024FD03C01092720204
:103ED00008954091290250912A0260912B0270911D
:103EE0002C02452B462B472B69F30097A105B10502
:103EF00041F025E32A95F1F700000197A109B109E6
:103F0000E1CF809128020C948C181F920F920FB66B
:103F10000F9211242F933F934F935F936F937F934F
:103F20008F939F93AF93BF93EF93FF9384E293E0BC
:103F30000E94160CFF91EF91BF91AF919F918F91CD
:103F40007F916F915F914F913F912F910F900FBE95
:103F50000F901F9018951F920F920FB60F92112479
:103F60002F938F939F93EF93FF93E0913403F091FE
:103F700035038081E0913A03F0913B0382FD1BC041
:103F8000908180913D038F5F8F7320913E03821754
:103F900041F0E0913D03F0E0EC5DFC4F958F8093A4
:103FA0003D03FF91EF919F918F912F910F900FBE45
:103FB0000F901F9018958081F4CF1F920F920FB62B
:103FC0000F9211242F933F938F939F93AF93BF939F
:103FD0008091990290919A02A0919B02B0919C02CB
:103FE0003091980223E0230F2D3758F50196A11D3B
:103FF000B11D209398028093990290939A02A09306
:104000009B02B0939C0280919D0290919E02A09190
:104010009F02B091A0020196A11DB11D80939D0247
:1040200090939E02A0939F02B093A002BF91AF9184
:104030009F918F913F912F910F900FBE0F901F90E6
:10404000189526E8230F0296A11DB11DD2CF1F920D
:104050000F920FB60F9211242F933F934F935F93BC
:104060006F937F938F939F93AF93BF93EF93FF9340
:104070008091B900887F803609F44AC0F0F5883213
:1040800009F4A7C018F5803109F49BC0B8F488235F
:1040900009F4F9C0883009F494C0FF91EF91BF9101
:1040A000AF919F918F917F916F915F914F913F91D0
:1040B0002F910F900FBE0F901F901895883109F423
:1040C00088C0803251F78093710214C0803409F4A3
:1040D0009DC040F48033B9F38833F9F680937102C0
:1040E00085ECB0C0803509F485C0883509F496C0E8
:1040F000883499F60E944D1FD0CF883909F48CC0BE
:1041000038F5883729F050F4883611F0803729F6D1
:1041100083E0809372021092700257C0883809F4CD
:104120007BC0803919F0803809F0B7CF80917002D8
:10413000803208F071C0E091700281E08E0F8093B0
:1041400070028091BB00F0E0E05BFD4F80833DC0DA
:10415000803B39F0E0F4803A09F479C0883A09F0FC
:104160009CCF84E08093720210924F0210924E0214
:10417000E091A402F091A502099580914E0281116F
:104180000FC081E080934E0210922E0209C0803C45
:1041900009F4A6CF883C09F4A3CF883B09F07DCF72
:1041A000E0914F0281E08E0F80934F02F0E0E25DDC
:1041B000FD4F80818093BB0090914F0280914E0211
:1041C00029C0809197028093BB0085EC8093BC004E
:1041D00064CF9091960280919502981758F5E091DE
:1041E000960281E08E0F80939602F0E0EB58FD4F2F
:1041F0008081E9CFE091960281E08E0F8093960254
:104200008091BB00F0E0EB58FD4F808390919602C7
:10421000809195029817C8F285E8D8CFE091960270
:1042200081E08E0F809396028091BB00F0E0EB5806
:10423000FD4F80838091740281115CCF81E0809377
:10424000730284EA8093BC001092720226CF85EC40
:104250008093BC001092720280917002803230F420
:10426000E0917002F0E0E05BFD4F1082609170021F
:1042700070E0E091A202F091A30280E592E009953E
:10428000109270020ACF1092710234CF71E03D9A01
:104290003C980000000000000E9423233D980E94EB
:1042A0002323A894000000000000359B0E940B23EC
:1042B000D2F0889434990894771F48F73D9A80305B
:1042C00019F03C980C9465213C9A00000000000015
:1042D0000E9423233D98A89400000000359B0E9473
:1042E0000B230E942323000000003D9A872F99276B
:1042F000089580E208950894881F0C948021880F07
:10430000F1F03D9A00000000000020F400003C980D
:104310000C948D213C9A0C948D210E9423233D986E
:10432000A894000000000000359B0E940B231AF4A3
:1043300088270C94B2210E9423230C947F213D9A5C
:10434000000000003C980E942323992788273D986D
:10435000A8940000359B0E940B2352F3349B81E00C
:104360000E942323000000003D9A089581E00895F3
:104370003D9A3C9A0E9423233D980E942323359B1B
:104380000E940B233C980E942323789408958F93D6
:10439000F1E0E4EF8F918F93F894359B0E940B230B
:1043A0003C9A0E9423230E947B21882331F40E949F
:1043B000B821319711F00C94CA2199270F900895D4
:1043C0000895F8943D9A0E9423233C980E94232349
:1043D0003D980E942323359B0E940B233C9A0E9408
:1043E00023230E947B21089581E00895F894359B52
:1043F0000E940B233C9A0E9423230E947B21089554
:1044000081E00895DF92EF92FF920F931F93CF9375
:10441000DF93D82E0E94B82161E070E080E090E048
:104420000E94D30D0E94B82161E070E080E090E02E
:104430000E94D30D8AE0E82EF12C01E010E080EC20
:104440000E94F621C1E0D0E0811104C010E000E03C
:10445000D0E0C0E084E40E947B21811104C010E020
:1044600000E0D0E0C0E08D2D0E947B21811102C0D0
:10447000D0E0C0E00E94B82161E070E080E090E010
:104480000E94D30DCD2B21F481E0E81AF108B9F692
:10449000012B41F1DF91CF911F910F91FF90EF9090
:1044A000DF90089501501109A9F380EC0E94F621D4
:1044B000C82F84E40E947B21811101C0C0E0D0E0BC
:1044C0008D2D0E947B21811102C0D0E0C0E00E94AE
:1044D000B82161E070E080E090E00E94D30DCD2B28
:1044E00009F3D8CF0AE010E0E0CFEF92FF920F93EC
:1044F0001F93CF93DF936F3571050CF077C0813038
:1045000009F474C0EB01E5EDF2E184910E9402220E
:1045100061E08FE00E943A0D88E6E82E80E0F82EF8
:10452000C233D1050CF03CC000910103109102038D
:1045300024E04EE651E061E0809116030E94F61EF1
:104540009CE7E92E90E0F92EF7011491E12FF0E0BD
:10455000EB52FD4E84910E9402226AE070E080E0FE
:1045600090E00E94D30DFFEFEF1AFF0A80E9E816F2
:1045700080E0F80649F7E12FF0E0CF018C1B9D0B9E
:10458000181619062CF5EB52FD4E84910E9402225A
:1045900062E070E080E090E00E94D30D1150EBCF1C
:1045A000F7011491E12FF0E0EB52FD4E84910E944F
:1045B00002226AE070E080E090E00E94D30DFFEFFD
:1045C000EF1AFF0A8CE7E81680E0F80649F7D3CF28
:1045D000E29764F4009101031091020324E04EE697
:1045E00051E062E0809116030E94F61EDF91CF91A8
:1045F0001F910F91FF90EF9008953C983D9844983B
:10460000459888279927349B0895359B089581E024
:10461000089581E00895B0E0A4E000240E941B23E7
:104620003AF40A94D9F71197C1F728940C942223ED
:10463000A8940C942223A89435990C9420232894B0
:104640000000089508959BE69A95F1F7089508955E
:10465000E4E2F3E01382128288EE93E0A0E0B0E09F
:1046600084839583A683B7838AE291E091838083D4
:1046700085EC90E09587848784EC90E09787868727
:1046800080EC90E0918B808B81EC90E0938B828B1F
:1046900082EC90E0958B848B86EC90E0978B868BF8
:1046A000118E128E138E148EE1ECF3E013821282BF
:1046B00020E830E03583248380E490E0978386838C
:1046C0003187208793878287168A158614861786F6
:1046D000168681E0858B848B2FEF3FEF338B228B07
:1046E000318B208B878B108E128E118E8CE391E094
:1046F00091838083148E138E168E158E10A2178EC2
:104700008BE084A38DE085A38CE086A38AE087A359
:1047100088E080A780E586AF17AE0895CF93DF933A
:10472000CDB7DEB728970FB6F894DEBF0FBECDBF6A
:10473000789484B5826084BD84B5816084BD85B57C
:10474000826085BD85B5816085BD80916E00816088
:1047500080936E001092810080918100826080932E
:104760008100809181008160809381008091800030
:104770008160809380008091B10084608093B1005B
:104780008091B00081608093B00080917A00846055
:1047900080937A0080917A00826080937A00809181
:1047A0007A00816080937A0080917A00806880939B
:1047B0007A001092C10060E089E00E943A0D61E049
:1047C00089E00E94680D8091E0039091E103892BBC
:1047D00039F10E94891D8091C7039091C8036091AF
:1047E000C5037091C603813291050CF08EC5AC01F2
:1047F0004052510957FF02C04F5F5F4F5595479593
:104800006357710977FF02C06F5F7F4F759567959A
:10481000F0E2EF2EF12C03E710E02CE036E08DC53E
:104820002091C7033091C803C901079697FD0796E9
:1048300023E0959587952A95E1F72091C50330915E
:10484000C6038C01029FC001039F900D129F900D23
:1048500011240E942A349093E1038093E003892B72
:1048600009F0B7CF0E94FD221092160360E089E0A4
:104870000E943A0D61E089E00E94680D60E08EE0E0
:104880000E94680D60E080E10E94680D60E081E1B7
:104890000E94680D60E084E00E94680D60E083E0A3
:1048A0000E94680D61E086E00E94680D60E082E091
:1048B0000E94680D60E085E10E94680D60E084E17F
:1048C0000E94680D61E08FE00E94680D61E087E062
:1048D0000E94680D60E085E00E94680D60E089E05C
:1048E0000E943A0D60E087E00E943A0D60E086E0A9
:1048F0000E943A0D61E082E00E943A0D0E94891DFB
:10490000EE24E394F12C00E410E027E430E050E0E2
:1049100040E06DE170E081EC93E00E943F1372E3B0
:10492000E72EF12C09E310E02CEA3AE047E050E0F2
:1049300064E270E081EC93E00E94D0150E94301B8D
:10494000E4E14E2E512C612C712CC12CD12C76011E
:10495000C3941AE000E061E089E00E943A0DC701CB
:10496000B6010E94D30D60E089E00E943A0DC301B8
:10497000B2010E94D30D0F5F0113EDCF115015301E
:1049800008F415E02FEFC21AD20AE20AF20A31E067
:10499000431A51086108710844E1C416D104E104C6
:1049A000F104C1F661E089E00E943A0D68EE73E01F
:1049B00080E090E00E94D30D0E94891D87E08093E3
:1049C000D5038093D60381E090E09093D403809345
:1049D000D3039093D2038093D10381E290E00E94AD
:1049E00093328A3D09F44BC06AE090E080E00E9477
:1049F0009B3264E181E090E00E949B3268E282E0B9
:104A000090E00E949B3262E383E090E00E949B3240
:104A10006BE084E090E00E949B3265E185E090E0ED
:104A20000E949B3269E286E090E00E949B3263E341
:104A300087E090E00E949B326CE088E090E00E946A
:104A40009B3266E189E090E00E949B326AE28AE054
:104A500090E00E949B3264E38BE090E00E949B32E6
:104A600061E080E290E00E949B3260E089E190E0AA
:104A70000E949B326AED81E290E00E949B3290E0BE
:104A800080E00E949332182F8093EB0281E090E047
:104A90000E9493328093EC0282E090E00E94933275
:104AA0008093ED0283E090E00E9493328093EE02C7
:104AB00084E090E00E9493328093EF0285E090E0E2
:104AC0000E9493328093F00286E090E00E9493323D
:104AD0008093F10287E090E00E9493328093F2028B
:104AE00088E090E00E9493328093F30289E090E0A6
:104AF0000E9493328093F4028AE090E00E94933205
:104B00008093F5028BE090E00E9493328093F6024E
:104B100080E290E00E9493328093D70289E190E096
:104B20000E94933290E09093D3028093D20260E08F
:104B3000892B09F061E087E00E943A0D812F90E017
:104B400090930403809303030E94060E6093CE02A9
:104B50007093CF028093D0029093D1026093C602EB
:104B60007093C7028093C8029093C90260931203A6
:104B700070931303809314039093150360930503BC
:104B8000709306038093070390930803882483940B
:104B9000912CDD24D3940E94060EAB01BC014093FE
:104BA0001703509318036093190370931A038091AD
:104BB0001603811173C08091120390911303A09189
:104BC0001403B09115038A019B01081B190B2A0BD2
:104BD0003B0BD901C80120911701213009F099C57B
:104BE000813117E29107A105B10508F457C0009182
:104BF0000E0310910F032091100330911103800FC9
:104C0000911FA21FB31F80930E0390930F03A093D5
:104C10001003B09311034093120350931303609356
:104C2000140370931503BC01CD0128EE33E040E07E
:104C300050E00E94EE3329013A0121E942162EE7A5
:104C400052066104710430F040E9442E4EE7542EC0
:104C5000612C712CC301B20120E13EE040E050E044
:104C60000E94EE33790130930D0320930C03C301AE
:104C7000B2012CE330E040E050E00E94EE33CA0184
:104C8000B9012CE330E040E050E00E94EE33709335
:104C90000B0360930A03C7010E94911E80911703C2
:104CA00090911803A0911903B0911A034091050344
:104CB000509106036091070370910803841B950BC4
:104CC000A60BB70B81389E4EA643B10508F48CC0E5
:104CD0000E94891D0E94301B10E000E023E044E7A1
:104CE00051E061E0809116030E94F61E60ED77E0CE
:104CF00080E090E00E94D30D0E94891D0E94301B2D
:104D000084E00E94110D8C010E94060E609317032F
:104D1000709318038093190390931A03112784E06A
:104D20000E94110D7C0180E10E94110DCC24C394DE
:104D3000892B21F00E151F0509F4C12C82E00E9479
:104D4000110D892B11F4CC24C39481E10E94110D23
:104D5000892B11F0CC2019F30E94891D0E94301B71
:104D600010E000E023E04CE751E061E080911603A1
:104D70000E94F61E64E670E088EC90E00E94BA1C87
:104D800068EE73E080E090E00E94D30D0E94891DE0
:104D90000E94301B80E10E94110D019709F0E9C4C7
:104DA00082E00E94110D019709F0E3C481E10E94A5
:104DB000110D019709F0DDC40E94891D0E94301B6E
:104DC0000E94060E609317037093180380931903D3
:104DD00090931A036093050370930603809307036F
:104DE00090930803D092160180911601813009F04A
:104DF000E9C0109216010091030310910403F80119
:104E0000EB52FD4E84910E940222F801E85BFD4EB8
:104E10006491462E512C509202034092010370E09F
:104E200090E080E00E94DF3226E636E646EA50E473
:104E30000E9445330E94A932709300036093FF02E1
:104E400087E08093D5038093D6039092D403809219
:104E5000D3039092D2038092D1030E94891DC20194
:104E60006AE070E00E94DA337B0126EF26038001BE
:104E7000279F100D1124040D151D54E645165104ED
:104E80000CF482C483E590E00E94121539E5632E8C
:104E9000712C1092CE031092CD031092D003109279
:104EA000CF03C7010E94821E7092CE036092CD0391
:104EB0001092D0031092CF03B801012E000C880B82
:104EC000990B17FF69C40E94611E60EA71E081ECD2
:104ED00093E00E940C1E0E94301B809115018130CE
:104EE00009F066C093E0909315019091E60291114C
:104EF0005FC06090FD027090FE028093D5038093A6
:104F0000D6039092D4038092D3039092D2038092DE
:104F1000D103F12CE12C0DE010E025E230E043E379
:104F200050E070E060E081EC93E00E943314EE24E6
:104F3000E394F12C22E230E043E350E070E060E0E3
:104F400081EC93E00E943F136114710409F028C4BE
:104F500083E090E09093CE038093CD03E6E3F0E00E
:104F6000F093D003E093CF0321E030E049E350E039
:104F70006CE070E081EC93E00E94B90F21E030E03A
:104F800049E350E063E170E081EC93E00E94B90FE7
:104F900021E030E049E350E06AE170E081EC93E029
:104FA0000E94B90FC30101960E94821E0E94301B0D
:104FB00060910A0370910B0380910C0390910D0393
:104FC0000E94911E8091FB029091FC02019709F0D2
:104FD00048C08091170390911803A0911903B091D4
:104FE0001A034091F7025091F8026091F902709112
:104FF000FA02841B950BA60BB70B803D9740A105C9
:10500000B10578F18091FD029091FE026091030359
:10501000FC01E551FD4F608390E00E949B321092AD
:10502000FC021092FB02009101031091020321E0A7
:1050300043EA51E061E0809116030E94F61E6CE2A3
:1050400071E080E090E00E94D30D00910103109187
:10505000020321E043EA51E062E0809116030E94DE
:10506000F61E80911501833061F5809117039091B0
:105070001803A0911903B0911A034091E7025091CF
:10508000E8026091E9027091EA02841B950BA60B7D
:10509000B70B813D9740A105B10598F082E0809360
:1050A0001501F12CE12C0DE010E025E230E043E3A6
:1050B00050E070E060E081EC93E00E9433140E94C5
:1050C000301B8091E602882309F47FC410921601F8
:1050D0000E94891D83E0F82EF092D503F092D6034A
:1050E0009092D4038092D3039092D2038092D10302
:1050F0000AE010E020E430E040E850E070E060E0DA
:1051000090E080E00E9403178091E602813009F070
:10511000A6C381E290E09093CE038093CD0388E014
:1051200090E09093D0038093CF0387EA91E00E94B0
:105130008C1E8BE290E09093CE038093CD0383E2AC
:1051400090E09093D0038093CF038CEA91E00E948B
:105150008C1E0E94301B8091170390911803A09120
:105160001903B0911A034091E2025091E302609159
:10517000E4027091E502841B950BA60BB70B8930F6
:105180009740A105B10580F01092E60268EC71E04D
:1051900084E293E00E940C1E60EA71E084E293E0F6
:1051A0000E940C1ED09216018091E0029091E102C3
:1051B000029709F045C08091E602811141C010922A
:1051C000E1021092E0028091DE029091DF02892BD1
:1051D00009F00CC41092FC021092FB02009117031C
:1051E000109118032091190330911A0300930503BD
:1051F0001093060320930703309308038091FD0268
:105200009091FE02019664E070E00E94DA33909380
:10521000FE028093FD0285519D4FFC01808190E04C
:105220009093040380930303D0921601D09215014A
:105230000093E7021093E8022093E9023093EA0218
:105240008091E0029091E102039709F0E3C390920C
:10525000DF028092DE0200911301109114010130EF
:10526000110541F5109214011092130167E370E0EB
:1052700088EC90E00E94BA1C6FE070E080E090E063
:105280000E94D30D67E370E088EC90E00E94BA1CA6
:1052900080911E0390911F03019709F0ACC31092F7
:1052A0001F0310921E0310921D0310921C0382E034
:1052B0008093E6022091DA023091DB022230310540
:1052C00009F0BAC31092DB021092DA028091E60272
:1052D000811124C78091170390911803A09119039D
:1052E000B0911A038093050390930603A0930703DC
:1052F000B093080380911603811191C3D0921603D5
:10530000D092D902109216018EC6AC0140545109B8
:1053100057FF02C04F5F5F4F559547956255710922
:1053200077FF02C06F5F7F4F7595679510E4E12EA0
:10533000F12C02E510E02CEE37E081EC93E00E94C6
:10534000D01582E08093E3038091DE039091DF0328
:10535000892B09F4E8C08091C7039091C803809716
:1053600009F0DFC08CE38093E2031092A702109251
:10537000A60210922103109220030E946E1889EB5E
:105380009CE09093A5028093A4028AEB9CE090930A
:10539000A3028093A2028091E90387FD1EC061E011
:1053A0000E94680D61E08091E9030E943A0D61E07E
:1053B00070E080E090E00E94D30D60E08091E9030E
:1053C0000E943A0D6AE070E080E090E00E94D30D08
:1053D00061E08091E9030E943A0D8091DE03909193
:1053E000DF03892B09F45EC12091F6033091F703A6
:1053F0004091F8035091F90360E074E284EF90E08B
:105400000E94EE33205131094109510956954795C3
:10541000379527952093B80064E086ED95E00E94CB
:10542000191A6091C703615081EC93E00E94CE1A73
:1054300064E082ED95E00E94191A8091E30360E137
:10544000813009F064E181EC93E00E94CE1A64E0BF
:105450008EEC95E00E94191A8FE88093FE038091EC
:10546000C5039091C6038038910509F034C180913D
:10547000C7039091C8038034910509F03CC1809125
:10548000E303813009F025C18FE98093FE0312E127
:105490006AED81EC93E00E94CE1A612F81EC93E0DB
:1054A0000E94CE1A61E881EC93E00E94CE1A6091CE
:1054B000FE0381EC93E00E94CE1A69ED81EC93E04B
:1054C0000E94CE1A8091E30362E2813009F061EF1D
:1054D00081EC93E00E94CE1A66E088EC95E00E9491
:1054E000191A8091DE039091DF03892B09F407C11B
:1054F0002091FA033091FB034091FC035091FD038E
:1055000060E074E284EF90E00E94EE3320513109B4
:105510004109510956954795379527952093B8002D
:10552000A1C98DE320CF61E08091E7030E94680D5F
:1055300061E08091E8030E94680D8091E703082EE6
:10554000000C990BFC01E850FA4FE491F0E0EE0FEB
:10555000FF1FE251FA4F259134913093EF032093CE
:10556000EE03FC01E652FA4FE491E093F4038091DC
:10557000E803082E000C990BFC01E850FA4FE49167
:10558000F0E0EE0FFF1FE251FA4FA591B491B093F6
:10559000F103A093F003FC01E652FA4FE491E0938B
:1055A000F5038C91E82BEC938091DC039091DD0363
:1055B000892B09F434C01FB7F8948091A10281119E
:1055C00027C0E2E0F6E08491E4EEF5E09491E82F64
:1055D000F0E0EE0FFF1FE254FA4FA591B491EC9169
:1055E000E92321F461E08AE00E943A0D61E08AE05B
:1055F0000E94680D8CB580618CBD8CB580648CBDBB
:1056000061E08DE00E94680D61E08BE00E94680D12
:105610008091A1028F5F8093A1021FBFBCCE61E089
:105620008091E5030E94680D61E08091E6030E948D
:10563000680D8091E503082E000C990BFC01E850E1
:10564000FA4FE491F0E0EE0FFF1FE251FA4F25917F
:1056500034913093EB032093EA03FC01E652FA4FB6
:10566000E491E093F2038091E603082E000C990B7D
:10567000FC01E850FA4FE491F0E0EE0FFF1FE25119
:10568000FA4FA591B491B093ED03A093EC03FC0104
:10569000E652FA4FE491E093F3038C91E095E8230E
:1056A000EC9379CE8091DC039091DD03892B31F06E
:1056B0008091FF03909100040E947010E091F0032C
:1056C000F091F10390818091F50380958923808387
:1056D000A3CE8FECDACE8036910569F48091C703B2
:1056E0009091C803409739F48091E303813029F405
:1056F00080E18093FE0312E0CBCE8FEAFACFE091F7
:10570000F003F091F10380819091F503892B808360
:10571000A9C8893E9340A105B10508F4BFCA4093CA
:105720001203509313036093140370931503809135
:105730000903813059F41092090360910A037091B2
:105740000B0380910C0390910D03A6CAD09209031C
:10575000F12CE12C07E010E020E230E049E350E0DA
:105760006FE570E081EC93E00E9433140E94301BDF
:1057700095CA06E910E021E04BE851E061E0809134
:1057800016030E94F61E06CB89E290E00E941215D5
:1057900025E3622E712C7DCB4AE00E941B1E95CB27
:1057A000F1E06F16710499F40BE010E01093CE0352
:1057B0000093CD0326E330E03093D0032093CF0352
:1057C00021E030E049E350E065E070E0D3CB32E027
:1057D00063167104E9F441E150E05093CE03409325
:1057E000CD0386E390E09093D0038093CF0321E034
:1057F00030E049E350E065E070E081EC93E00E9426
:10580000B90F21E030E049E350E06CE070E0BCCB40
:10581000E9E1F0E0F093CE03E093CD0306E310E07E
:105820001093D0030093CF0321E030E049E350E030
:1058300065E070E081EC93E00E94B90F21E030E078
:1058400049E350E06CE070E081EC93E00E94B90F16
:1058500021E030E049E350E063E170E09FCB82302B
:10586000F9F481E290E09093CE038093CD0388E039
:1058700090E09093D0038093CF0387EA91E00E9459
:105880008C1E84E290E09093CE038093CD0383E25C
:1058900090E09093D0038093CF038FEA91E057CCB0
:1058A000833009F049C08AE190E09093CE03809361
:1058B000CD0385E090E09093D0038093CF0383EBFA
:1058C00091E00E948C1E86E0EEE1F1E0DE0111968F
:1058D00001900D928A95E1F718861F8280910B0343
:1058E0008F9380910A038F9380910D038F93809102
:1058F0000C038F9389EB91E09F938F9341E050E0ED
:105900004C0F5D1F5F934F930E945B358CE190E0DD
:105910009093CE038093CD0383E290E09093D003E5
:105920008093CF03CE0101960E948C1E0FB6F8948F
:10593000DEBF0FBECDBF0DCC843009F00ACC8CE1A8
:1059400090E09093CE038093CD0385E090E0909318
:10595000D0038093CF0383EC91E00E948C1E86E0FD
:10596000EEE1F1E0DE01119601900D928A95E1F7EA
:1059700018861F8280910B038F9380910A038F9367
:1059800080910D038F9380910C038F9389EB91E0AD
:105990009F938F93E1E0F0E0EC0FFD1FFF93EF93F7
:1059A0000E945B35F092D503F092D6039092D40317
:1059B0008092D3039092D2038092D10309E110E048
:1059C0001093CE030093CD03A7CF8091170390913E
:1059D0001803A0911903B0911A038093E2029093E7
:1059E000E302A093E402B093E502DECB1092DF0263
:1059F0001092DE0225CC10931F0300931E03109318
:105A00001D0300931C03D092E6021093DD02009365
:105A1000DC0250CC90921401809213014BCC813067
:105A200009F012C39091D802923009F4F2C208F042
:105A3000E6C2992309F401C38091DA029091DB0256
:105A4000039709F06BC380910F01909110010197AA
:105A500031F51092100110920F011092160310925E
:105A6000D902D092160167E370E088EC90E00E94C2
:105A7000BA1C6FE070E080E090E00E94D30D67E315
:105A800070E088EC90E00E94BA1C80911701813090
:105A900009F040C31092170184E08093E6027090F1
:105AA0001603711016C01AECA12E12E0B12ECC24F0
:105AB000C39400EEE02E02E0F02E04E610E02EEC9F
:105AC00032E04BE051E06DE071E080E190E00E9457
:105AD000F51CE0ECAE2EE2E0BE2EC12CF4ECEF2E75
