:100000000C9449090C9471090C9471090C947109B0
:100010000C9471090C9471090C9471090C94710978
:100020000C9471090C9471090C9471090C94710968
:100030000C9471090C9471090C9471090C94710958
:100040000C94A92B0C9471090C94B32E0C94E52EEE
:100050000C9471090C9471090C9471090C94710938
:100060000C94C01E0C94710901020B1524334450EA
:100070005D6062636363605E5A5A5A5A01030B15EE
:1000800024333F474A4B4C4C4C4B4A49494847471D
:100090001415161718191A1B1C1D1E1F20212223A8
:1000A0002425262728292A2B2C2D2E2F3031323398
:1000B0003435363738393A3B3C3D3E3F4041424388
:1000C0004445464748494A4B4C4D4E4F5051525378
:1000D0005455565758595A5B5C5D5E5F6061626368
:1000E0006465666768696A6B6C6D6E6F7071727358
:1000F0007475767778797A7B7C7D7E7F8081828348
:100100008485868788898A8B8C8D8E8F9091929337
:100110009495969798999A9B9C9D9E9FA0C8A86835
:100120001898D838780484C4A4E4945434B4F48C73
:10013000CCACEC1C5CDCBC7C0282C22262E292523F
:1001400032B2F20A4ACAAA6A1A9ADA3A7AFA86469F
:1001500026A6E61656D6B6760E8ECE2E6EEE9E5E8F
:100160003EBEFE8141C1A1611191D13171F1894938
:1001700029A9E91959D9B9790585C52565E595559F
:1001800035B5F50D4DCDAD6D1D9DDD3D7DFD83433B
:1001900023A3E3139353D333B373F38B4BCB2BAB27
:1001A0006BEB9B5BDB7BFB0787C700007FFFFFFFE1
:1001B000C00000000000000000000000FFFFFFFF83
:1001C000E00000000000000000000001FFFFFFFF52
:1001D000F0000000F8633E7C00000001FFFFFFFF1D
:1001E000F0000001FC633E7E00000003FFFFFFFF04
:1001F000F80000038E63306600000003E00000009A
:10020000F800000306363E6600000007E00000002C
:10021000FC00000306363E7E00000007C000000020
:100220007E0000030636307C0000000FC000000096
:100230007E0000038E1C306C0000001F8000000058
:100240003F000001FC1C3E660000001F8000000013
:100250003F000000F81C3E660000003F0000000068
:100260001F800000000000000000003F00000000B0
:100270000F800000000000000000007E0000000071
:100280000FC00000000000000000007C0000000023
:1002900007C003C333E3E3E61BF000FC00000000EB
:1002A00007E007F333F3F3E71BF000F8000000006A
:1002B00003E00E233333330798C001F80000000039
:1002C00003F00C03333333E798C001F00000000063
:1002D00001F00C0333F3F3E6D8C003F00000000094
:1002E00001F80C0333E3E30678C003E0F0FF870373
:1002F000F0F80E233363630678C007E0F8FF9F83AE
:10030000F8FC07F3F33333E638C007C3FCFFBFC381
:10031000F87E03C1E33333E618C00FC39E1839C318
:100320009C7E00000000000000001F839E1879E3FF
:100330009C3F00000000000000001F839E1879E32E
:100340009C3F00000000000000003F03801879E39C
:100350009C1F80000000000000003F03801879E32C
:100360009C0F80000000000000007E01801879E3EF
:100370009C0FC0000007000000007C01F01879E32A
:10038000FC07C000000F80000000FC00FC1879E3AF
:10039000F807E000000F80000000F800FC1879E387
:1003A000F003E000000F80000000FC001E1879E35D
:1003B0008007E000000F800000007C001E1879E339
:1003C0008007C000000F800000007E001E1879E347
:1003D000800FC000000F800000003E031E1879E36C
:1003E000800F8000000F800000003F031E1839E3DB
:1003F000801F8000000F800000001F839E183DC3F7
:10040000801F0000000F800000001F81FC183FC308
:10041000803F0000000F800000000FC0FC181F8309
:10042000807E0000000F800000000FC00000000070
:10043000007E0000000F8000000007E000000000C8
:1004400000FC0000000F8000000003E0000000003E
:1004500000FC0000000F8000000003F0000000001E
:1004600001F80000000F8000000001F00000000013
:1004700001F00000000F8000000001F80000000003
:1004800003F00000000F8000000000F800000000F2
:1004900003E00000000F8000000000FC00000000EE
:1004A00007E00000000F80000000007C000000005A
:1004B00007C00000000F80000000007E0000000068
:1004C0000FC00000000F80000000003F000000008F
:1004D0000F800000000700000000003F0000000047
:1004E0001F800000000000000000001F80000000CE
:1004F0003F000000000000000000001F800000001E
:100500003F000000000000000000000FC0000000DD
:100510007E0000000007000000000007C00000008F
:100520007E000000000F800000000007E0000000D7
:10053000FC000000001FC00000000003E0000000FD
:10054000F8000000001FC00000000003FFFFFFFFD5
:10055000F8000000000F800000000001FFFFFFFF17
:10056000F00000000007000000000001FFFFFFFF97
:10057000F00000000000000000000000FFFFFFFF8F
:10058000E000000000000000000000007FFFFFFF0F
:10059000C000000000000000000000000001C000DA
:1005A0000000000000000000000000000003E00068
:1005B000003FFCF000000000000000000003F0001D
:1005C000003FFCF000000000000000000003F80005
:1005D000003FFC0000000000000000000001FC00E3
:1005E0000003C0F3DE700F83DC0000000000FE009B
:1005F0000003C0F3FFF83FE3FC00000000007F00B1
:100600000003C0F3FFFC3FE3F800000000003F8060
:100610000003C0F3CF3C78F3E00000007F801FC0F0
:100620000003C0F3CF3C7FF3C0000003FFF01FE0E6
:100630000003C0F3CF3C7FF3C000000FFFFC3FF08E
:100640000003C0F3CF3C7803C000003FFFFF7FF8FA
:100650000003C0F3CF3C7CF3C000007FFFFFFFFC32
:100660000003C0F3CF3C3FE3C00000FF847FFCFEEB
:100670000003C0F3CF3C3FE3C00003FE041FF87F3C
:100680000003C0F3CF3C0F83C00003F80407F83F1A
:100690000000000000000000000007F00001F81F4B
:1006A000000000000000000000000FC00000FC0E71
:1006B000000000000000000000001FC000007E00DD
:1006C000000000000000000000001FA00000FE006D
:1006D000000000000000000000003F1000013F008B
:1006E000000000000000000000003E0800001F00A5
:1006F000000000000000000000007E0400001F80D9
:10070000000000000000000000007C0000000F80DE
:10071000000000000000000000007C0000000F80CE
:10072000000000000000000000007C0000000F80BE
:1007300000000000000000000000FC00000007C0F6
:1007400000000000000000000000F800000007C0EA
:1007500000000000000000000000F8003C0027C07E
:1007600000000000000000000000F8003C0037C05E
:1007700000000000000000000000FF003FFFFFE05D
:1007800000000000000000000000F8003C0037C03E
:1007900000000000000000000000F8003C0027C03E
:1007A00000000000000000000000F800000007C08A
:1007B00000000000000000000000F800000007C07A
:1007C000000000000000000000007C0000000F801E
:1007D000000000000000000000007C0000000F800E
:1007E000000000000000000000007C0000000F80FE
:1007F000000000000000000000007E0000001F80DC
:10080000000000000000000000003E0000021F0089
:10081000000000000000000000003F0800013F0051
:10082000000000000000000000001F900000FE001B
:10083000000000000000000000001FA000007E007B
:10084000000000000000000000000FC00000FC00DD
:100850003000000000000000000007F00001F80078
:10086000380001FFF0000000000007F80407F8005E
:100870003E0001FFF0000000000003FE041FF00036
:100880003F0001FFF000E007038001FF847FE000EC
:100890003FC001FFF001F00F87C0007FFFFFC000E5
:1008A0003FE001FFF003B81DCEE0003FFFFF000076
:1008B0003FF001FFF003BB9DCEE0000FFFFE000004
:1008C0003FF801FFF003BB9DCEE00003FFF80000FE
:1008D0003FFC01FFF003BB9DCEE00000FFC0000025
:1008E0003FFC01FFF003B81DCEE000000000000057
:1008F0003FF801FFF003BB9DCEE0000000000000C8
:100900003FF001FFF001F38F87C0000000000000FE
:100910003FE001FFF001F38F87C0000000000000FE
:100920003F8001FFF000E0070380000000000000AE
:100930003F0001FFF0000000000000000000000088
:100940003E00000000000000000000000000000069
:100950003800000000000000000001FFC00000009F
:10096000000000000000000001FFC00000000000C7
:1009700000000000000001FFC000000000000000B7
:100980000000000001FFC0000000000000000000A7
:10099000000001FFC0000000000000000000000097
:1009A00001FFC000000000000000000000007FFF09
:1009B000FF00000000000000000000007FFFFF00BB
:1009C000000000000000000000007FFFFF00000F9B
:1009D00000000000000000007FFFFF00001F00007B
:1009E0000000000000007FFFFF00003F000000004B
:1009F000000000007C001F00007E000000000000DE
:100A000000007C001F0000FC00000000000000004F
:100A10007C001F0001F800E038F0C00000007C00FE
:100A20001F0003F000F038F3C00000007C001F003E
:100A300007E000F83803C00000007C001F000FE052
:100A400000F838F7F3DC7C007C001F001FC000FCBE
:100A500038F7F3FCFF007C001F003F8000FE38F7F2
:100A6000F3F9FF007C001F007F0000FF38F3C3E3B1
:100A7000EF807C001F00FFFF00F738F3C3C3C7807F
:100A80007C001F01FFFF00F3B8F3C3C3C7807C00E5
:100A90001F01FFFF00F1F8F3C3C3C7807C001F01F3
:100AA000FFFE00F0F8F3C3C3EF807C001F00FFFCE3
:100AB00000F0F8F3F3C1FF007C001F0001FC00F020
:100AC00078F3F3C0FE007C001F0003F800F038F15B
:100AD000F3C07C007C001F0003F000000000000059
:100AE00000007C001F0007E0000000000000000084
:100AF0007C001F000FC000000000000000007C0010
:100B00001F001FC000000000000000007C001F024A
:100B10003F8000000000000000007C001F037F00F9
:100B200000000000000000007C001F03FE00000029
:100B30000000000000007C001F03FC00000000001B
:100B4000000000007C001F03FC000000000000000B
:100B500000007C001F03F8000000000000000000FF
:100B60007FFFFF03F80000000000000000007FFF8F
:100B7000FF03FC0000000000000000007FFFFF03F7
:100B8000FE0000000000000000007FFFFF000000EA
:100B900000000000000000007FFFFF0000000000D8
:100BA000000000000000E006300C3F00FC00E00602
:100BB000300C7181FE00E00E300C60C30300E00ECB
:100BC000300CC0620300A00A300CC0620100B00A01
:100BD000300CC0660180B00A300CC0660180901AEB
:100BE000300CC00601809012300CC00601809812B3
:100BF000300C600601809832300C7006018098320B
:100C0000300C180601808832300C0E0601808C22D0
:100C1000300C070601808C62300C038601808C62E8
:100C2000300C00C601808462300C00C60180844212
:100C3000300C006601808642300CC066018086C29E
:100C4000300CC066018082C2301CC0660100828206
:100C5000301CC062010083821818C0C30300838265
:100C60001C3061C1FE0083820FE03F80FC00000069
:100C70000000000000000000000000000000000074
:100C800000000000000007FE0F840220100000207A
:100C900010840220100000202044042010000020B6
:100CA00020440820100000204024002010000020D4
:100CB000402410201000002040242020100000209C
:100CC000402420201000002040244020100000205C
:100CD00040248020100000204024802010000020AC
:100CE00040258020100000204026C0201000002059
:100CF000402640201000002040242020100000202A
:100D0000402410201000002040241020100000205B
:100D1000402408201000002020440830300000202B
:100D20002044041020000020204402102000002055
:100D30001F84020FC00000000000003E5B4F5B3EBE
:100D40003E6B4F6B3E1C3E7C3E1C183C7E3C181C90
:100D5000577D571C1C5E7F5E1C00183C1800FFE787
:100D6000C3E7FF0018241800FFE7DBE7FF30483A2D
:100D7000060E2629792926407F050507407F05258F
:100D80003F5A3CE73C5A7F3E1C1C08081C1C3E7F17
:100D900014227F22145F5F005F5F06097F017F00DE
:100DA0006689956A606060606094A2FFA2940804FE
:100DB0007E040810207E201008082A1C08081C2A1F
:100DC00008081E101010100C1E0C1E0C30383E3877
:100DD00030060E3E0E06000000000000005F00001E
:100DE0000007000700147F147F14242A7F2A12238F
:100DF0001308646236495620500008070300001C9F
:100E00002241000041221C002A1C7F1C2A08083EA7
:100E100008080080703000080808080800006060BA
:100E20000020100804023E5149453E00427F400028
:100E300072494949462141494D331814127F102700
:100E4000454545393C4A494931412111090736494F
:100E5000494936464949291E000014000000403423
:100E60000000000814224114141414140041221428
:100E70000802015909063E415D594E7C1211127C4F
:100E80007F494949363E414141227F4141413E7FB0
:100E9000494949417F090909013E414151737F0890
:100EA00008087F00417F41002040413F017F081436
:100EB00022417F404040407F021C027F7F04081097
:100EC0007F3E4141413E7F090909063E4151215E75
:100ED0007F09192946264949493203017F01033F09
:100EE0004040403F1F2040201F3F4038403F631498
:100EF00008146303047804036159494D43007F419A
:100F000041410204081020004141417F04020102D6
:100F100004404040404000030708002054547840FB
:100F20007F284444383844444428384444287F388F
:100F30005454541800087E090218A4A49C787F0811
:100F400004047800447D40002040403D007F10288C
:100F5000440000417F40007C047804787C0804044D
:100F6000783844444438FC1824241818242418FCE5
:100F70007C08040408485454542404043F44243C8A
:100F80004040207C1C2040201C3C4030403C4428F9
:100F90001028444C9090907C4464544C4400083693
:100FA0004100000077000000413608000201020401
:100FB000023C2623263C1EA1A161123A4040207A21
:100FC0003854545559215555794122545478422169
:100FD0005554784020545579400C1E5272123955A0
:100FE000555559395454545939555454580000459D
:100FF0007C410002457D420001457C407D1211127A
:101000007DF0282528F07C545545002054547C540C
:101010007C0A097F4932494949323A4444443A32C8
:101020004A4848303A4141217A3A42402078009D6E
:10103000A0A07D3D4242423D3D4040403D3C24FF1A
:101040002424487E4943662B2FFC2F2BFF0929F6C9
:1010500020C0887E090320545479410000447D411A
:101060003048484A32384040227A007A0A0A727D73
:101070000D19317D2629292F28262929292630488E
:101080004D4020380808080808080808382F10C8FC
:10109000ACBA2F102834FA00007B000008142A1480
:1010A0002222142A1408AA005500AAAA55AA55AA51
:1010B000000000FF00101010FF00141414FF0010B7
:1010C00010FF00FF1010F010F0141414FC001414A2
:1010D000F700FF0000FF00FF1414F404FC141417C1
:1010E000101F10101F101F1414141F00101010F0E8
:1010F000000000001F101010101F10101010F01032
:10110000000000FF101010101010101010FF100041
:101110000000FF140000FF00FF00001F1017000078
:10112000FC04F414141710171414F404F40000FF52
:1011300000F714141414141414F700F714141417EB
:101140001410101F101F141414F4141010F010F0C9
:1011500000001F101F0000001F14000000FC1400FE
:1011600000F010F01010FF10FF141414FF141010F2
:10117000101F00000000F010FFFFFFFFFFF0F0F075
:10118000F0F0FFFFFF0000000000FFFF0F0F0F0F48
:101190000F3844443844FC4A4A4A347E0202060668
:1011A000027E027E0263554941633844443C044058
:1011B0007E201E2006027E020299A5E7A5991C2A20
:1011C000492A1C4C7201724C304A4D4D30304878DF
:1011D0004830BC625A463D3E494949007E01010102
:1011E0007E2A2A2A2A2A44445F444440514A4440E1
:1011F00040444A51400000FF0103E080FF00000826
:10120000086B6B083612362436060F090F060000ED
:1012100018180000001010003040FF0101001F01ED
:10122000011E00191D1712003C3C3C3C0000000050
:101230000000000008000201000003040700000095
:101240000000000000010204081020408001020498
:1012500008102001020408102004040404040404FB
:10126000040202020202020303030303030000005C
:101270000023002600290000000000250028002B84
:101280000000000000240027002A0000D8101E1EC5
:10129000152F11241FBECFEFD8E0DEBFCDBF16E063
:1012A000A0E0B1E0E6E9FAE602C005900D92A039AF
:1012B000B107D9F728E0A0E9B6E001C01D92A13B33
:1012C000B207E1F712E1C2E9D2E104C02297FE01C0
:1012D0000E942432CC38D107C9F70E94A6300C9462
:1012E00049350C94000094E69A95F1F70895089515
:1012F000B0E0A4E0002409D032F40A94E1F7119799
:10130000C9F7289408C0A89406C0A894359901C0CC
:1013100028940000089508953C983D984498459875
:1013200088279927349B0895359B089581E0089577
:1013300081E00895F894359BDBDF3C9AD4DF0ED032
:10134000089581E008953D9A3C9ACDDF3D98CBDF2A
:10135000359BCEDF3C98C7DF789408950894881FAA
:1013600001C0880FB9F03D9A00000000000018F499
:1013700000003C9802C03C9A00C0B5DF3D98A8949C
:10138000000000000000359BB3DF12F4882712C074
:10139000AADFE7CF3D9A000000003C98A4DF992720
:1013A00088273D98A8940000359BA2DF7AF3349BF0
:1013B00081E099DF000000003D9A089581E00895E2
:1013C000DF92EF92FF920F931F93CF93DF93D62E6E
:1013D0000E94A30961E070E080E090E00E94222C6E
:1013E0000E94A30961E070E080E090E00E94222C5E
:1013F0008BE0E82EF12C01E010E081E0E81AF10822
:1014000031F180EC0E949A09882319F0C1E0D0E004
:1014100004C000E010E0C0E0D0E084E40E94AE0927
:10142000811104C000E010E0C0E0D0E08D2D0E94EA
:10143000AE09811102C0C0E0D0E00E94A30961E0C2
:1014400070E080E090E00E94222CCD2BB1F2012BC5
:1014500011F5CBE0D0E02197F1F080EC0E949A09E1
:10146000082F84E40E94AE09882311F010E002C026
:1014700000E010E08D2D0E94AE09811102C000E055
:1014800010E00E94A30961E070E080E090E00E941B
:10149000222C012B01F3DF91CF911F910F91FF902F
:1014A000EF90DF900895EF92FF920F931F93CF93E9
:1014B000DF938C0167E08FE197E00E94212661E0D5
:1014C00070E08FE197E00E9427268FE197E00E946D
:1014D0008D29C8016AE070E00E94D8317B0126EFB7
:1014E0002603E001279FD00D1124C00FD11F043621
:1014F00011057CF001E010E024E030E047E350E02B
:1015000063E570E08FE197E00E94642309E510E055
:101510000EC001E010E024E030E047E350E069E273
:1015200070E08FE197E00E94642305E310E040E063
:1015300050E060E070E08FE197E00E941B264AE0F7
:1015400050E0B7018FE197E00E94583040E050E052
:10155000B8018FE197E00E941B264AE050E0BE01EF
:101560008FE197E00E9460308FE197E0DF91CF91AB
:101570001F910F91FF90EF900C94222BFF920F93ED
:101580001F93CF93DF93F62EEA0181114FC0809114
:101590009D0681114BC0223091F018F4213079F072
:1015A00028C02330C9F0243021F561E08FE197E0B5
:1015B0000E94212642E050E06FE570E016C061E035
:1015C0008FE197E00E94212649E350E0043611059F
:1015D00054F46EE370E009C063E08FE197E00E948D
:1015E00021264AE050E062E070E08FE197E00E943F
:1015F0001B2681E0F81203C061E070E005C082E0C4
:10160000F81214C060E070E08FE197E00E94272696
:10161000BE018FE197E00E94962F8FE197E0DF9166
:10162000CF911F910F91FF900C94222BDF91CF91BE
:101630001F910F91FF900895FF920F931F93CF93E7
:10164000DF93EB016F3571050CF071C0813009F447
:101650006EC0EDE1F1E0649180E00E94E00961E09C
:101660008FE00E940F2DC233D1052CF500910E079B
:1016700010910F0724E041E355E061E08091D60628
:101680000E94BE0A0CE710E0F801F490EF2DF0E0A4
:10169000E35EFE4F649180E00E94E0096AE070E042
:1016A00080E090E00E94222C0F5F1F4FF0E0003995
:1016B0001F0751F718C008E610E0F801F490EF2D6D
:1016C000F0E0E35EFE4F649180E00E94E0096AE092
:1016D00070E080E090E00E94222C0F5F1F4FF0E04E
:1016E0000C371F0751F7EF2DF0E0CF018C1B9D0B3E
:1016F0001816190674F4E35EFE4F649180E00E94B0
:10170000E00962E070E080E090E00E94222CFA9410
:10171000EACFE29764F400910E0710910F0724E0DE
:1017200041E355E062E08091D6060E94BE0ADF9157
:10173000CF911F910F91FF9008953F924F925F922A
:101740006F927F928F929F92AF92BF92CF92DF92D1
:10175000EF92FF920F931F93CF93DF93CDB7DEB736
:1017600028970FB6F894DEBF0FBECDBF382E5B01B1
:101770007A012901380146018FE197E00E948D2905
:1017800081E0381281C062E08FE197E00E9421265B
:1017900061E070E08FE197E00E94272645E050E08D
:1017A00063E270E08FE197E00E941B2667E375E03B
:1017B0008FE197E00E94962F4AE150E063E270E0EB
:1017C0008FE197E00E941B2661E375E08FE197E0CF
:1017D0000E94962F4FE250E063E270E08FE197E0C5
:1017E0000E941B266DE375E08FE197E00E94962F23
:1017F00092E0A916B104E1F0E3E0AE16B10461F1A4
:10180000AA94AB2809F0A5C183E0F7018083E09199
:101810001F07F09120070484F585E02DEE24E39462
:10182000F12C05E110E026E430E041E050E026C074
:1018300082E0F7018083E0911F07F0912007048484
:10184000F585E02DEE24E394F12C05E110E026E48B
:1018500030E046E150E012C0F7011082E0911F072E
:10186000F09120070484F585E02DEE24E394F12C1B
:1018700005E110E026E430E04BE250E06DE170E07D
:101880008FE197E0099565C1F2E03F12C5C08FE195
:1018900097E00E948D29CC24C394D12C2AE2E22E19
:1018A000F12C09E610E02AE539E044E050E064E07C
:1018B00070E08FE197E00E945A2462E08FE197E0A8
:1018C0000E9421264DE250E067E370E08FE197E04F
:1018D0000E941B2681E0A816B10409F45BC092E0C7
:1018E000A916B10409F035C1F2013082E0911F0759
:1018F000F09120070684F785E02DEE24E394F12C87
:1019000003E110E02DE030E046E150E06AE070E0F5
:101910008FE197E0099561E070E08FE197E00E9428
:1019200027266AE475E08FE197E00E94962F61E038
:1019300070E08FE197E00E94272666E475E08FE172
:1019400097E00E94962FCC24C394D12C15E0E12E71
:10195000F12C07E110E028E230E048E250E068E5D1
:1019600070E08FE197E00E949C2360E070E08FE1DF
:1019700097E00E94272648E150E06BE070E08FE19D
:1019800097E00E941B266EE475E08FE197E00E94CD
:10199000962FDFC081E0F2018083E0911F07F09174
:1019A00020070684F785E02DE12CF12C03E110E0FF
:1019B0002DE030E044E150E06AE070E08FE197E034
:1019C000099561E070E08FE197E00E94272662E4CC
:1019D00075E08FE197E00E94962F61E070E08FE163
:1019E00097E00E94272665E475E08FE197E00E946A
:1019F000962FCC24C394D12C85E0E82EF12C07E15E
:101A000010E020E230E048E250E062E370E08FE175
:101A100097E00E949C239DC0F3E03F129AC08FE1A3
:101A200097E00E948D29CC24C394D12C7CE3E72E2F
:101A3000F12C0BE710E02AE935E040E050E060E0EF
:101A400070E08FE197E00E945A2482E0A816B1046A
:101A5000C1F093E0A916B10439F1AA94AB28D9F5E5
:101A6000F301108281E0F401808355E0E52EF12C32
:101A700007E110E028E130E048E250E06BE270E07E
:101A800026C0F3011082F4011082CC24C394D12C1F
:101A900045E0E42EF12C07E110E029E130E048E2D6
:101AA00050E061E470E013C081E0F3018083F40151
:101AB0008083CC24C394D12C25E0E22EF12C07E1C5
:101AC00010E025E230E048E250E06AE570E08FE1A6
:101AD00097E00E949C2386E0E9E2F5E08E010F5F2B
:101AE0001F4FD80101900D928A95E1F718861F8249
:101AF0008091B4068F938091B3068F938091B60640
:101B00008F938091B5068F9380E595E09F938F9397
:101B10001F930F930E94523263E08FE197E00E947F
:101B2000212661E070E08FE197E00E94272641E1E5
:101B300050E065E370E08FE197E00E941B26B8015A
:101B40008FE197E00E94962F0FB6F894DEBF0FBE8C
:101B5000CDBF8FE197E00E94222B28960FB6F89414
:101B6000DEBF0FBECDBFDF91CF911F910F91FF90D0
:101B7000EF90DF90CF90BF90AF909F908F907F902D
:101B80006F905F904F903F9008951F93CF93DF9396
:101B9000182F0E94902CEC01812F0E94902C8C0F0A
:101BA0009D1F96958795DF91CF911F910895EF9294
:101BB000FF920F931F93CF93DF938C017B01C0E0C3
:101BC000D0E0CE15DF0584F461E086E00E940F2DA1
:101BD000C8010E944A2C60E086E00E940F2DC801D7
:101BE0000E944A2C2196EDCFDF91CF911F910F914A
:101BF000FF90EF9008954F925F926F927F928F9235
:101C00009F92AF92BF92CF92EF92FF920F931F934A
:101C1000CF93DF932B014A013901E7010E94452D43
:101C2000F20191838083F40120813181892B09F0B5
:101C30004BC02130310579F5118210828091040763
:101C400090910507A0910607B0910707F301408125
:101C50005181628173812C013D01441A550A660A43
:101C6000770AA801662757FD6095762F441655061A
:101C70006606770680F039832883F5018083918397
:101C8000A283B383F1E0CF1206C06DE470E088EC6C
:101C900090E00E94D70D8091040790910507A091D4
:101CA0000607B0910707F501408151816281738178
:101CB000841B950BA60BB70B8C329140A105B10587
:101CC000F8F083E090E01AC0232BD1F481E090E09B
:101CD000F401918380838091040790910507A0917E
:101CE0000607B0910707F30180839183A283B38332
:101CF00088819981892B21F082E090E09983888303
:101D0000DF91CF911F910F91FF90EF90CF90BF90F7
:101D1000AF909F908F907F906F905F904F900895BD
:101D2000DF92EF92FF920F931F93CF93DF93EC011B
:101D300040910407509105076091060770910707CD
:101D400088819981AA81BB81481B590B6A0B7B0B47
:101D500041385E4E6643710508F4A5C08FE197E0F7
:101D60000E948D298FE197E00E94222B00E010E075
:101D700023E04AE555E061E08091D6060E94BE0A64
:101D800060ED77E080E090E00E94222C8FE197E008
:101D90000E948D298FE197E00E94222B84E00E940F
:101DA000452D8C010E94F32B609304077093050767
:101DB0008093060790930707112784E00E94452D22
:101DC0007C0180E10E94452DDD24D394892B21F0F4
:101DD000E016F10609F4D12C82E00E94452D892BF2
:101DE00011F4DD24D39481E10E94452D892B11F05B
:101DF000DD2019F38FE197E00E948D298FE197E0B4
:101E00000E94222B00E010E023E042E655E061E072
:101E10008091D6060E94BE0A64E670E088EC90E0ED
:101E20000E94D70D68EE73E080E090E00E94222CC3
:101E30008FE197E00E948D298FE197E00E94222B8D
:101E400080E10E94452D019751F482E00E94452DCA
:101E5000019729F481E10E94452D019759F006E987
:101E600010E021E041E755E061E08091D6060E9454
:101E7000BE0AE6CF8FE197E00E948D298FE197E0BF
:101E80000E94222B0E94F32B609304077093050796
:101E90008093060790930707688379838A839B83DF
:101EA00081E080930901DF91CF911F910F91FF9005
:101EB000EF90DF900895CF92DF92EF92FF920F9311
:101EC0001F93CF93DF93EC0160E08FE00E940F2D12
:101ED0008FE197E00E948D29CC24C394D12CEFE3AD
:101EE000EE2EF12C0CE710E02AEA31E040E050E061
:101EF00060E070E08FE197E00E945A248FE197E064
:101F00000E94222B64E670E088EC90E00E94D70DDE
:101F100062E370E080E090E00E94222C64E670E0D2
:101F200088EC90E00E94D70D62E370E080E090E0E2
:101F30000E94222C64E670E088EC90E00E94D70DAD
:101F40006CED75E080E090E00E94222C8881863064
:101F5000F8F48FE197E00E948D298FE197E0DF91FF
:101F6000CF911F910F91FF90EF90DF90CF900C9445
:101F7000222B8091C5069091C606019751F71882D1
:101F80001092C4061092C3061092C6061092C5069F
:101F900082E00E94452D892B91F3EBCFCF92DF9207
:101FA000EF92FF920F931F93CF93DF93CDB7DEB7DE
:101FB00028970FB6F894DEBF0FBECDBF20919D06C7
:101FC000211144C07F936F939F938F9386E895E090
:101FD0009F938F93CE0101966C01DF928F930E94A5
:101FE0005232E0911F07F09120070684F785E02D1B
:101FF000E12CF12C07E010E020E230E049E350E072
:102000006FE570E08FE197E0099561E08FE197E07F
:102010000E94212661E070E08FE197E00E94272670
:1020200049E350E06FE570E08FE197E00E941B26E6
:10203000B6018FE197E00E94962F8FE197E00E9412
:10204000222B0FB6F894DEBF0FBECDBF28960FB679
:10205000F894DEBF0FBECDBFDF91CF911F910F91DE
:10206000FF90EF90DF90CF9008958F929F92AF9264
:10207000BF92CF92DF92EF92FF92CF93DF935A01FC
:10208000E90128EE33E040E050E00E94EC316901C4
:102090007A0121398EE738074105510530F0A0E972
:1020A000CA2EAEE7DA2EE12CF12CC701B60120E8EA
:1020B00031E541E050E00E94EC3120E13EE040E0BB
:1020C00050E00E94EC31F50131832083FCE38F2E38
:1020D000912CA12CB12CC701B601A50194010E943D
:1020E000EC31CA01B901A50194010E94EC31798358
:1020F0006883DF91CF91FF90EF90DF90CF90BF90FA
:10210000AF909F908F9008954F925F926F927F92C1
:102110008F929F92AF92BF92CF92DF92EF92FF92F7
:10212000CF93DF93C12CD12C7601C394CAE0D5E1C3
:102130004D2E512C612C712CD0E0530142018C1892
:102140009D08AE08BF0861E089E00E940F2DC7011D
:10215000B6010E94222C60E089E00E940F2DC5018B
:10216000B4010E94222CDF5FDC1768F3C150C53038
:1021700020F0CB3018F0CAE001C0C5E08FEFC81ADC
:10218000D80AE80AF80A84E1C816D104E104F10487
:1021900099F6DF91CF91FF90EF90DF90CF90BF90B5
:1021A000AF909F908F907F906F905F904F90089529
:1021B000EF920F930AE0E02E08E02CE04DE06BE098
:1021C0008FE197E00E9462290F91EF900895CF92DE
:1021D000DF92EF92FF920F931F93CF93DF9360E014
:1021E00089E00E940F2D61E089E00E94D62C26E054
:1021F00040E855E260E070E084E198E00E94512EF2
:1022000060E975E084E198E00E94962F4AE050E092
:1022100065ED72E084E198E00E94603021E04CE3DB
:1022200062E08FE197E00E94082A0E948C091092D8
:10223000D60660E089E00E940F2D61E089E00E94EF
:10224000D62C60E08EE00E94D62C60E080E10E94F7
:10225000D62C60E081E10E94D62C60E084E00E94F0
:10226000D62C60E083E00E94D62C61E086E00E94DC
:10227000D62C60E082E00E94D62C60E085E10E94CE
:10228000D62C60E084E10E94D62C61E08FE00E94B1
:10229000D62C61E087E00E94D62C60E085E00E94A9
:1022A000D62C60E089E00E940F2D60E087E00E945C
:1022B0000F2D60E086E00E940F2D61E082E00E9419
:1022C0000F2D8FE197E00E948D29E0911F07F0917B
:1022D00020070484F585E02DEE24E394F12C00E43E
:1022E00010E027E430E040E050E06DE170E08FE185
:1022F00097E00995CC24C394D12C22E3E22EF12C53
:1023000009E310E026EA3BE047E050E064E270E0D9
:102310008FE197E00E945A248FE197E00E94222BE0
:102320000E94841061E089E00E940F2D68EE73E046
:1023300080E090E00E94222C84E198E00E946E2DC3
:1023400080939B06882331F084E198E00E94872DDA
:1023500080939606809196068D3609F0FDC1109205
:1023600096068FE197E00E948D2961E08FE197E06A
:102370000E94212648E050E06AE070E08FE197E09B
:102380000E941B2661E070E08FE197E00E94272603
:1023900067EA75E08FE197E00E94962F82E08F93C5
:1023A00085ED8F9381EB95E09F938F9301E916E084
:1023B0001F930F930E94523248E050E066E470E0B1
:1023C0008FE197E00E941B26B8018FE197E00E9401
:1023D000962F44E150E062E070E08FE197E00E94C8
:1023E0001B2666EB75E08FE197E00E94962F80EF49
:1023F00090E00E9446348093D9064AE0B80190E00C
:102400000E942D328091D9061F928F93C3EBD5E0A5
:10241000DF93CF931F930F930E94523244E150E019
:1024200068E370E08FE197E00E941B26B8018FE11E
:1024300097E00E94962F81EF90E00E9446348093AF
:10244000D9064AE0B80190E00E942D328091D90669
:102450001F928F9380EC95E09F938F931F930F9320
:102460000E94523244E150E06BE470E08FE197E06B
:102470000E941B26B8018FE197E00E94962F82EF01
:1024800090E00E9446348093D9064AE0B80190E07B
:102490000E942D328091D9061F928F93DF93CF93A4
:1024A0001F930F930E94523244E150E06AE570E0BE
:1024B0008FE197E00E941B26B8018FE197E00E9410
:1024C000962F8FE197E00E94222B10929706109290
:1024D00098061092990610929A068DB79EB7489664
:1024E0000FB6F8949EBF0FBE8DBF84E198E00E94A6
:1024F0006E2D80939B069FEF980F923008F046C098
:102500004AE050E0682F84E198E00E948C3080918E
:10251000970690919806A0919906B0919A06892BFA
:102520008A2B8B2B41F10E94F32B0091970610917F
:1025300098062091990630919A06601B710B820BC8
:10254000930B6B3071058105910508F466C084E139
:1025500098E00E946E2D892B29F084E198E00E947A
:10256000872DF5CF10929706109298061092990633
:1025700010929A0652C00E94F32B609397067093B4
:1025800098068093990690939A0647C0833008F482
:1025900044C064EC75E084E198E00E94A32F10929F
:1025A0009706109298061092990610929A0684E166
:1025B00098E00E94872D8093960684E198E00E941F
:1025C000872D90930D0780930C0784E198E00E947B
:1025D000872D68EC75E084E198E00E94A32F63EDFD
:1025E00075E084E198E00E94962F4AE050E0609107
:1025F000960684E198E00E948C3062EE75E084E1FA
:1026000098E00E94962F60910C0770910D074AE0A8
:1026100050E084E198E00E946030E0910C07F09176
:102620000D07E35EFE4F64916093100780E00E9407
:10263000E00980919606803311F460E001C061E00A
:102640008FE00E940F2D80919606833389F5C0E0BC
:10265000D0E001E010E020E830E0AE0160E070E0A2
:102660008FE197E00E9438268FE197E00E94222BAD
:102670002196C034D10569F76EEA78E080E090E0F9
:102680000E94222C8FE197E00E948D2948E050E0C3
:102690006AE070E08FE197E00E941B2667EA75E030
:1026A0008FE197E00E94962F8FE197E00E94222B06
:1026B0001092900685E00E94452D019729F48091A3
:1026C000900681608093900682E00E94452D892BC0
:1026D00029F48091900682608093900685E190E0D5
:1026E0000E94C50D9093D4068093D30684E190E0B8
:1026F0000E94C50D9093D2068093D1064AE050E027
:10270000BC0184E198E00E94583069E084E198E0DF
:102710000E94982F6091D3067091D4064AE050E051
:1027200084E198E00E94583069E084E198E00E94DA
:10273000982F4AE050E06091900684E198E00E9472
:10274000853084E198E00E949F2F64E670E080E08D
:1027500090E00E94222CC9CE8FE197E00E948D2943
:1027600067E08FE197E00E94212661E070E08FE151
:1027700097E00E94272681E290E00E9446348093F1
:10278000D9068A3D09F44BC06AE080E090E00E94DF
:102790004E3464E181E090E00E944E3468E282E0D1
:1027A00090E00E944E3462E383E090E00E944E3459
:1027B0006BE084E090E00E944E3465E185E090E0BB
:1027C0000E944E3469E286E090E00E944E3463E35A
:1027D00087E090E00E944E346CE088E090E00E9438
:1027E0004E3466E189E090E00E944E346AE28AE06D
:1027F00090E00E944E3464E38BE090E00E944E34FF
:1028000061E080E290E00E944E3460E089E190E077
:102810000E944E346AED81E290E00E944E3480E0E6
:1028200090E00E9446348093130781E090E00E947C
:1028300046348093140782E090E00E9446348093EF
:10284000150783E090E00E9446348093160784E0E9
:1028500090E00E9446348093170785E090E00E9444
:1028600046348093180786E090E00E9446348093B7
:10287000190787E090E00E94463480931A0788E0A9
:1028800090E00E94463480931B0789E090E00E940C
:10289000463480931C078AE090E00E94463480937F
:1028A0001D078BE090E00E94463480931E0780E273
:1028B00090E00E944634C82F8093D80689E190E0CA
:1028C0000E944634282F30E03093B0062093AF06A4
:1028D000C093D706232B11F460E001C061E087E0CC
:1028E0000E940F2DE0911107F0911207ED5EF84F55
:1028F000808190E090930D0780930C070E94F32B4A
:102900006093040770930507809306079093070769
:102910006093FA067093FB068093FC069093FD0685
:102920006093F6067093F7068093F8069093F90685
:102930006093BB067093BC068093BD069093BE0661
:102940006093CD067093CE068093CF069093D00609
:102950006FEE75E084E198E0DF91CF911F910F91C8
:10296000FF90EF90DF90CF900C94962FEF92FF9214
:102970000F931F93CF93DF93EC0180919D068111FC
:10298000B8C061E08FE197E00E94212661E070E02D
:102990008FE197E00E942726E0911F07F091200722
:1029A0000684F785E02DE12CF12C0DE010E025E206
:1029B00030E043E350E060E070E08FE197E009959C
:1029C000E0911F07F09120070484F585E02DEE24A7
:1029D000E394F12C22E230E043E350E060E070E069
:1029E0008FE197E0099546E350E0209769F463E0B2
:1029F00070E08FE197E00E941B2621E030E049E380
:102A000050E06CE070E00FC0C130D105B9F46BE06C
:102A100070E08FE197E00E941B2621E030E049E35F
:102A200050E065E070E08FE197E00E94AB2821E084
:102A300030E049E350E063E170E019C0C230D105F5
:102A400009F561E170E08FE197E00E941B2621E02B
:102A500030E049E350E065E070E08FE197E00E94EC
:102A6000AB2821E030E049E350E06CE070E08FE11A
:102A700097E00E94AB2821E030E049E350E06AE1B2
:102A800070E020C069E170E08FE197E00E941B26B2
:102A900021E030E049E350E065E070E08FE197E04D
:102AA0000E94AB2821E030E049E350E06CE070E0A8
:102AB0008FE197E00E94AB2821E030E049E350E04D
:102AC00063E170E08FE197E00E94AB28BE016F5F89
:102AD0007F4F4AE050E08FE197E00E9458308FE14D
:102AE00097E0DF91CF911F910F91FF90EF900C94A1
:102AF000222BDF91CF911F910F91FF90EF900895BE
:102B0000AF92BF92CF92DF92EF92FF920F931F93FB
:102B1000CF93DF93CDB7DEB728970FB6F894DEBF1B
:102B20000FBECDBF0E94F32B60930407709305077F
:102B300080930607909307072091D60621117DC048
:102B400020910101C090BB06D090BC06E090BD066C
:102B5000F090BE06213091F58B019C010C191D09E6
:102B60002E093F09013147E214072105310508F418
:102B700064C0C090B706D090B806E090B906F09057
:102B8000BA06C00ED11EE21EF31EC092B706D09246
:102B9000B806E092B906F092BA066093BB0670934D
:102BA000BC068093BD069093BE0623EB36E045EB52
:102BB00056E0C701B6010E94351019C08B019C0177
:102BC0000C191D092E093F09093E13402105310545
:102BD000A0F16093BB067093BC068093BD069093F2
:102BE000BE068091A206813069F41092A20660911F
:102BF000B3067091B4068091B5069091B6060E9416
:102C0000CE0F1BC081E08093A206E0911F07F091D8
:102C100020070684F785E02DE12CF12C07E010E079
:102C200020E230E049E350E06FE570E08FE197E0AB
:102C300009958FE197E00E94222B8DEC96E00E948F
:102C4000900E80910901813009F046C0109209016F
:102C5000E0910C07F0910D07E35EFE4F64916093E5
:102C6000100780E00E94E009E0910C07F0910D0749
:102C7000E057FF4F6491062F10E010930F07009369
:102C80000E0770E080E090E00E94E73026E636E62E
:102C900046EA50E40E9475310E94B6307093A8064F
:102CA0006093A706C8010E94530A809100018130F9
:102CB00049F483E0809300018091E0069091E10661
:102CC0000E94B6146091B3067091B4068091B50667
:102CD0009091B6060E94CE0F8091DE069091DF069D
:102CE000019709F04FC08091040790910507A091CA
:102CF0000607B09107074091DA065091DB06609114
:102D0000DC067091DD06841B950BA60BB70B803D8E
:102D10009740A105B105B0F18091E0069091E106E0
:102D200060910C07E0911107F0911207ED5EF84FEA
:102D3000E80FF91F60838093D90690E00E944E341B
:102D40001092DF061092DE0600910E0710910F0719
:102D500021E043E056E061E08091D6060E94BE0A81
:102D60006CE271E080E090E00E94222C00910E075E
:102D700010910F0721E043E056E062E08091D60613
:102D80000E94BE0A809100018330A1F58091040762
:102D900090910507A0910607B09107074091A306FF
:102DA0005091A4066091A5067091A606841B950B10
:102DB000A60BB70B813D9740A105B105D8F082E085
:102DC00080930001E0911F07F09120070684F785AA
:102DD000E02DE12CF12C0DE010E025E230E043E3A2
:102DE00050E060E070E08FE197E009958FE197E0B7
:102DF0000E94222B80919D06882309F40DC1109218
:102E000009018FE197E00E948D2963E08FE197E04F
:102E10000E94212661E070E08FE197E00E94272662
:102E2000CC24C394D12C0AE0E02EF12C00E410E075
:102E300020E830E040E050E060E070E08FE197E0B3
:102E40000E949C2380919D068130C9F448E050E0A7
:102E500061E270E08FE197E00E941B2667E076E078
:102E60008FE197E00E94962F43E250E06BE270E022
:102E70008FE197E00E941B266CE076E01AC082305A
:102E8000E9F448E050E061E270E08FE197E00E94F1
:102E90001B2667E076E08FE197E00E94962F43E2E1
:102EA00050E064E270E08FE197E00E941B266FE043
:102EB00076E08FE197E00E94962F85C08330A1F5E0
:102EC00045E050E06AE170E08FE197E00E941B2648
:102ED00063E176E08FE197E00E94962F86E0E9E2D9
:102EE000F5E08E010F5F1F4FD80101900D928A957A
:102EF000E1F718861F828091B4068F938091B30604
:102F00008F938091B6068F938091B5068F9380E55D
:102F100095E09F938F931F930F930E94523243E249
:102F200050E06CE170E041C0843009F04CC045E0F5
:102F300050E06CE170E08FE197E00E941B2669E1B0
:102F400076E08FE197E00E94962F86E0E9E2F5E0D7
:102F50008E010F5F1F4FD80101900D928A95E1F706
:102F600018861F828091B4068F938091B3068F9349
:102F70008091B6068F938091B5068F9380E595E09A
:102F80009F938F931F930F930E94523263E08FE1C0
:102F900097E00E94212661E070E08FE197E00E94B7
:102FA000272643E250E069E170E08FE197E00E945C
:102FB0001B26B8018FE197E00E94962F0FB6F89478
:102FC000DEBF0FBECDBF8FE197E00E94222B809124
:102FD000040790910507A0910607B091070740915B
:102FE0009E0650919F066091A0067091A106841BD9
:102FF000950BA60BB70B89309740A105B105E0F002
:1030000010929D066EE176E084E198E00E94A32F85
:1030100081E08093090110C0809104079091050719
:10302000A0910607B091070780939E0690939F0694
:10303000A093A006B093A106809102079091030788
:10304000029709F04FC080919D0681114BC01092EC
:103050000307109202078091C1069091C206892B46
:10306000E9F51092DF061092DE06C0900407D090BA
:103070000507E0900607F0900707C092CD06D092B2
:10308000CE06E092CF06F092D0068091E0069091B5
:10309000E106019664E070E00E94D8319093E10669
:1030A0008093E006E0911107F0911207ED5EF84F72
:1030B000E80FF91F808190E090930D0780930C0733
:1030C00081E08093090180930001C092A306D09211
:1030D000A406E092A506F092A60604C01092C206CD
:1030E0001092C1068091020790910307039709F09F
:1030F00045C081E090E09093C2068093C1060091A4
:1031000004011091050101301105F1F5109205013E
:103110001092040167E370E088EC90E00E94D70D04
:103120006FE070E080E090E00E94222C67E370E0A6
:1031300088EC90E00E94D70D8091C5069091C6065C
:10314000019761F41092C6061092C5061092C4064B
:103150001092C30682E080939D0616C01093C606A7
:103160000093C5061093C4060093C30681E08093C4
:103170009D061093C0060093BF0606C081E090E054
:1031800090930501809304012091FE063091FF0683
:103190002230310509F0B8C01092FF061092FE06E9
:1031A00080919D068111B0C0809104079091050720
:1031B000A0910607B09107078093CD069093CE06A5
:1031C000A093CF06B093D0068091D606811104C09B
:1031D00081E08093D60626C0813079F59091B106C2
:1031E000923079F048F491118FC01092D606109267
:1031F000D5068093090188C0933091F0943081F016
:1032000083C09093D6068093D506109209018091D1
:10321000D806813059F0309308012093070174C01B
:103220009093D6068093D5061092090181E090E034
:10323000909308018093070167C0823019F41092BF
:10324000D60620C0833041F51092D6068091B20692
:103250008130C1F41092B2061092B7061092B806EF
:103260001092B9061092BA061092B6061092B506E0
:103270001092B4061092B30660E070E080E090E037
:103280000E94CE0F81E0809309011092D5066091D3
:10329000D80680E290E036C08430B1F51092D606B0
:1032A0000091AD061091AE060130110511F5109296
:1032B000AE061092AD0660E08FE00E940F2D6DE427
:1032C00071E080E090E00E94222C8091AF06909106
:1032D000B006892B31F41093B0060093AF0661E07D
:1032E00005C01092B0061092AF0660E087E00E9421
:1032F0000F2D81E0809309011092D5066091AF06F1
:1033000089E190E00E944E348091FE069091FF0684
:10331000039789F58091020190910301019789F546
:1033200010920301109202011092D6061092D50657
:1033300011E01093090167E370E088EC90E00E94CF
:10334000D70D6FE070E080E090E00E94222C67E3F0
:1033500070E088EC90E00E94D70D809101018130EF
:1033600021F41092010184E003C01093010183E075
:1033700080939D0606C081E090E0909303018093C6
:1033800002018091D606811116C0AAEEAA2EA6E0EF
:10339000BA2ECC24C394B2E0EB2EB7E0FB2E04E6A9
:1033A00010E02AEF36E04EE051E064E171E080E1A8
:1033B00090E00E94FB0D62EEA62E66E0B62EC12CB8
:1033C00070E0E72E77E0F72E08EC10E026EF36E00D
:1033D0004AE051E062E171E082E090E00E94FB0D82
:1033E000E6EEAE2EE6E0BE2ECC24C394FEEFEF2E2A
:1033F000F6E0FF2E22EF36E04CE051E060E171E0B4
:1034000081E190E00E94FB0D0E94F32B6093040782
:1034100070930507809306079093070784E00E9446
:10342000452D21E0892B09F420E0209309078091A4
:103430000807882309F4EFC02111EDC0809104072B
:1034400090910507A0910607B09107078093CD06DC
:103450009093CE06A093CF06B093D00683E00E944F
:10346000452D892B19F48FEF9FEF02C081E090E08A
:1034700090930B0780930A0720910A0730910B075E
:10348000809116019091170128173907F1F080916A
:10349000040790910507A0910607B0910707409196
:1034A000EE065091EF066091F0067091F106841BD4
:1034B000950BA60BB70B4E97A105B10520F081E047
:1034C0008093060102C010920601009106010130AE
:1034D00009F0A1C0309317012093160180910407D1
:1034E00090910507A0910607B09107078093EE061B
:1034F0009093EF06A093F006B093F10610929D060C
:103500001091D606111137C062E070E084EF91E0AF
:103510000E94D70D0093090181E090E09093DF06AF
:103520008093DE068091040790910507A09106071D
:10353000B09107078093DA069093DB06A093DC0630
:10354000B093DD0680910C0790910D0720910A073A
:1035500030910B07820F931F97FD06C08D389105A0
:1035600028F08CE890E002C080E090E090930D0796
:1035700080930C0750C0113049F462E070E084EF92
:1035800091E00E94D70D1093D5060CC01230F9F0CF
:103590001330D9F462E070E084EF91E00E94D70D1F
:1035A0000093D506809107019091080120910A07A8
:1035B00030910B07820F931F181619061CF58430E3
:1035C000910514F183E090E01FC0143011F562E022
:1035D00070E084EF91E00E94D70D0093D5068091B2
:1035E00007019091080120910A0730910B07820F83
:1035F000931F1816190634F4833091052CF082E0DD
:1036000090E002C081E090E0909308018093070170
:1036100002C01092D6068091090780930807809116
:10362000D6068823D1F09091D5069130B1F410924E
:10363000D506609107017091080141E0C42E41E078
:10364000D42E5DEAE52E56E0F52E02EB16E028EDCD
:1036500036E041EB56E00E949D0B8091000790916F
:1036600001078130910559F510920107109200076A
:103670002091C5063091C606232B69F460910C0792
:1036800070910D078091D8060E941C0B61E08FE0BD
:103690000E940F2D14C02091C3063091C406213022
:1036A000310529F41092C4061092C30608C0909305
:1036B000C4068093C3069093C0068093BF06809192
:1036C000BF069091C0060197C9F48091C3069091FE
:1036D000C406019799F41092C0061092BF0660913B
:1036E0000C0770910D078091D8060E941C0B61E0B9
:1036F0008FE00E940F2D81E08093090180911201DB
:1037000090911301892B31F08091C3069091C406EA
:10371000019791F48091040790910507A091060705
:10372000B09107078093CD069093CE06A093CF0665
:10373000B093D00661E001C060E08FE00E940F2DE1
:1037400085E00E94452D8C018130910509F059C01A
:103750000E94F32B6093040770930507809306077C
:1037600090930707E090CB06F090CC0641E0E4167A
:10377000F104D1F50091C7061091C8062091C90641
:103780003091CA06DC01CB01801B910BA20BB30B5D
:10379000813D9740A105B105C0F11092CC06109271
:1037A000CB0664E276E084E198E00E94A32F80914A
:1037B0009C068F5F80939C068CE996E00E945B0FCD
:1037C000F0921301E09212011092C6061092C50603
:1037D0001092C0061092BF061092C4061092C30643
:1037E00081E08093090111C06093C7067093C806F9
:1037F0008093C9069093CA061093CC060093CB061B
:1038000004C01092CC061092CB06809112019091C8
:103810001301892B31F08091C3069091C406019762
:10382000D1F40E94F32B60930407709305078093F3
:1038300006079093070785E190E00E94C50D9093DD
:10384000D4068093D30684E190E00E94C50D909346
:10385000D2068093D1068091120190911301892B99
:1038600039F08091C3069091C406019709F075C0A4
:103870008091A7069091A8062091D1063091D2069A
:10388000821B930B893791050CF467C08091040764
:1038900090910507A0910607B09107078093A906AC
:1038A0009093AA06A093AB06B093AC068091040750
:1038B00090910507A0910607B09107074091A906CE
:1038C0005091AA066091AB067091AC06841B950BD3
:1038D000A60BB70B883E9340A105B10508F56EE233
:1038E00084E198E00E94982F84E190E00E94C50D49
:1038F0009093D2068093D1060091A7061091A80656
:10390000081B190B0E94F32B6093040770930507A3
:103910008093060790930707043611053CF61DC0F7
:1039200080919C068F5F80939C068CE996E00E94B4
:103930005B0F81E090E0909313018093120110924D
:10394000C6061092C5061092C0061092BF061092CD
:10395000C4061092C30680930901809112019091D0
:103960001301892B39F08091C3069091C406019709
:1039700009F05AC08091D3069091D40681329340C9
:103980000CF452C08091040790910507A09106079E
:10399000B09107078093A9069093AA06A093AB065F
:1039A000B093AC068091040790910507A09106079B
:1039B000B09107074091A9065091AA066091AB0605
:1039C0007091AC06841B950BA60BB70B8C3B9240F9
:1039D000A105B105B8F485E190E00E94C50D8C0108
:1039E0009093D4068093D3060E94F32B6093040730
:1039F00070930507809306079093070708351240D8
:103A00008CF612C080919C068F5F80939C068CE997
:103A100096E00E945B0F81E08093090181E090E0D5
:103A2000909313018093120128960FB6F894DEBF8D
:103A30000FBECDBFDF91CF911F910F91FF90EF90FF
:103A4000DF90CF90BF90AF900895CF93CFB7F89409
:103A500080914A07811127C0E3E6F2E18491EFE407
:103A6000F2E19491E82FF0E0EE0FFF1FEF57FD4ECB
:103A7000A591B4918C91892321F461E08AE00E94A0
:103A80000F2D61E08AE00E94D62C8CB580618CBD40
:103A90008CB580648CBD61E08DE00E94D62C61E025
:103AA0008BE00E94D62C80914A078F5F80934A0753
:103AB000CFBFCF91089580917B0790E020917C0744
:103AC000821B9109089520917C0780917B0728171C
:103AD00050F4E22FF0E0E358F84F808190E02F5F40
:103AE00020937C0708958FEF9FEF0895E0917C0766
:103AF00080917B07E81730F4F0E0E358F84F8081BD
:103B000090E008958FEF9FEF08950895CF92DF9290
:103B1000EF92FF920F931F93CF93DF937C01CB0122
:103B20008A0120915707222389F0EB016B01C40E13
:103B3000D51ECC15DD0569F06991D701ED91FC9199
:103B40000190F081E02DC7010995F3CF642F0E9409
:103B5000971EC801DF91CF911F910F91FF90EF90B9
:103B6000DF90CF900895CF93DF931F92CDB7DEB74C
:103B70006983209157072223D1F0209158072032E2
:103B800040F021E030E0FC013383228380E090E0CC
:103B900015C080915907E82FF0E0E65AF84F998157
:103BA00090838F5F809359078093580705C061E029
:103BB000CE0101960E94971E81E090E00F90DF9168
:103BC000CF910895FC011382128248EE53E060E029
:103BD00070E0448355836683778382E396E0918324
:103BE0008083089510927C0710927B0710925907EA
:103BF000109258070C94221E81E08093570760931F
:103C00007A07109259071092580708950C94FC1DDA
:103C10000F93062F21E0409158076AE577E08091E5
:103C20007A070E94401E109259071092580710926E
:103C300057070F91089561E00C94081E8BE497E0FC
:103C40000C94E21D10920A0881E0809308081092FB
:103C5000070861E082E10E940F2D61E083E10E948C
:103C60000F2DE9EBF0E080818E7F808380818D7F56
:103C7000808388E48093B80085E48093BC00089535
:103C80000F93413208F04AC090910A089111FCCF7D
:103C900092E090930A08009308089FEF90939D0785
:103CA0001092E2074093E107FB0163EE77E0DB014E
:103CB0009A2F961B941718F491919D93F9CF109217
:103CC000090890910908880F892B80930908809131
:103CD0000708813061F410920708809109088093E9
:103CE000BB008091BC0083FDF8CF85EC01C085EE60
:103CF0008093BC00222321F080910A088230E1F3F6
:103D000080919D078F3F61F080919D07803251F037
:103D100080919D07803341F483E007C081E005C0B6
:103D200080E003C082E001C084E00F910895613219
:103D300098F420910A08243089F46093BF07FC01AD
:103D400081EC97E0DC012A2F281B261718F421911B
:103D50002D93F9CF80E0089581E0089582E00895E1
:103D600085ED8093BC008091BC0084FDFCCF109257
:103D70000A08089585EC8093BC0010920A08089503
:103D80001F920F920FB60F9211242F933F934F93D0
:103D90005F936F937F938F939F93AF93BF93EF93B3
:103DA000FF938091B900887F803609F49EC078F532
:103DB000883209F45DC090F4803109F456C038F4BB
:103DC000882309F4F5C0883009F44FC0F5C0883164
:103DD00009F44EC0803209F45FC0EEC0803409F4AB
:103DE0006AC058F4803309F457C0883309F0E4C03E
:103DF00080939D070E94BA1EDFC0803509F44FC032
:103E0000883509F45DC0883409F0D6C0D3C088393C
:103E100009F4C4C0A8F4883709F467C038F48836B8
:103E200009F463C0803709F460C0C6C0883809F45B
:103E3000B5C0803909F45FC0803809F0BDC05BC0EF
:103E4000803B09F483C038F4803A09F466C0883AAC
:103E500009F47CC0B1C0803C09F4A4C0883C09F4DA
:103E6000A1C0883B09F487C0A7C08091090810C091
:103E70009091E2078091E107981770F5E091E207D1
:103E800081E08E0F8093E207F0E0ED51F84F8081E2
:103E90008093BB0085EC83C080939D078BC0E0912D
:103EA000E20781E08E0F8093E2078091BB00F0E093
:103EB000ED51F84F80839091E2078091E1076BC04C
:103EC000E091E20781E08E0F8093E2078091BB00D2
:103ED000F0E0ED51F84F80838091080881116AC0AD
:103EE00081E08093070884EA5EC083E080930A083B
:103EF00010929E07CFCF80919E07803208F04EC06F
:103F0000E0919E0781E08E0F80939E078091BB0019
:103F1000F0E0E156F84F8083BDCF0E94BA1E809139
:103F20009E07803230F4E0919E07F0E0E156F84FB2
:103F3000108260919E0770E0E0910308F091040800
:103F40008FE997E0099510929E0736C084E0809330
:103F50000A081092C0071092BF07E0910508F0917F
:103F6000060809958091BF07811105C081E0809303
:103F7000BF071092C107E091C00781E08E0F8093C8
:103F8000C007F0E0EF53F84F80818093BB00909121
:103F9000C0078091BF07981708F47CCF85E880930D
:103FA000BC000AC085EC8093BC0010920A0804C0D3
:103FB00010929D070E94B01EFF91EF91BF91AF91AB
:103FC0009F918F917F916F915F914F913F912F9131
:103FD0000F900FBE0F901F9018952F923F924F9207
:103FE0005F926F927F928F929F92AF92BF92CF9289
:103FF000DF92EF92FF920F931F93CF93DF9300D046
:1040000000D0CDB7DEB74C017C836B836A015901C8
:10401000C8018701AC014C195D0957FF03C05195D8
:104020004195510995016B817C81261B370B37FF28
:1040300003C031952195310922242394312C241772
:10404000350714F0212C312C2114310459F03A2D6C
:104050002B2D5C01832F922F3B812C81DC82CB8224
:10406000C32ED22EAB81BC81AA16BB065CF43C2DBC
:104070002D2D6C01832F922F3B812C81BC82AB8232
:10408000A32EB22E2501EB81FC814E1A5F0A3C0162
:104090006C187D0877FE03C07194619471087201F9
:1040A00057FE03C0FFEFEF1AFF0AF594E794C81616
:1040B000D9062CF421E030E03A83298324C06FEF45
:1040C0007FEF7A8369831FC0D401ED91FC91048056
:1040D000F581E02D980121143104D9F04B815C81E8
:1040E000B601C4010995E618F708F7FE06C0E98194
:1040F000FA81CE0EDF1EE40CF51C2B813C812F5F74
:104100003F4F3C832B836B817C81A616B706E4F678
:1041100004C0A6016B817C81E4CF0F900F900F90BB
:104120000F90DF91CF911F910F91FF90EF90DF9053
:10413000CF90BF90AF909F908F907F906F905F9047
:104140004F903F902F9008956F927F928F929F9201
:10415000AF92BF92CF92DF92EF92FF920F931F9395
:10416000CF93DF93EC015B016A0139014801E881DB
:10417000F9810284F385E02D87010995E881F981B1
:10418000A601480D591D415051090284F385E02DC7
:104190009301B501CE010995E881F9810084F1858B
:1041A000E02D9401A601B501CE010995E881F981C0
:1041B000B501660D771D615071090084F185E02D10
:1041C0009401A601CE010995DF91CF911F910F9126
:1041D000FF90EF90DF90CF90BF90AF909F908F9027
:1041E0007F906F900895EF92FF920F931F93DC01E1
:1041F000ED91FC91240F351F215031090680F78184
:10420000E02D780189019B0109951F910F91FF9085
:10421000EF900895EF92FF920F931F93DC01ED91C1
:10422000FC91260F371F215031090680F781E02DC0
:1042300078018A0109951F910F91FF90EF900895E1
:104240006F927F928F929F92AF92BF92CF92DF92A6
:10425000EF92FF920F931F93CF93DF935C014A017C
:1042600069013801EB01C60ED71ECC15DD0574F4CB
:10427000D501ED91FC910084F185E02D870193013A
:10428000A401BE01C50109952196EFCFDF91CF9121
:104290001F910F91FF90EF90DF90CF90BF90AF9064
:1042A0009F908F907F906F900895EF92FF920F9361
:1042B0001F93DC01ED91FC9111971A960D911C91C1
:1042C0001B9718962D913C9119970684F785E02D40
:1042D0007B0140E050E060E070E009951F910F9194
:1042E000FF90EF9008950895FC011382128282E4FA
:1042F00096E09183808375836483578346837187B7
:10430000608753874287158A158614861786168616
:1043100021E0248B8FEF9FEF938B828B918B808B8F
:10432000268B08952F923F924F925F926F927F92C9
:104330008F929F92AF92BF92CF92DF92EF92FF92B5
:104340000F931F93CF93DF9300D000D000D0CDB751
:10435000DEB79E838D834B013A016901802F44248F
:104360004394512C421A530A22243324221A330A2A
:10437000220C331CAA24A394B12C01E010E0982F46
:1043800094709983A82FA270AA83B82FB870BB83AA
:1043900081708C83C50101978C159D050CF0A6C01A
:1043A00057FC08C0E1E0CE1AD108F2E02F0E311C14
:1043B000420C531C0E5F1F4F400E511E89818823F3
:1043C00011F1AD81BE81ED91FC9111970480F581D1
:1043D000E02D9701A3014C0D5D1DB501680D791D00
:1043E000CD010995AD81BE81ED91FC9111970480BD
:1043F000F581E02D9701A501460D571DB4016C0D07
:104400007D1DCD010995BA81BB2311F1AD81BE811E
:10441000ED91FC9111970480F581E02D9701A301A6
:104420004C195D09B501680D791DCD010995AD8166
:10443000BE81ED91FC9111970480F581E02D9701EB
:10444000A3014A195B09B4016C0D7D1DCD010995CD
:10445000BB81BB2311F1AD81BE81ED91FC91119720
:104460000480F581E02D9701A501460D571DB4018B
:104470006C197D09CD010995AD81BE81ED91FC914D
:1044800011970480F581E02D9701A3014C0D5D1D6E
:10449000B4016A197B09CD010995BC81BB2311F1D7
:1044A000AD81BE81ED91FC9111970480F581E02DE5
:1044B0009701A3014A195B09B4016C197D09CD016B
:1044C0000995AD81BE81ED91FC9111970480F58134
:1044D000E02D9701A3014C195D09B4016A197B090C
:1044E000CD010995BFEFAB1ABB0A54CF26960FB684
:1044F000F894DEBF0FBECDBFDF91CF911F910F911A
:10450000FF90EF90DF90CF90BF90AF909F908F90F3
:104510007F906F905F904F903F902F9008952F92D3
:104520003F924F925F926F927F928F929F92AF9243
:10453000BF92CF92DF92EF92FF920F931F93CF9390
:10454000DF93CDB7DEB728970FB6F894DEBF0FBE66
:10455000CDBF5C011B015A83498338872F83FC82BE
:10456000EB8288248394912C821A930A39017194E6
:1045700061947108660C771C270123E0420E511CE0
:10458000EE24E394F12C302F31703D8302700E83C2
:10459000C7010197EF81F8858E179F070CF07BC04C
:1045A00097FC0AC08F819885019798878F8392E046
:1045B000690E711C860C971CC201AB81BC818A1BE1
:1045C0009B0B880E991EBD81BB2369F1D501ED912E
:1045D000FC912F813885220F331F2F5F3F4F8B8136
:1045E0009C81280F391F0084F185E02D86014981C7
:1045F0005A81AF81B8854A1B5B0BB701620D731DF1
:10460000C5010995D501ED91FC910084F185E02D5E
:10461000920149815A814E195F096F817885620D37
:10462000731DC5010995BE81BB2371F1D501ED91C3
:10463000FC912F813885220F331F2F5F3F4F8B81D5
:104640009C81280F391F0084F185E02D8601498166
:104650005A81AF81B8854A1B5B0BB1016E197F0986
:10466000C5010995D501ED91FC910084F185E02DFE
:10467000920149815A814E195F09B1018F81988554
:10468000681B790BC50109959FEFE91AF90AA2E0A9
:104690004A0E511C7DCF28960FB6F894DEBF0FBE90
:1046A000CDBFDF91CF911F910F91FF90EF90DF90E1
:1046B000CF90BF90AF909F908F907F906F905F90C2
:1046C0004F903F902F9008956F927F928F929F927C
:1046D000AF92BF92CF92DF92EF92FF920F931F9310
:1046E000CF93DF93EC014B013A0159016801E88156
:1046F000F981220F331F2F5F3F4FA3014A195B0936
:104700000084F185E02D0995E12CF12C03E0950161
:10471000A301B401CE010E948F22DF91CF911F919E
:104720000F91FF90EF90DF90CF90BF90AF909F9050
:104730008F907F906F9008952F923F924F925F924B
:104740006F927F928F929F92AF92BF92CF92DF92A1
:10475000EF92FF920F931F93CF93DF93CDB7DEB706
:1047600028970FB6F894DEBF0FBECDBF98878F8312
:104770003B014A013C832B831E830D835701EE24AA
:10478000FF24EA18FB08EE0CFF1CC9018E0D9F1DCB
:104790009A8389832B014A0C5B1CAF81B885ED910C
:1047A000FC9111970284F385E02D86019C01A40100
:1047B000B201CD0109952D803E80280C391CAF81B6
:1047C000B885ED91FC911197A101415051090284E6
:1047D000F385E02D29813A81B201CD010995ED8162
:1047E000FE81EE0EFF1E8A0C9B1CAF81B885ED91F9
:1047F000FC9111970084F185E02D9701A401B3018C
:10480000CD010995EB81FC816E0E7F1EAF81B885CD
:10481000ED91FC911197B301615071090084F1850C
:10482000E02D9701A401CD010995760101E09501E4
:10483000A401B2018F8198850E9492216A187B0899
:10484000B1E06B1A710802E09501A401B3018F81F8
:1048500098850E94922141018A189B08E1E08E1AF6
:10486000910804E09501A401B3018F8198850E940D
:10487000922108E09501A401B2018F8198850E94E0
:10488000922128960FB6F894DEBF0FBECDBFDF9100
:10489000CF911F910F91FF90EF90DF90CF90BF903D
:1048A000AF909F908F907F906F905F904F903F90D0
:1048B0002F9008952F923F924F925F926F927F9226
:1048C0008F929F92AF92BF92CF92DF92EF92FF9220
:1048D0000F931F93CF93DF93CDB7DEB728970FB613
:1048E000F894DEBF0FBECDBF5C011B015C834B8320
:1048F00029013701C801079697FD07969C01B3E08F
:1049000035952795BA95E1F73A832983812C912C27
:10491000E12CF12CE614F7040CF048C018861F8235
:10492000AB81BC81AE0DBF1DBE83AD832F813885A9
:10493000201731079CF5EF81F885F7FD3796A3E046
:10494000F595E795AA95E1F7E80DF91DE40DF51D3C
:10495000E491F0E08F81988587709927A0E8B0E016
:1049600002C0B595A7958A95E2F7EA23FB23EF2BC2
:1049700079F0D501ED91FC910480F581E02D96014F
:104980004D815E816F817885620D731DC50109952A
:10499000EF81F8853196F887EF83C8CF3FEFE31AB0
:1049A000F30A89819A81880E991EB4CF28960FB692
:1049B000F894DEBF0FBECDBFDF91CF911F910F9155
:1049C000FF90EF90DF90CF90BF90AF909F908F902F
:1049D0007F906F905F904F903F902F9008952F920F
:1049E0003F924F925F926F927F928F929F92AF927F
:1049F000BF92CF92DF92EF92FF920F931F93CF93CC
:104A0000DF93CDB7DEB72C970FB6F894DEBF0FBE9D
:104A1000CDBF9C878B873A0118870F83FA86E9867A
:104A2000CD82DC0118968D919C91199768177907B2
:104A30000CF094C01A968D919C911B9748175907BA
:104A40000CF08CC08C2C912CCB01B6E0CB9E800D51
:104A5000911D1124181619060CF080C0C40153E0F2
:104A6000880F991F5A95E1F7860D971D181619069C
:104A70000CF074C0F5E02F9F200111245B016B0145
:104A80001C8292012A5C324F2901461A570A3C8146
:104A9000353031F0F201EA0DFB1D44914B8301C02A
:104AA0001B827A82698213011E828B8180FF13C070
:104AB000AB85BC85ED91FC91BD81B13031F40480B2
:104AC000F581E02D2F81388519C00684F785E02D0A
:104AD000EF80F8841EC0E985FA852F813885E217BA
:104AE000F307F9F0AB85BC85ED91FC91BD81B13048
:104AF00059F40480F581E02D29853A85A101B5019D
:104B00008B859C8509950DC00684F785E02DE98489
:104B1000FA848401940149815A81B6018B859C8570
:104B20000995EB81E695EB83FE81FF5FFE8329818A
:104B30003A81280D391D3A8329833FEF231A330A1E
:104B4000F83009F0B2CF4C814F5F4C83C80CD91CB0
:104B50008FEFA81AB80A463009F099CF2C960FB6F5
:104B6000F894DEBF0FBECDBFDF91CF911F910F91A3
:104B7000FF90EF90DF90CF90BF90AF909F908F907D
:104B80007F906F905F904F903F902F900895CF92BD
:104B9000EF92FF920F931F93CF93DF93EC01262F99
:104BA0006A3049F42C898E859F8538E0239F800DDB
:104BB000911D112432C06D30A1F1EA88FB8808896B
:104BC00019894E855F856C857D85CC880E94EF2490
:104BD0002C89422F50E08C859D8536E0239F800DE7
:104BE000911D11249D878C872E892223D1F06AEF95
:104BF00064039001659F300D112468857985260F27
:104C0000371F281739076CF463E0440F551F6A9566
:104C1000E1F78E859F85840F951F9F878E871D8660
:104C20001C8681E090E0DF91CF911F910F91FF9062
:104C3000EF90CF900895FC0175876487578746876A
:104C40000895611101C061E0FC01648B0895FC01CD
:104C5000738B628B718B608B0895FC01858908953D
:104C6000FC01808591850895FC01828593850895D6
:104C70000F931F93CF93DF93EC018D89823061F006
:104C80008330D9F0813009F0C8C0EC81FD81E41B8C
:104C9000F50B3197DB0118C08C819D81DC01A61BCF
:104CA000B70BBD018E819F81FC01E41BF50BAF01A9
:104CB00041505109621B730BB0C0AE81BF81A61B6E
:104CC000B70BA21BB30BFA01F7FD05C18C819D81C7
:104CD000E817F9070CF0FFC0B7FF04C02A0F3B1F0D
:104CE000A0E0B0E08E819F81AD01420F531F841779
:104CF00095071CF49C012A1B3B0B121613060CF0A3
:104D0000EAC0422F8A2F86958695869590E8899FDE
:104D1000E00DF11D1124E85DFE4FA77069F158E028
:104D20005A1B852F90E0EC01C05EDE4F688125178D
:104D300060F4DC01A21BB1098FEF90E00A2E02C0E3
:104D4000959587950A94E2F768230130110539F0AB
:104D500048F00230110551F48081862706C0808119
:104D6000862B03C06095808186238083451708F4D5
:104D7000B2C0451BE058FF4F4830A0F1023011058A
:104D8000A9F4DF01842F9C9190959C93A058BF4F6C
:104D900088508830C0F788EF840F86958695869571
:104DA000B0E88B9FE00DF11D112419C081E00130A6
:104DB000110509F080E0982F9195EF01842F9883D9
:104DC000C058DF4F88508830D0F788EF840F869521
:104DD0008695869590E8899FE00DF11D1124E05895
:104DE000FF4F4770442309F476C0A42FB0E0A85EBB
:104DF000BE4F9C910130110541F050F00230110579
:104E000009F069C08081892706C08081892B03C091
:104E100090958081892380835EC057FD5CC08E8120
:104E20009F81481759070CF056C077FF04C0260F22
:104E3000371F60E070E08C819D81FB01E20FF31F62
:104E40008E179F071CF49C01261B370B12161306A6
:104E50000CF041C0CA0157FD0796E3E09595879590
:104E6000EA95E1F79695982F882797958795885D1D
:104E70009E4F860F971F4770552761E070E001C075
:104E8000660F4A95EAF7462F0130110541F088F088
:104E90000230110501F5FC01280F391F15C0FC0176
:104EA000280F391FE217F307B1F08081842B81931B
:104EB000F9CF6095FC01280F391FE217F30759F06D
:104EC000808186238193F9CFE217F30721F0808157
:104ED00084278193F9CFDF91CF911F910F9108958E
:104EE0000F931F93CF93DF93FC018589823069F084
:104EF0008330E1F0813009F082C0C481D581C41BC8
:104F0000D50BC21BD30BDB0117C084819581DC015B
:104F1000A61BB70BBD016150710986819781DC0129
:104F2000A41BB50BAD01421B530B69C0A681B78111
:104F3000A61BB70B1197EA01B7FD08C186819781BF
:104F4000A817B9070CF002C1D7FF04C02C0F3D1FF2
:104F5000C0E0D0E084819581AE01420F531F8417D9
:104F600095071CF49C012C1B3D0B121613060CF02C
:104F7000EDC0CD01B7FD079643E0959587954A951D
:104F8000E1F79695982F882797958795885D9E4F8E
:104F90008C0F9D1FA770BB2741E050E00A2E01C077
:104FA000440F0A94EAF7642F0130110549F098F094
:104FB0000230110509F0CAC0FC01280F391F17C0C3
:104FC000FC01280F391FE217F30709F4BFC08081E5
:104FD000862B8193F8CF4095FC01280F391FE217EB
:104FE000F30709F4B3C0808184238193F8CFE217DB
:104FF000F30709F4ABC0808186278193F8CF77FD52
:10500000A5C084819581681779070CF09FC057FF70
:1050100004C0240F351F40E050E086819781FA01DB
:10502000E20FF31F8E179F071CF49C01241B350B06
:10503000121613060CF08AC0522F842F869586957F
:105040008695FB01B0E88B9FE00DF11D1124E85D12
:10505000FE4F477069F168E0641B862F90E0EC0119
:10506000C05EDE4F4881261760F4DC01A21BB10947
:105070008FEF90E00A2E02C0959587950A94E2F78B
:1050800048230130110539F048F00230110551F480
:105090008081842706C08081842B03C04095808155
:1050A00084238083561708F451C0561BE058FF4FE5
:1050B0005830A0F102301105A9F4DF01852F9C9131
:1050C00090959C93A058BF4F88508830C0F788EFC8
:1050D000850F869586958695B0E88B9FE00DF11D2E
:1050E000112419C081E00130110509F080E0982FEA
:1050F0009195EF01852F9883C058DF4F88508830F5
:10510000D0F788EF850F86958695869590E8899FDC
:10511000E00DF11D1124E058FF4F57705523B1F0F9
:10512000A52FB0E0A85EBE4F9C910130110539F06B
:1051300048F00230110551F48081892706C0808132
:10514000892B03C09095808189238083DF91CF9143
:105150001F910F910895CF92DF92EF92FF920F93DC
:105160001F93CF93DF937C018B01EA01690177FDE7
:10517000A0C00E943026081719070CF09AC0D7FD6E
:1051800098C0C7010E943426C817D9070CF091C0F7
:10519000C7010E942D26823009F07FC0F70184816B
:1051A00095819C01201B310B8901015011098681D9
:1051B0009781FC01EC1BFD0BEF0121970BC08130A7
:1051C00049F4F701848195818C1B9D0BE8018C01CA
:1051D00001501109F1E0CF16D10431F010F132E0A5
:1051E000C316D104E1F165C0FE01D7FD379683E017
:1051F000F595E7958A95E1F7F695FE2FEE27F79559
:10520000E795E00FF11FE85DFE4FC770DD2781E0F5
:1052100090E00C2E01C0880F0A94EAF79081982B39
:105220003AC0FE01D7FD3796A3E0F595E795AA951C
:10523000E1F7F695FE2FEE27F795E795E00FF11FC2
:10524000E85DFE4FC770DD2781E090E00C2E01C0C5
:10525000880F0A94EAF78095908198231CC0FE017C
:10526000D7FD379663E0F595E7956A95E1F7F695F2
:10527000FE2FEE27F795E795E00FF11FE85DFE4F53
:10528000C770DD2781E090E00C2E01C0880F0A94E2
:10529000EAF79081982790830CC0833009F08FCF74
:1052A000F70186819781801B910B8E01EC0121977C
:1052B00091CFDF91CF911F910F91FF90EF90DF90F1
:1052C000CF900895CF92DF92EF92FF920F931F93AA
:1052D000CF93DF931F92CDB7DEB76C01162FF42E5C
:1052E00040E450E060E870E029830E9474218AE580
:1052F00096E0F60191838083E58E048F2981238FC8
:10530000F28E118F168E0F90DF91CF911F910F911A
:10531000FF90EF90DF90CF90089580E094E0E8E276
:10532000F1E0DF019C011D9221503040E1F708952A
:10533000FC01868D882339F06EBD00000DB407FE98
:10534000FDCF8EB5089588E090E030E8A1A1B2A12C
:105350004C9120A5209524232C93A78DB0A127A1A3
:10536000432F462321F04C91422B4C9304C04C9187
:10537000209524232C93A1A1B2A12C9140A5242BEC
:105380002C933695019711F708951F93CF93DF93D0
:10539000EC01162F898D8F3F09F1EBA1FCA18081D3
:1053A00099A5892B8083EDA1FEA190818AA5809586
:1053B00089238083EBA1FCA1908189A58095892315
:1053C0008083CE010E949829EBA1FCA1808199A540
:1053D000892B8083DF91CF911F9108958F89682F4A
:1053E000772767FD70958BE497E00E94061E60E0CA
:1053F0008BE497E00E94B31D612F8BE497E00E943D
:10540000B31D8BE497E0DF91CF911F910C941B1E8D
:105410000F931F93CF93DF93EC01162F022F688F0A
:105420004F8B898D8F3F09F477C061E08B8D0E948F
:10543000D62C61E08D8D0E94D62C8D8D992787FD0D
:105440009095FC01E75AFD4EE491F0E0EE0FFF1F4E
:10545000E958FD4E259134913CA32BA3FC01EB5B55
:10546000FD4E849189A78B8D992787FD9095FC012E
:10547000E75AFD4EE491F0E0EE0FFF1FE958FD4EB4
:10548000259134913EA32DA3FC01EB5BFD4E84914D
:105490008AA78E8D811134C061E0898D0E94D62C3F
:1054A00061E08A8D0E94D62C8A8D992787FD909580
:1054B000FC01E75AFD4EE491F0E0EE0FFF1FE958C2
:1054C000FD4E259134913AA329A3FC01EB5BFD4EDF
:1054D000849188A7898D992787FD9095FC01E75ACB
:1054E000FD4EE491F0E0EE0FFF1FE958FD4E2591CF
:1054F000349138A32F8FFC01EB5BFD4E84918FA379
:105500008E8D882369F00E94251D8CB58C7F8CBD03
:105510008DB581608DBD04C08BE497E00E94F21DC3
:105520000023E1F061E08C8D0E94D62C61E08C8D2F
:105530000E940F2D61E070E080E090E00E94222C3C
:1055400060E08C8D0E940F2D6AE070E080E090E0BA
:105550000E94222C61E08C8D0E940F2D6EEACE01FC
:105560000E94C52965EDCE010E94C52960E8CE01E3
:105570000E94C52968EACE010E94C5296FE3CE01C9
:105580000E94C52963EDCE010E94C52960E0CE01CD
:105590000E94C52960E4CE010E94C5296DE8CE01B4
:1055A0000E94C529113011F460E101C064E1CE010F
:1055B0000E94C52960E2CE010E94C52960E0CE01AB
:1055C0000E94C52961EACE010E94C52968ECCE017E
:1055D0000E94C5296AEDCE010E94C52962E1CE0173
:1055E0000E94C52961E8CE010E94C529113011F43D
:1055F0006FE901C06FECCE010E94C52969EDCE01B3
:105600000E94C529113011F462E201C061EFCE01A0
:105610000E94C5296BEDCE010E94C52960E4CE0130
:105620000E94C52964EACE010E94C52966EACE011E
:105630000E94C5296FEACE01DF91CF911F910F9192
:105640000C94C529DF92EF92FF920F931F93CF9393
:10565000DF93EC0161E20E94C52960E0CE010E9467
:10566000C5296FE7CE010E94C52962E2CE010E94E2
:10567000C52960E0CE010E94C52967E0CE010E94E5
:10568000C529898D8F3F31F1EBA1FCA1808199A5BE
:10569000892B8083EDA1FEA180819AA5892B80832F
:1056A000EBA1FCA1908189A580958923808308E2E4
:1056B00011E0F80161918F01CE010E949829F5E077
:1056C00008321F07B1F7EBA1FCA1808199A5892BB6
:1056D000808337C0D090B8008CE08093B80008E297
:1056E00011E06F89772767FD70958BE497E00E9442
:1056F000061EE0914B07F0914C070190F081E02DE0
:1057000060E48BE497E00995E12CF12CF801EE0DB3
:10571000FF1D60818BE497E00E94B31D8FEFE81AB4
:10572000F80AE0E1EE16F10489F78BE497E00E94B5
:105730001B1E005F1F4FF5E008321F0791F6D09245
:10574000B800DF91CF911F910F91FF90EF90DF9004
:1057500008951F920F920FB60F9211242F933F932B
:105760008F939F93AF93BF9380910C0890910D08F6
:10577000A0910E08B0910F0830910B0823E0230F81
:105780002D3720F40196A11DB11D05C026E8230F79
:105790000296A11DB11D20930B0880930C089093D5
:1057A0000D08A0930E08B0930F08809110089091F7
:1057B0001108A0911208B09113080196A11DB11D06
:1057C0008093100890931108A0931208B0931308C7
:1057D000BF91AF919F918F913F912F910F900FBEED
:1057E0000F901F9018952FB7F89460910C08709146
:1057F0000D0880910E0890910F082FBF08953FB7B4
:10580000F8948091100890911108A0911208B0911D
:10581000130826B5A89B05C02F3F19F00196A11DBE
:10582000B11D3FBF6627782F892F9A2F620F711DF8
:10583000811D911D42E0660F771F881F991F4A95B1
:10584000D1F70895CF92DF92EF92FF92CF93DF933B
:105850006B017C010E94FF2BEB01C114D104E10418
:10586000F10489F00E94B5300E94FF2B6C1B7D0B68
:10587000683E734090F381E0C81AD108E108F1084E
:10588000C851DC4FEACFDF91CF91FF90EF90DF90CE
:10589000CF9008958230910538F0880F991F880FB6
:1058A000991F05970197F1F70895789484B5826060
:1058B00084BD84B5816084BD85B5826085BD85B5B4
:1058C000816085BDEEE6F0E0808181608083E1E863
:1058D000F0E010828081826080838081816080839B
:1058E000E0E8F0E0808181608083E1EBF0E080819E
:1058F00084608083E0EBF0E0808181608083EAE770
:10590000F0E08081846080838081826080838081F8
:10591000816080838081806880831092C1000895B7
:105920008E3008F08E5087702091280590E4299FD2
:1059300090011124822B80937C0080917A008064F6
:1059400080937A0080917A0086FDFCCF8091780068
:105950002091790090E0922B0895833081F028F413
:10596000813099F08230A1F008958730A9F0883015
:10597000B9F08430D1F4809180008F7D03C0809194
:1059800080008F7780938000089584B58F7702C060
:1059900084B58F7D84BD08958091B0008F7703C05A
:1059A0008091B0008F7D8093B0000895CF93DF93F6
:1059B00090E0FC01EB5BFD4E2491FC01E75AFD4EAB
:1059C0008491882349F190E0880F991FFC01EF57DB
:1059D000FD4EA591B49189589D4EFC01C591D4917D
:1059E0009FB7611108C0F8948C91209582238C9305
:1059F000888182230AC0623051F4F8948C91322F4E
:105A0000309583238C938881822B888304C0F894FB
:105A10008C91822B8C939FBFDF91CF9108950F9330
:105A20001F93CF93DF931F92CDB7DEB7282F30E0BF
:105A3000F901EF5CFD4E8491F901EB5BFD4E149191
:105A4000F901E75AFD4E04910023C9F0882321F0A3
:105A500069830E94AD2C6981E02FF0E0EE0FFF1FFB
:105A6000E958FD4EA591B4919FB7F8948C916111BE
:105A700003C01095812301C0812B8C939FBF0F9091
:105A8000DF91CF911F910F910895CF93DF93282F2E
:105A900030E0F901EF5CFD4E8491F901EB5BFD4EC6
:105AA000D491F901E75AFD4EC491CC2391F08111B4
:105AB0000E94AD2CEC2FF0E0EE0FFF1FE359FD4EDE
:105AC000A591B4912C912D2381E090E021F480E008
:105AD00002C080E090E0DF91CF910895FC01818DBC
