:100000000C94AF0B0C94D70B0C94D70B0C94D70B10
:100010000C94D70B0C94D70B0C94D70B0C94D70BD8
:100020000C94D70B0C94D70B0C94D70B0C94D70BC8
:100030000C94D70B0C94D70B0C94D70B0C94D70BB8
:100040000C94851F0C94D70B0C94F51F0C94CF1FA8
:100050000C94D70B0C94D70B0C94D70B0C94D70B98
:100060000C9427200C94D70B82AAA62E81D129D9D3
:10007000C595B500000000003E5B4F5B3E3E6B4FF8
:100080006B3E1C3E7C3E1C183C7E3C181C577D572A
:100090001C1C5E7F5E1C00183C1800FFE7C3E7FFD6
:1000A0000018241800FFE7DBE7FF30483A060E2669
:1000B00029792926407F050507407F05253F5A3CC1
:1000C000E73C5A7F3E1C1C08081C1C3E7F14227F04
:1000D00022145F5F005F5F06097F017F00668995DC
:1000E0006A606060606094A2FFA29408047E0408C5
:1000F00010207E201008082A1C08081C2A08081E48
:10010000101010100C1E0C1E0C30383E3830060E2D
:100110003E0E06000000000000005F000000070027
:100120000700147F147F14242A7F2A1223130864E3
:100130006236495620500008070300001C22410087
:100140000041221C002A1C7F1C2A08083E080800C7
:100150008070300008080808080000606000201067
:100160000804023E5149453E00427F400072494921
:1001700049462141494D331814127F102745454502
:10018000393C4A4949314121110907364949493623
:10019000464949291E0000140000004034000000B8
:1001A00008142241141414141400412214080201EA
:1001B0005909063E415D594E7C1211127C7F494916
:1001C00049363E414141227F4141413E7F494949B3
:1001D000417F090909013E414151737F0808087FA9
:1001E00000417F41002040413F017F081422417FB0
:1001F000404040407F021C027F7F0408107F3E4148
:1002000041413E7F090909063E4151215E7F09199E
:100210002946264949493203017F01033F404040B6
:100220003F1F2040201F3F4038403F6314081463A5
:1002300003047804036159494D43007F4141410261
:1002400004081020004141417F04020102044040A3
:10025000404040000307080020545478407F284461
:1002600044383844444428384444287F385454544B
:100270001800087E090218A4A49C787F080404785A
:1002800000447D40002040403D007F102844000095
:10029000417F40007C047804787C0804047838446A
:1002A000444438FC1824241818242418FC7C08041E
:1002B0000408485454542404043F44243C4040203F
:1002C0007C1C2040201C3C4030403C4428102844EA
:1002D0004C9090907C4464544C440008364100009B
:1002E00000770000004136080002010204023C26AB
:1002F00023263C1EA1A161123A4040207A38545472
:1003000055592155557941225454784221555478F4
:100310004020545579400C1E52721239555555598A
:10032000395454545939555454580000457C4100AF
:1003300002457D420001457C407D1211127DF0286E
:100340002528F07C545545002054547C547C0A09DF
:100350007F4932494949323A4444443A324A48484A
:10036000303A4141217A3A42402078009DA0A07D58
:100370003D4242423D3D4040403D3C24FF24244814
:100380007E4943662B2FFC2F2BFF0929F620C088BE
:100390007E090320545479410000447D413048488F
:1003A0004A32384040227A007A0A0A727D0D1931A9
:1003B0007D2629292F28262929292630484D402005
:1003C000380808080808080808382F10C8ACBA2FE1
:1003D000102834FA00007B000008142A142222148A
:1003E0002A14085500550055AA55AA55AAFF55FFCD
:1003F00055FF000000FF00101010FF00141414FF40
:10040000001010FF00FF1010F010F0141414FC0086
:100410001414F700FF0000FF00FF1414F404FC1490
:100420001417101F10101F101F1414141F00101089
:1004300010F0000000001F101010101F10101010FE
:10044000F010000000FF101010101010101010FF1E
:1004500010000000FF140000FF00FF00001F101735
:100460000000FC04F414141710171414F404F4001E
:1004700000FF00F714141414141414F700F71414E4
:1004800014171410101F101F141414F4141010F06B
:1004900010F000001F101F0000001F14000000FCDF
:1004A000140000F010F01010FF10FF141414FF14CB
:1004B0001010101F00000000F010FFFFFFFFFFF002
:1004C000F0F0F0F0FFFFFF0000000000FFFF0F0F53
:1004D0000F0F0F3844443844FC4A4A4A347E020223
:1004E0000606027E027E0263554941633844443C5D
:1004F00004407E201E2006027E020299A5E7A599EF
:100500001C2A492A1C4C7201724C304A4D4D303025
:1005100048784830BC625A463D3E494949007E0110
:1005200001017E2A2A2A2A2A44445F444440514A2F
:10053000444040444A51400000FF0103E080FF0076
:100540000008086B6B083612362436060F090F06B2
:10055000000018180000001010003040FF010100DA
:100560001F01011E00191D1712003C3C3C3C0000FD
:10057000000000000103070F1F3F7F0080C0E0F074
:10058000F8FCFEDB40A4A62EAF2000A1C8D300409B
:100590008DAED580A80000600000000000000000C3
:1005A000000000000000E00000000000000000006B
:1005B0000000000001E0000000000000000000005A
:1005C00000000001F000000000000000000000003A
:1005D000000003F000000000000000000000000028
:1005E0000007F00000000000000000000000000014
:1005F00007F8000000000000000000000000000FED
:10060000F800000003C0007E000001E0007F0FF84A
:1006100000000003C000FE000001E000FFEFF80052
:10062000000003C000FE000001E000FFFFF8000032
:100630000003C000F00000000F007FFE7FC000003C
:1006400003C000F00000000F003FFE7FF83FF1FB09
:10065000CFFCFEF3BC3DEFE01FFE7FFF7FFBFFDF23
:10066000FEFEFFBC3DEFE01FC6FFFF7FFBFFDFFE8E
:10067000FEFFBC3DEFE00FE3C7FE787BC3DE1EF05C
:10068000FFBC3DEF0007FF87FC787BC3DE1EF0F860
:100690003C3DEF0001FFFFF0007BC3C01EF0F03CCB
:1006A0003DEF0001F37FE03FFBC3CFFEF0F03C3DA8
:1006B000EF0003E33F807FFBC3DFFEF0F03C3DEF44
:1006C0000007E73C00787BC3DE1EF0F03C3DEF0006
:1006D00007FFBE00787BC3DE1EF0F03C3DEF000755
:1006E000FFFE00787BC3DE1EF0F03C3DEF000FFF05
:1006F000FE007FFBFFDFFEF0F03FFDEFE00FFFFFAE
:10070000007FFBFFDFFEF0F03FFDEFE00FF9FF00A1
:100710003E79F9CF9EF0F01F3DE7E01FF1FF0000AA
:10072000000000000000000000001F80FF007FFFAD
:10073000FFFFFFFFFFFFFFFFE01C007F007FFFFFC9
:10074000FFFEB46D888D18E000001F007FFFFFFFE3
:10075000FE95AD7DB577E000000F007FFFFFFFFE47
:10076000A5AD9D8D19E0000006007FFFFFFFFEB5DF
:10077000ADEDB57EE000000000000180000000004B
:1007800000000000000380000000000000000000E6
:1007900007C000000000000000000007C0000000CB
:1007A0000000000000000FC000000000000000007A
:1007B000001FE00000000000000000001FE000003B
:1007C000000000000000003FE0000000000000000A
:1007D00000003FF00000000000000000007FF0007B
:1007E0000000000000001FF87FF000000000000083
:1007F000003FFE7FF0000000000000003FFF7FF0A0
:10080000000000000000001FFFFBE00000000000EF
:1008100000000FFFF9FFC00000000000000FFFF90B
:10082000FFF800000000000007FFF1FFFF000000DC
:1008300000000003FC73FFFF80000000000001FEC9
:100840003FFFFF80000000000000FF1E0FFF0000C0
:1008500000000000007FFE1FFC0000000000000000
:100860003FFFFFF8000000000000000FDFFFE00086
:100870000000000000001F19FFC000000000000081
:10088000003F3CFF00000000000000007E7CF800FC
:10089000000000000000007FFE7C0000000000005F
:1008A0000000FFFFFC0000000000000000FFFFFE52
:1008B0000000000000000000FFFFFE00000000003C
:1008C000000001FFEFFE0000000000000001FFCF6C
:1008D000FE0000000000000003FF07FE0000000013
:1008E00000000003FC07FE0000000000000003F011
:1008F00003FE00000000000000018000FE00000078
:10090000000000000000007E000000000000000069
:1009100000003E000000000000000000000C00008D
:1009200000000000078000FC000003C0000000077A
:100930008001FC000003C0000000078001FC0000F3
:1009400003C0000000078001E00000001E0000005E
:10095000078001E00000001E007FE3F79FF9FDE73C
:10096000787BDFC0FFF7FFBFFDFDFF787BDFC0FFB7
:10097000F7FFBFFDFDFF787BDFC0F0F787BC3DE1EF
:10098000FF787BDE00F0F787BC3DE1F0787BDE008E
:1009900000F787803DE1E0787BDE007FF7879FFDF1
:1009A000E1E0787BDE00FFF787BFFDE1E0787BDEEA
:1009B00000F0F787BC3DE1E0787BDE00F0F787BC14
:1009C0003DE1E0787BDE00F0F787BC3DE1E0787B3D
:1009D000DE00FFF7FFBFFDE1E07FFBDFC0FFF7FFB9
:1009E000BFFDE1E07FFBDFC07CF3F39F3DE1E03E34
:1009F0007BCFC00000000000000000000000FFFFEF
:100A0000FFFFFFFFFFFFFFFFC0FFFFFFFFFD68DBF2
:100A1000111A31C0FFFFFFFFFD2B5AFB6AEFC0FF29
:100A2000FFFFFFFD4B5B3B1A33C0FFFFFFFFFD6B7A
:100A30005BDB6AFDC003FFFFFFFFFFFFFF00060057
:100A4000000000000001800C00000000000000C059
:100A500018000000000000006030000000000000EE
:100A60000030600000000000000018C0000000001E
:100A70000000000C80000000000000000480000066
:100A8000000000000004800000000000000004805E
:100A900000411083C1E00004800063108422100034
:100AA0000480007710881210000480005D1084021A
:100AB0001000048000491083C2100004800041101F
:100AC0008022100004800041108012100004800079
:100AD000411088121000048000411084221000048C
:100AE0008000410F03C1A00004E0000000000000EE
:100AF000001C20000000000000001020000000008A
:100B00000000001020000000000000001020000085
:100B10000000000000102000000000000000102075
:100B20000000000000000010E000000000000000D5
:100B30001C80007F0F0422100004800008108442F3
:100B40001000048000081084821000048000081047
:100B50008502100004800008108602100004800046
:100B6000081086021000048000081085021000049E
:100B70008000081084821000048000081084421055
:100B800000048000080F0421E00004800000000041
:100B9000000000048000000000000000048000004D
:100BA000000000000004C0000000000000000C6015
:100BB00000000000000000183000000000000000ED
:100BC000301800000000000000600C000000000071
:100BD0000000C006000000000000018003FFFFFFCE
:100BE000FFFFFFFF0000000001C000000000000048
:100BF000000000000000000003E000003FFCF000E7
:100C0000000000000000000003F000003FFCF000C6
:100C1000000000000000000003F800003FFC00009E
:100C2000000000000000000001FC000003C0F3DE33
:100C3000700F83DC0000000000FE000003C0F3FF23
:100C4000F83FE3FC00000000007F000003C0F3FF5A
:100C5000FC3FE3F800000000003F800003C0F3CF3A
:100C60003C78F3E00000007F801FC00003C0F3CF9A
:100C70003C7FF3C0000003FFF01FE00003C0F3CF90
:100C80003C7FF3C000000FFFFC3FF00003C0F3CF38
:100C90003C7803C000003FFFFF7FF80003C0F3CFA4
:100CA0003C7CF3C000007FFFFFFFFC0003C0F3CFDC
:100CB0003C3FE3C00000FF847FFCFE0003C0F3CF95
:100CC0003C3FE3C00003FE041FF87F0003C0F3CFE6
:100CD0003C0F83C00003F80407F83F000000000049
:100CE000000000000007F00001F81F0000000000F5
:100CF00000000000000FC00000FC0E00000000001B
:100D000000000000001FC000007E00000000000086
:100D100000000000001FA00000FE00000000000016
:100D200000000000003F1000013F00000000000034
:100D300000000000003E0800001F0000000000004E
:100D400000000000007E0400001F80000000000082
:100D500000000000007C0000000F80000000000088
:100D600000000000007C0000000F80000000000078
:100D700000000000007C0000000F80000000000068
:100D80000000000000FC00000007C00000000000A0
:100D90000000000000F800000007C0000000000094
:100DA0000000000000F8003C0027C0000000000028
:100DB0000000000000F8003C0037C0000000000008
:100DC0000000000000FF003FFFFFE0000000000007
:100DD0000000000000F8003C0037C00000000000E8
:100DE0000000000000F8003C0027C00000000000E8
:100DF0000000000000F800000007C0000000000034
:100E00000000000000F800000007C0000000000023
:100E100000000000007C0000000F800000000000C7
:100E200000000000007C0000000F800000000000B7
:100E300000000000007C0000000F800000000000A7
:100E400000000000007E0000001F80000000000085
:100E500000000000003E0000021F00000000000033
:100E600000000000003F0800013F000000000000FB
:100E700000000000001F900000FE000000000000C5
:100E800000000000001FA000007E00000000000025
:100E900000000000000FC00000FC00300000000057
:100EA000000000000007F00001F800380001FFF02A
:100EB000000000000007F80407F8003E0001FFF002
:100EC000000000000003FE041FF0003F0001FFF0DF
:100ED00000E007038001FF847FE0003FC001FFF0D6
:100EE00001F00F87C0007FFFFFC0003FE001FFF06F
:100EF00003B81DCEE0003FFFFF00003FF001FFF010
:100F000003BB9DCEE0000FFFFE00003FF801FFF0A5
:100F100003BB9DCEE00003FFF800003FFC01FFF0A3
:100F200003BB9DCEE00000FFC000003FFC01FFF0CE
:100F300003B81DCEE00000000000003FF801FFF004
:100F400003BB9DCEE00000000000003FF001FFF079
:100F500001F38F87C00000000000003FE001FFF0B8
:100F600001F38F87C00000000000003F8001FFF008
:100F700000E00703800000000000003F0001FFF0D8
:100F800000000000000000000000003E0000000023
:100F90000000000000000000000000380000000019
:100FA000000000000001FFC0000000000000000081
:100FB00000000001FFC00000000000000000000071
:100FC0000001FFC000000000000000000000000160
:100FD000FFC0000000000000000000000001FFC092
:100FE000000000000000000000000001FFC0000041
:100FF0000000000000000000007FFFFF0000000074
:10100000000000000000007FFFFF00000000000063
:1010100000000000007FFFFF00000F000000000044
:101020000000007FFFFF00001F0000000000000024
:10103000007FFFFF00003F00000000000000007C78
:10104000001F00007E00000000000000007C001F68
:101050000000FC00000000000000007C001F0001F8
:10106000F800E038F0C00000007C001F0003F00032
:10107000F038F3C00000007C001F0007E000F838E3
:1010800003C00000007C001F000FE000F838F7F3F9
:10109000DC7C007C001F001FC000FC38F7F3FCFF65
:1010A000007C001F003F8000FE38F7F3F9FF007C52
:1010B000001F007F0000FF38F3C3E3EF807C001FB8
:1010C00000FFFF00F738F3C3C3C7807C001F01FF98
:1010D000FF00F3B8F3C3C3C7807C001F01FFFF000C
:1010E000F1F8F3C3C3C7807C001F01FFFE00F0F8D6
:1010F000F3C3C3EF807C001F00FFFC00F0F8F3F3A4
:10110000C1FF007C001F0001FC00F078F3F3C0FE7B
:10111000007C001F0003F800F038F1F3C07C007C75
:10112000001F0003F000000000000000007C001F12
:101130000007E000000000000000007C001F000F1E
:10114000C000000000000000007C001F001FC00065
:10115000000000000000007C001F023F8000000033
:1011600000000000007C001F037F00000000000062
:101170000000007C001F03FE0000000000000000D3
:10118000007C001F03FC0000000000000000007C49
:10119000001F03FC0000000000000000007C001F96
:1011A00003F80000000000000000007FFFFF03F8CC
:1011B0000000000000000000007FFFFF03FC0000B3
:1011C000000000000000007FFFFF03FE00000000A1
:1011D00000000000007FFFFF000000000000000092
:1011E0000000007FFFFF0000000000000000000082
:1011F000001415161718191A1B1C1D1E1F2021225A
:10120000232425262728292A2B2C2D2E2F30313236
:10121000333435363738393A3B3C3D3E3F40414226
:10122000434445464748494A4B4C4D4E4F50515216
:10123000535455565758595A5B5C5D5E5F60616206
:10124000636465666768696A6B6C6D6E6F707172F6
:10125000737475767778797A7B7C7D7E7F808182E6
:10126000838485868788898A8B8C8D8E8F909192D6
:10127000939495969798999A9B9C9D9E9FA0C8A899
:10128000681898D838780484C4A4E4945434B4F426
:101290008CCCACEC1C5CDCBC7C0282C22262E29294
:1012A0005232B2F20A4ACAAA6A1A9ADA3A7AFA8622
:1012B0004626A6E61656D6B6760E8ECE2E6EEE9E36
:1012C0005E3EBEFE8141C1A1611191D13171F189B2
:1012D0004929A9E91959D9B9790585C52565E5953A
:1012E0005535B5F50D4DCDAD6D1D9DDD3D7DFD83B8
:1012F0004323A3E3139353D333B373F38B4BCB2B1E
:10130000AB6BEB9B5BDB7BFB0787C700000000241C
:101310000027002A0000000000250028002B000004
:10132000000000230026002900040404040404042F
:101330000402020202020203030303030301020484
:101340000810204080010204081020010204081047
:101350002000000008000201000003040700000054
:10136000000000000000007FFFFFFFC00000000041
:1013700000000000000000FFFFFFFFE00000000091
:1013800000000000000001FFFFFFFFF0000000F878
:10139000633E7C00000001FFFFFFFFF0000001FC46
:1013A000633E7E00000003FFFFFFFFF80000038E96
:1013B00063306600000003E0000000F80000030650
:1013C000363E6600000007E0000000FC0000030657
:1013D000363E7E00000007C00000007E00000306CD
:1013E00036307C0000000FC00000007E0000038E3D
:1013F0001C306C0000001F800000003F000001FC5A
:101400001C3E660000001F800000003F000000F846
:101410001C3E660000003F000000001F800000002E
:101420000000000000003F000000000F80000000EE
:101430000000000000007E000000000FC00000005F
:101440000000000000007C0000000007C003C33360
:10145000E3E3E61BF000FC0000000007E007F333C5
:10146000F3F3E71BF000F80000000003E00E233365
:1014700033330798C001F80000000003F00C033379
:101480003333E798C001F00000000001F00C033393
:10149000F3F3E6D8C003F00000000001F80C0333BA
:1014A000E3E30678C003E0F0FF8703F0F80E233390
:1014B00063630678C007E0F8FF9F83F8FC07F3F347
:1014C0003333E638C007C3FCFFBFC3F87E03C1E374
:1014D0003333E618C00FC39E1839C39C7E0000004A
:1014E00000000000001F839E1879E39C3F0000006D
:1014F00000000000001F839E1879E39C3F0000005D
:1015000000000000003F03801879E39C1F8000006A
:1015100000000000003F03801879E39C0F8000006A
:1015200000000000007E01801879E39C0FC00000DD
:1015300007000000007C01F01879E3FC07C0000000
:101540000F80000000FC00FC1879E3F807E00000C1
:101550000F80000000F800FC1879E3F003E00000C1
:101560000F80000000FC001E1879E38007E00000F7
:101570000F800000007C001E1879E38007C0000087
:101580000F800000007E001E1879E3800FC000006D
:101590000F800000003E031E1879E3800F800000DA
:1015A0000F800000003F031E1839E3801F800000F9
:1015B0000F800000001F839E183DC3801F000000A5
:1015C0000F800000001F81FC183FC3803F00000017
:1015D0000F800000000FC0FC181F83807E000000F9
:1015E0000F800000000FC000000000007E0000001F
:1015F0000F8000000007E00000000000FC00000079
:101600000F8000000003E00000000000FC0000006C
:101610000F8000000003F00000000001F80000004F
:101620000F8000000001F00000000001F000000049
:101630000F8000000001F80000000003F00000002F
:101640000F8000000000F80000000003E000000030
:101650000F8000000000FC0000000007E000000018
:101660000F80000000007C0000000007C0000000A8
:101670000F80000000007E000000000FC00000008E
:101680000F80000000003F000000000F80000000FD
:101690000700000000003F000000001F8000000065
:1016A0000000000000001F800000003F000000005C
:1016B0000000000000001F800000003F000000004C
:1016C0000000000000000FC00000007E00000000CD
:1016D00007000000000007C00000007E00000000BE
:1016E0000F800000000007E0000000FC0000000088
:1016F0001FC00000000003E0000000F80000000030
:101700001FC00000000003FFFFFFFFF80000000003
:101710000F800000000001FFFFFFFFF0000000004D
:1017200007000000000001FFFFFFFFF000000000C5
:1017300000000000000000FFFFFFFFE000000000CD
:10174000000000000000007FFFFFFFC0000000005D
:1017500000000000002200FF2100F922363211248F
:101760001FBECFEFD8E0DEBFCDBF12E0A0E0B1E0FA
:10177000E4EEFFE602C005900D92A032B107D9F762
:1017800024E0A0E2B2E001C01D92AD33B207E1F760
:101790001BE0CEEADBE004C02197FE010E94D633B5
:1017A000CD3AD107C9F70E945F230C94E5370C941A
:1017B00000000895FC01538D448D252F30E0842FC7
:1017C00090E0821B930B541710F0CF960895019769
:1017D0000895FC01918D828D981761F0A28DAE0F56
:1017E000BF2FB11D5D968C91928D9F5F9F73928FDD
:1017F00090E008958FEF9FEF0895FC01918D828D09
:10180000981731F0828DE80FF11D858D90E00895D5
:101810008FEF9FEF0895FC01918D228D892F90E02D
:10182000805C9F4F821B91098F7399270895FC015B
:10183000A48DA80FB92FB11DA35ABF4F2C91848D31
:1018400090E001968F739927848FA689B7892C938E
:10185000A089B1898C91837080648C93938D848DE1
:10186000981306C00288F389E02D80818F7D8083E4
:101870000895EF92FF920F931F93CF93DF93EC01A4
:1018800081E0888F9B8D8C8D98131AC0E889F98927
:10189000808185FF15C09FB7F894EE89FF8960832A
:1018A000E889F98980818370806480839FBF81E0AB
:1018B00090E0DF91CF911F910F91FF90EF900895ED
:1018C000F62E0B8D10E00F5F1F4F0F731127E02EC8
:1018D0008C8D8E110CC00FB607FCFACFE889F98900
:1018E000808185FFF5CFCE010E94170CF1CFEB8DE3
:1018F000EC0FFD2FF11DE35AFF4FF0829FB7F894D4
:101900000B8FEA89FB8980818062CFCFCF93DF93F1
:10191000EC01888D8823B9F0AA89BB89E889F98907
:101920008C9185FD03C0808186FD0DC00FB607FC3C
:10193000F7CF8C9185FFF2CF808185FFEDCFCE016F
:101940000E94170CE9CFDF91CF9108958CE593E0C9
:101950000E940B0C21E0892B09F420E0822F0895CE
:1019600080E090E0892B29F00E94A60C81110C9454
:1019700000000895833081F028F4813099F082309E
:10198000A9F008958730A9F08830C9F08430B1F407
:10199000809180008F7D03C0809180008F7780933D
:1019A0008000089584B58F7784BD089584B58F7DB8
:1019B000FBCF8091B0008F778093B0000895809125
:1019C000B0008F7DF9CFCF93DF93282F30E0F9015E
:1019D000EF5AFC4E8491F901E35CFC4ED491F9017D
:1019E000E75DFC4EC491CC23A1F081110E94BA0C9A
:1019F000EC2FF0E0EE0FFF1FE15EFC4EA591B491DD
:101A0000EC91ED2381E090E009F480E0DF91CF914B
:101A1000089580E090E0FACF1F93CF93DF93282FB3
:101A200030E0F901EF5AFC4E8491F901E35CFC4E81
:101A3000D491F901E75DFC4EC491CC23A9F0162F97
:101A400081110E94BA0CEC2FF0E0EE0FFF1FEB5E4D
:101A5000FC4EA591B4918FB7F894EC91111108C088
:101A6000D095DE23DC938FBFDF91CF911F91089536
:101A7000DE2BF8CFCF93DF9390E0FC01E35CFC4ECC
:101A80002491875D9C4EFC0184918823D1F090E0E5
:101A9000880F991FFC01E55FFC4EA591B491FC01F4
:101AA000EB5EFC4EC591D49161110EC09FB7F894C6
:101AB0008C91E22FE0958E238C932881E223E8839A
:101AC0009FBFDF91CF9108958FB7F894EC91E22BEF
:101AD000EC938FBFF6CF8E3008F08E508770806405
:101AE00080937C0080917A00806480937A0080915A
:101AF0007A0086FDFCCF809178009091790008955E
:101B00003FB7F89480914F0390915003A0915103F7
:101B1000B091520326B5A89B05C02F3F19F001963E
:101B2000A11DB11D3FBFBA2FA92F982F8827BC0137
:101B3000CD01620F711D811D911D42E0660F771F5F
:101B4000881F991F4A95D1F708958F929F92AF925F
:101B5000BF92CF92DF92EF92FF924B015C010E9405
:101B6000800D6B017C010E94800D6C197D098E092E
:101B70009F09683E734081059105A8F321E0821A10
:101B80009108A108B10888EEC80E83E0D81EE11CB8
:101B9000F11C81149104A104B10429F7FF90EF9086
:101BA000DF90CF90BF90AF909F908F9008952FB708
:101BB000F89460914B0370914C0380914D03909188
:101BC0004E032FBF089508950895AF92BF92CF920C
:101BD000DF92EF92FF920F931F93CF93DF936C01ED
:101BE0007B018B01040F151FEB015E01AE18BF08CE
:101BF000C017D10759F06991D601ED91FC91019080
:101C0000F081E02DC6010995892B79F7C501DF9197
:101C1000CF911F910F91FF90EF90DF90CF90BF90E9
:101C2000AF900895EF92FF920F931F93CF93DF939E
:101C3000EC01EC80FD806E157F050CF070C057FF45
:101C400004C0240F351F50E040E08E819F81FA01CF
:101C5000E20FF31F8E179F071CF49C01241B350B0A
:101C6000121613060CF05BC0922F842F8695869572
:101C700086958E9DD0018F9DB00D11246A0F7B1F1C
:101C8000AF8DB8A1A60FB71F477049F188E0841B3C
:101C9000482F682F70E0FB01E558FA4FE4912817B0
:101CA00008F063C0621B71092FEF30E002C0359568
:101CB00027956A95E2F7E2230130110539F0B0F17A
:101CC0000230110561F58C91E82702C08C91E82B58
:101CD000EC93941720F12C813D81A20FB31FE92FC3
:101CE000E41BE83078F00230110521F58E2F9C912D
:101CF00090959C932C813D81A20FB31F8850883012
:101D0000B0F7E770EE2359F0F0E0ED58FA4FE491A8
:101D100001301105F9F010F10230110519F1DF91D0
:101D2000CF911F910F91FF90EF900895E0958C91C6
:101D3000E823CECF81E00115110509F480E08195FB
:101D40009E2F8C932C813D81A20FB31F9850983009
:101D5000C0F7D7CF8C91E82BEC93E1CFE0958C9135
:101D6000E823FACF8C91E827F7CF0130110509F469
:101D7000ADCFE0F20230110509F4A5CFAE0DBF1DC5
:101D8000AECF0F931F93CF93DF9377FF04C0260F3F
:101D9000371F70E060E0DC011496CD91DC91FB010F
:101DA000E20FF31FCE17DF071CF49E01261B370B33
:101DB000121613064CF5FA0157FD3796A3E0F59578
:101DC000E795AA95E1F7EC9FD001ED9FB00DFC9F40
:101DD000B00D11246A0F7B1FDC015F96ED91FC9121
:101DE000E60FF71F4770552781E090E001C0880F8C
:101DF0004A95EAF7482F0130110559F0A8F02E0F47
:101E00003F1F02301105E1F0DF91CF911F910F913B
:101E100008952E0F3F1FE217F307B1F38191DF0101
:101E20001197842B8C93F7CF80952E0F3F1FE217CD
:101E3000F30751F39191DF01119798239C93F7CF0A
:101E4000E217F30709F38191DF01119784278C933F
:101E5000F7CF0F931F93FA01DC0156964C915697DA
:101E60004230E9F04330A1F1413061F514964D91D3
:101E70005C91DA01AE1BBF0BFD01E21BF30B77FD9A
:101E80000BC0DC0116964D915C916417750724F424
:101E9000AB01BF010E94C10E1F910F9108951496CE
:101EA0004D915C91DA01A61BB70BBD016150710920
:101EB000DC0116964D915C91DA01AE1BBF0BFD0162
:101EC000E21BF30B77FDE8CFAF010E94120EE4CFC7
:101ED00016964D915C91DA01A61BB70BBD016150BE
:101EE0007109CDCF0F931F93FA01DC0156964C91E7
:101EF00056974230A9F0433091F1413019F51496CC
:101F00004D915C91DA01AE1BBF0BFD013197F7FDDE
:101F100004C0AB01BF010E94120E1F910F910895E2
:101F200014964D915C91DA01A61BB70BBD01DC0143
:101F300016964D915C91DA01AE1BBF0BFD013197F6
:101F4000621B730BF7FDE9CFDC0116964D915C9196
:101F5000E417F50714F7AF010E94C10EDECF169605
:101F60004D915C91DA01A61BB70BBD01621B730B8F
:101F7000CECFFC0177FD64C0808591856817790715
:101F80000CF05EC057FD5CC08285938548175907E9
:101F90000CF056C086898230B1F0833029F181304F
:101FA00041F484819581841B950BAB01BC01615088
:101FB00071092130310509F108F443C0223031059F
:101FC00009F463C0089584819581DC01A61BB70BD9
:101FD000BD016150710986819781DC01A41BB50B9D
:101FE000AD0141505109E5CF86819781861B970B42
:101FF000BA01AC0141505109DCCFCA0157FD079627
:10200000A3E095958795AA95E1F7A481B5818A9F6C
:1020100090018B9F300D9A9F300D1124620F731F1A
:10202000078CF0A1E02DE60FF71F4770552721E040
:1020300030E001C0220F4A95EAF78081822B80832D
:102040000895CA0157FD079633E0959587953A950F
:10205000E1F7A481B5818A9F90018B9F300D9A9FF3
:10206000300D1124620F731F078CF0A1E02DE60FD5
:10207000F71F4770552781E090E001C0880F4A950F
:10208000EAF7809590818923DACFCA0157FD079638
:1020900023E0959587952A95E1F7A481B5818A9FDC
:1020A00090018B9F300D9A9F300D1124620F731F8A
:1020B000078CF0A1E02DE60FF71F4770552721E0B0
:1020C00030E001C0220F4A95EAF780818227B7CF1E
:1020D00008958EBD00000DB407FEFDCF8EB50895A6
:1020E0008CBD9DBD08950895FC016370668B84814D
:1020F000958126813781613039F0633029F09187ED
:102100008087338722870895318720879387828746
:1021100008952F923F924F925F926F927F928F928B
:102120009F92AF92BF92CF92DF92EF92FF920F9366
:102130001F93CF93DF93CDB7DEB76A970FB6F894AE
:10214000DEBF0FBECDBF9A8F898F7A8369834A0124
:10215000D22E18870F833701BC2CDC0159962D91A4
:102160003C915A972115310509F015C118968D91AA
:102170009C911997681779070CF0D7C11A968D9121
:102180009C91481759070CF0D0C14C2C512CB6E04B
:10219000CB9E600D711D11247C876B871616170668
:1021A0000CF0C3C1EA2DF0E0FA87E98793E0EE0F67
:1021B000FF1F9A95E1F7F88BEF87CF01840F951FEA
:1021C000181619060CF0B1C1A98DBA8D58968C91CC
:1021D000811104C0BFEABD1508F4D394A98DBA8D4E
:1021E000ED91FC9111970284F385E02DCD010995C5
:1021F000B5E0DB9EC0011124E981FA81FC83EB8309
:10220000312C212C9C012D583F4F388F2F8B4A2D7C
:1022100050E05E8B4D8BEF89F88DE20DF31D4491FC
:102220009E828D82D12CC12C69817A81620D731DB1
:102230007A8B698B842F90E09C8B8B8BE98DFA8D48
:10224000A081B18140FF82C0F1E0BF126FC0AF1228
:102250006DC01C96ED91FC912F813885A4014C0D29
:102260005D1D69897A89898D9A8D0995EB89FC892B
:10227000F595E7954E2F5FEFC51AD50A6D817E81E2
:102280008D899E89680F791F7E836D8398E0C916BA
:10229000D10481F6AFEF2A1A3A0AEB81FC81E40DF2
:1022A000F51DFC83EB83F5E02F16310409F0B3CF65
:1022B0002F81388526153705B9F0A98DBA8DED9196
:1022C000FC91B1E0BB1257C0AB1255C069817A8155
:1022D0006B5F7F4F0088F189E02D830128E030E0BB
:1022E000A401898D9A8D0995A98DBA8DED91FC91E6
:1022F00011970688F789E02DCD016A960FB6F894FC
:10230000DEBF0FBECDBFDF91CF911F910F91FF9028
:10231000EF90DF90CF90BF90AF909F908F907F9085
:102320006F905F904F903F902F9009941E96ED9183
:10233000FC91EF80F88409851A8592014D815E81B8
:102340006B817C81898D9A8D099590CF2F813885FD
:102350002615370509F48ACF31E0B31207C0A3125E
:1023600005C01C96ED91FC91930178CF1E96ED91DE
:10237000FC917301E0CF6B857C8564197509068437
:10238000F785E02D73010F8518899201A401898DCD
:102390009A8D0995A9CFF901349694913297459178
:1023A0005491D91AB7E0DB9E400D511D1124F9015B
:1023B000259134913C8B2B8BFA0125903490FA01B6
:1023C0003296749031963491398B3296649031966E
:1023D000449041E04C1518F04A1508F07FC0662D76
:1023E000062C000C770B7C836B83842D042C000C53
:1023F000990B9E838D83A98DBA8DED91FC911197D8
:102400000284F385E02DCD010995512CD12CC12CEE
:10241000EA2DF0E0FA87E9872B2D30E03C872B8707
:10242000A401440D511D47FC5A95588F4F8B69816B
:102430007A81660D711D67FC7A957E876D87798933
:10244000C71608F051CF2C2D30E04D815E81420F30
:10245000531FA985BA854A9FC0014B9F900D5A9F73
:10246000900D1124FC01E80DF91DF88BEF87852DE7
:10247000612C4F89588D420F531F5E8B4D8B671413
:1024800008F050C044244394480E877041F4C101C1
:102490000196EB89FC89E20DF31DD4901C01D7FE57
:1024A00019C0A98DBA8DED91FC91662D70E0B1E057
:1024B000BB1219C0AB1217C02D853E85620F731F6A
:1024C0000484F585E02D2F8138854D895E89898DBD
:1024D0009A8D0995DD0C6394842DD1CF1E821D82C7
:1024E0001C821B8288CF4B815C81640F751FAB857A
:1024F000BC856A9FC0016B9F900D7A9F900D11243F
:1025000069817A81680F791F0684F785E02DEF8055
:10251000F88409851A859D014F855889898D9A8D82
:102520000995D8CF570CC3948ACF6A960FB6F89402
:10253000DEBF0FBECDBFDF91CF911F910F91FF90F6
:10254000EF90DF90CF90BF90AF909F908F907F9053
:102550006F905F904F903F902F9008958F929F9231
:10256000AF92CF92EF92FF920F931F93CF93DF938F
:10257000EC01262F898D9A8D0097B1F56A30D1F440
:102580001D861C868D8998E0899F900111248E8577
:102590009F85820F931F9F878E8781E090E0DF9158
:1025A000CF911F910F91FF90EF90CF90AF909F90A0
:1025B0008F9008956D3089F3EA88FB88088919891E
:1025C0004E855F856C857D85AD88CC88CE010E9467
:1025D00089102C898C859D8536E0239F800D911D67
:1025E00011249D878C87D9CF6A3069F41D861C869B
:1025F000FC013896E4912D898E859F85E29F800DA0
:10260000911D1124C8CF6D3041F2FC0134963491F4
:10261000631708F4C2CF3296E491E61708F4BDCFF1
:10262000FC01329685909490862F831B97E0899FBA
:10263000800C911C1124F401329684913196E4911E
:10264000882391F0EE2381F0F4013596E491EA8835
:10265000FB88088919894E855F856C857D85AD88E5
:10266000CC88CE010E948910F4013496E4912C8923
:102670008C859D85E29F800D911D1124B2CF6F92B4
:102680007F928F929F92AF92BF92CF92DF92EF9202
:10269000FF920F931F93CF93DF93EC016B015A01CD
:1026A00039014801E881F9810284F385E02D09951B
:1026B000E881F9810288F389E02D87019301A50162
:1026C000B601CE010995A501480D591D415051098A
:1026D000E881F9810288F389E02D9301B601CE01EA
:1026E0000995E881F9810088F189E02D9401A5011F
:1026F000B601CE010995C60CD71CB601615071090F
:10270000E881F9810088F189E02D9401A501CE01CD
:102710000995E881F9810688F789E02DCE01DF91DE
:10272000CF911F910F91FF90EF90DF90CF90BF90CE
:10273000AF909F908F907F906F9009946F927F924F
:102740008F929F92AF92BF92CF92DF92EF92FF92C1
:102750000F931F93CF93DF935C01EB016A01490153
:1027600038018701DC01ED91FC916217730719F5BF
:10277000641675062CF0962D872D3A01C92ED82E99
:102780009601261937092F5F3F4F048CF58DE02DF8
:10279000A301BE01C5010995DF91CF911F910F9152
:1027A000FF90EF90DF90CF90BF90AF909F908F9071
:1027B0007F906F9008954615570591F426173707B7
:1027C00024F0892D4B01C22FD82F9E0128193909D9
:1027D0002F5F3F4F068CF78DE02DA601B401DACFB5
:1027E0000284F385E02D0995D501ED91FC910488D3
:1027F000F589E02D83019401A601BE01C50109956B
:10280000D501ED91FC910688F789E02DC501DF9196
:10281000CF911F910F91FF90EF90DF90CF90BF90DD
:10282000AF909F908F907F906F900994EF92FF925E
:102830000F931F93DC011A960D911C911B9718960C
:102840002D913C911997ED91FC9100A0F1A1E02D03
:102850007B0150E040E070E060E009951F910F912E
:10286000FF90EF9008954F925F926F927F928F92B8
:102870009F92AF92BF92CF92DF92EF92FF920F930F
:102880001F93CF93DF936C012B015A01390148014B
:10289000DC01ED91FC910284F385E02D0995E201C4
:1028A000640C751CD601ED91FC91C615D7055CF43E
:1028B0000088F189E02D87019401A501BE01C601C0
:1028C00009952196EFCF0688F789E02DC601DF91A3
:1028D000CF911F910F91FF90EF90DF90CF90BF901D
:1028E000AF909F908F907F906F905F904F900994E2
:1028F0008F929F92AF92BF92CF92DF92EF92FF9210
:102900000F931F93CF93DF93EC015B014A016901A1
:10291000E881F9810284F385E02D099595012C0D5C
:102920003D1D21503109E881F9810488F589E02DA8
:1029300078018401A401B501CE010995E881F981EE
:102940000688F789E02DCE01DF91CF911F910F917D
:10295000FF90EF90DF90CF90BF90AF909F908F90BF
:1029600009948F929F92AF92BF92CF92DF92EF9293
:10297000FF920F931F93CF93DF93EC015B014A010A
:1029800069017801E881F9810284F385E02D0995D8
:10299000C80CD91C860101501109E881F98104880D
:1029A000F589E02D9501A401B501CE010995E881D5
:1029B000F9810688F789E02DCE01DF91CF911F9133
:1029C0000F91FF90EF90DF90CF90BF90AF909F90CE
:1029D0008F900994EF92FF920F931F93DC01ED917A
:1029E000FC9100A0F1A1E02D09951F910F91FF909E
:1029F000EF9008950F931F93DC01ED91FC91068CED
:102A0000F78DE02D09951F910F9108950F931F9356
:102A1000DC01ED91FC91048CF58DE02D09951F9161
:102A20000F9108952F923F924F925F926F927F92F3
:102A30008F929F92AF92BF92CF92DF92EF92FF92CE
:102A40000F931F93CF93DF9300D000D0CDB7DEB7A5
:102A50006C0101E010E029E030E043E350E0BC010C
:102A600089EF93E00E94061554E0452E512C222454
:102A70002394312CF12CE12C84E090E09C838B8317
:102A800088EF9FEF9A8389837DEF672E77247A946E
:102A90009FEFE91AF90A82E0280E311C620C731CC0
:102AA0008B819C818E159F050CF457C04C01880CBE
:102AB000991C9FEF891A990A01E010E0940147E3FD
:102AC000A42EB12C8B819C81A81AB90AA501B7014B
:102AD0006C0D7D1D89EF93E00E9406159401A50100
:102AE000B6016E197F0989EF93E00E9406158B816C
:102AF0009C8184159505F9F0B601640D751D01E002
:102B000010E0410192E0891A9108940188E3A82E0F
:102B1000B12CAE18BF08A50189EF93E00E940615FD
:102B2000B601641975099401A50189EF93E00E942B
:102B300006154B805C808B819C81E816F90694F425
:102B400077FCA6CF01979C838B8389819A8102961B
:102B50009A838983680E791E9BCF8B819C81841513
:102B6000950551F60F900F900F900F90DF91CF9138
:102B70001F910F91FF90EF90DF90CF90BF90AF909B
:102B80009F908F907F906F905F904F903F902F908D
:102B90000895DC01ED91FC910084F185E02D09940C
:102BA0003F924F925F926F927F928F929F92AF92DD
:102BB000BF92CF92DF92EF92FF920F931F93CF932A
:102BC000DF9300D000D0CDB7DEB75C013B016A01D6
:102BD0004901280187E0480E511C93E05594479421
:102BE0009A95E1F7CA018E0D9F1D9A838983F12C76
:102BF000E12C312C1C821B828B819C818770992750
:102C0000330C892B61F4EB81FC8183E0F595E7952A
:102C10008A95E1F7EE0DFF1DE80DF91D349037FEA2
:102C20000AC021E030E0A6016B817C81660D771D32
:102C3000C5010E94C9158B819C8101969C838B8361
:102C400008171907C9F69FEFC91AD90AE40CF51C31
:102C500089819A81C816D90669F60F900F900F9056
:102C60000F90DF91CF911F910F91FF90EF90DF9028
:102C7000CF90BF90AF909F908F907F906F905F901C
:102C80004F903F9008952F923F924F925F926F9294
:102C90007F928F929F92AF92BF92CF92DF92EF92EC
:102CA000FF920F931F93CF93DF937C016B01EA0197
:102CB00081E090E05C01A41AB50A66247724641AC6
:102CC000750A660C771C10E000E088248394912C30
:102CD000822F8470582E822F8270482E822F887007
:102CE000382E2170222E0C171D070CF079C0B7FC6E
:102CF00006C0219782E0680E711CA60CB71C0F5FFE
:102D00001F4F82E0880E911CA80CB91C5520C1F001
:102D100021E030E0AE014C0D5D1DB701600F711F69
:102D200089EF93E00E94C91521E030E0A601400F31
:102D3000511FBE016E0D7F1D89EF93E00E94C915E2
:102D40004420C1F021E030E0A6014C1B5D0BB7012F
:102D5000600F711F89EF93E00E94C91521E030E0F8
:102D6000A601401B510BBE016E0D7F1D89EF93E044
:102D70000E94C9153320C1F021E030E0A601400FC8
:102D8000511FB7016C1B7D0B89EF93E00E94C915A1
:102D900021E030E0AE014C0D5D1DB701601B710BF1
:102DA00089EF93E00E94C915222009F49CCF21E00D
:102DB00030E0A601401B510BB7016C1B7D0B89EF66
:102DC00093E00E94C91521E030E0A6014C1B5D0B89
:102DD000B701601B710B89EF93E00E94C91583CF87
:102DE000DF91CF911F910F91FF90EF90DF90CF90E7
:102DF000BF90AF909F908F907F906F905F904F901B
:102E00003F902F9008952F923F924F925F926F9232
:102E10007F928F929F92AF92BF92CF92DF92EF926A
:102E2000FF920F931F93CF93DF9300D000D0CDB7C5
:102E3000DEB72C013B011A0179011C830B83580179
:102E4000AA0CBB1C4A018A189B086801C40CD51C3B
:102E500001E010E09401AB01B60189EF93E00E941C
:102E6000FA14C701860D971D9A838983AC014150DE
:102E700051099401B60189EF93E00E94FA14EA180F
:102E8000FB088B819C81680E791E9701A301B2011A
:102E900089EF93E00E940615420C531CB201615069
:102EA00071099701A30189EF93E00E94061521E0C3
:102EB0004B815C81B301C6010E9443168B819C81CA
:102EC000481A590A91E0491A510822E04B815C8165
:102ED000B301C2010E944316E980FA808B819C8174
:102EE000E81AF90A91E0E91AF10824E04B815C81C3
:102EF000B701C2010E94431628E04B815C81B701F3
:102F0000C6010F900F900F900F90DF91CF911F91FE
:102F10000F91FF90EF90DF90CF90BF90AF909F9078
:102F20008F907F906F905F904F903F902F900C9478
:102F300043162F923F924F925F926F927F928F92A1
:102F40009F92AF92BF92CF92DF92EF92FF920F9338
:102F50001F93CF93DF9300D000D000D0CDB7DEB762
:102F60003C016A013E832D83FC82EB825801A41A46
:102F7000B50AB7FE03C0B194A194B1088D809E80BC
:102F8000861A970A97FE03C09194819491088A1437
:102F90009B045CF0902F812F0D811E819D838E8379
:102FA0009C2D8D2D6B01692F782F0C151D055CF064
:102FB0009D818E817E836D83692F782F902F812F45
:102FC0008601C92ED82E1601201A310A2B012D8117
:102FD0003E81421A530A57FE03C05194419451084E
:102FE000710137FE03C03FEFE31AF30AF594E7944B
:102FF0008D819E81861797075CF5A1E0B0E0BA83CA
:10300000A983C016D1064CF1D301ED91FC91048443
:10301000F585E02D2B813C81A8016D817E818A148C
:103020009B041CF04D815E81B801C3010995E41831
:10303000F508F7FE0AC02D813E8189819A81280F0B
:10304000391F3E832D83E20CF31C0F5F1F4FD9CF36
:103050002FEF3FEF3A832983D4CF26960FB6F8940B
:10306000DEBF0FBECDBFDF91CF911F910F91FF90BB
:10307000EF90DF90CF90BF90AF909F908F907F9018
:103080006F905F904F903F902F90089508952091FA
:103090008602260F3327331F21323105ECF42091AD
:1030A000AA02FC0190E080E0243069F082E00895FB
:1030B000A09186022191AC014A595D4FA40FB52F12
:1030C000B11D2C930196861798F380918602680FA4
:1030D0006093860280E0089581E008951092AA022C
:1030E00081E08093AC021092AB0261E082E10E9429
:1030F0000C0D61E083E10E940C0DE9EBF0E08081B2
:103100008E7F808380818D7F808388E48093B80068
:1031100085E48093BC000895CF93DF9391E0909372
:1031200065028823B9F0C091B800D091BA008091AF
:10313000BC008A7B8093BC0060E082E10E940C0DA1
:1031400060E083E10E940C0D0E946E18D093BA00DB
:10315000C093B800DF91CF910895E091D60280919D
:10316000D502E81730F4F0E0E05CFD4F808190E09C
:1031700008958FEF9FEF08959091D6028091D50228
:103180002FEF3FEF981748F4E92FF0E0E05CFD4F98
:10319000208130E09F5F9093D602C901089580910D
:1031A000D5029091D602891B990B0895CF92DF9298
:1031B000EF92FF920F931F93CF93DF937C01CB018C
:1031C0008A0120915B03222389F0EB016B01C40E7D
:1031D000D51ECC15DD0569F06991D701ED91FC9103
:1031E0000190F081E02DC7010995F3CF642F0E9473
:1031F0004718C801DF91CF911F910F91FF90EF9079
:10320000DF90CF900895CF93DF931F92CDB7DEB7B5
:10321000698320915B032223F9F020915803203227
:1032200058F021E030E0FC013383228390E080E01D
:103230000F90DF91CF91089580915903E82FF0E02E
:10324000E05EFD4F998190838F5F80935903809357
:10325000580381E090E0ECCF61E0CE0101960E943E
:103260004718F7CFCF92DF92EF92FF920F931F9301
:10327000CF93DF93D091580381E0D13208F09CC006
:10328000C0915A030E94800D6B017C018091AA02BB
:1032900081116CC082E08093AA0281E08093AC022D
:1032A0008FEF8093A9021092CE02D093CD02A0E2BC
:1032B000B2E0EDEAF2E080E0D8138DC01092CF02C8
:1032C0008091CF02CC0FC82BC093CF028091AB026C
:1032D000813009F084C01092AB020E94800D6B0116
:1032E0007C018091CF028093BB008091610290911C
:1032F0006202A0916302B0916402892B8A2B8B2B0E
:10330000A1F00E94800D0091610210916202209153
:103310006302309164026C197D098E099F090617BA
:1033200017072807390708F442C08091BC0083FDC5
:10333000D8CF85EC8093BC000E94800D6B017C018E
:103340008091AA02823009F44CC08091A9028F3F7B
:1033500009F469C08091A902803209F466C08091A5
:10336000A902803309F463C084E026C08091610221
:1033700090916202A0916302B0916402892B8A2B22
:103380008B2B09F483CF0E94800D00916102109174
:10339000620220916302309164026C197D098E09EA
:1033A0009F09061717072807390708F06FCF809184
:1033B00060020E948C1885E0109259031092580305
:1033C00010925B03DF91CF911F910F91FF90EF90CF
:1033D000DF90CF9008959D9191938F5F6DCF85EE93
:1033E000A9CF8091610290916202A0916302B09195
:1033F0006402892B8A2B8B2B09F4A2CF0E94800DAB
:103400000091610210916202209163023091640286
:103410006C197D098E099F090617170728073907B8
:1034200008F08ECFC4CF80E0C7CF82E0C5CF83E065
:10343000C3CFEF92FF920F931F93CF93DF937C0143
:10344000C62F8091160490911704009709F459C073
:1034500020911A0431E030935B0320935A031092B9
:10346000590310925803DC01ED91FC910190F08119
:10347000E02D60E009958701EE24E394F12CD1E082
:10348000C1508091160490911704CF3F91F1B0E2A2
:10349000EB16F104D8F00E94321980911604909135
:1034A000170420911A04D0935B0320935A031092BF
:1034B000590310925803DC01ED91FC910190F081C9
:1034C000E02D60E00995EE24E394F12C8091160440
:1034D00090911704F8016491DC01ED91FC91019049
:1034E000F081E02D0995BFEFEB1AFB0A0F5F1F4F2C
:1034F000C7CFDF91CF911F910F91FF90EF900C9468
:103500003219E0912604F0912704908180912C04D7
:103510008095892380838701C15008F438C0F80161
:1035200084912091140430911504232B29F00E94DA
:1035300069100F5F1F4FF0CF28E030E040E8E091C6
:103540002204F091230490912A04582F5423D9F097
:103550005081952B9083E0912404F0912504908173
:1035600050912B04952B9083E0912404F091250435
:10357000508190912B0490959523908346952150EE
:103580003109E9F6D6CF508190959523E3CFDF91AD
:10359000CF911F910F91FF90EF9008951F93CF93BC
:1035A000DF93EC018D8D9E8D009721F1162F29A1BF
:1035B00031E030935B0320935A0310925903109229
:1035C0005803DC01ED91FC910190F081E02D60E069
:1035D00009958D8D9E8DDC01ED91FC910190F0811E
:1035E000E02D612F09958D8D9E8DDF91CF911F91DB
:1035F0000C943219ADA5BEA59C918BA98095892309
:103600008C938B8D9C8D892B31F0862FDF91CF9100
:103610001F910C94691028E030E080E8A9A5BAA5B4
:1036200099A9462F4823C1F04C91942B9C93ABA5AC
:10363000BCA59C914AA9942B9C93ABA5BCA54C918D
:103640009AA9909594239C9386952150310931F73E
:10365000DF91CF911F9108954C9190959423E6CFDF
:10366000DF92EF92FF920F931F93CF93DF9380919E
:10367000160490911704892B09F498C020912E0408
:1036800030912F04409130045091310460E074E295
:1036900084EF90E00E94A033205131094109510983
:1036A00056954795379527952093B80065E085E5B1
:1036B00097E10E94191A6091FD03615089EF93E030
:1036C0000E94CE1A2091FF0330910004C901079691
:1036D00097FD079633E0959587953A95E1F7209108
:1036E000FD033091FE03829F8001839F100D929F06
:1036F000100D1124C0911804D09119048091160462
:10370000909117040C0F1D1F009709F48FC0209192
:103710001A0431E030935B0320935A03109259034B
:1037200010925803DC01ED91FC910190F081E02DA5
:1037300060E40995EE24E394F12CDD24D394809188
:103740001604909117040C171D0709F446C0B0E247
:10375000EB16F104D8F00E94321980911604909172
:10376000170420911A04D0925B0320935A031092FD
:10377000590310925803DC01ED91FC910190F08106
:10378000E02D60E40995EE24E394F12C8091160479
:10379000909117046991DC01ED91FC910190F08109
:1037A000E02D0995BFEFEB1AFB0AC9CF80911404F5
:1037B00090911504892B31F0809137049091380451
:1037C0000E947010E0912804F0912904908180916A
:1037D0002D0480958923808369CF0E9432198091BE
:1037E000160490911704892B09F461C020913204CA
:1037F00030913304409134045091350460E074E218
:1038000084EF90E00E94A033205131094109510911
:1038100056954795379527952093B800DF91CF911E
:103820001F910F91FF90EF90DF900895E091260493
:10383000F0912704808190912C04892B80830C17B0
:103840001D0769F289912091140430911504232BEE
:1038500019F00E946910F3CF28E030E040E8E091D1
:103860002204F091230490912A04582F5423D9F074
:103870005081952B9083E0912404F0912504908150
:1038800050912B04952B9083E0912404F091250412
:10389000508190912B0490959523908346952150CB
:1038A0003109E9F6CCCF508190959523E3CFE09193
:1038B0002804F0912904808190912D04892B808324
:1038C000ADCF1F93CF93DF93EC01162F8D8D9E8D7F
:1038D000892BB1F12DA93EA94FA958AD60E074E242
:1038E00084EF90E00E94A033205131094109510931
:1038F00056954795379527952093B80066EA11119C
:1039000067EACE010E94CE1A8D8D9E8D892B41F1E2
:1039100029AD3AAD4BAD5CAD60E074E284EF90E070
:103920000E94A0332051310941095109569547950C
:10393000379527952093B800DF91CF911F91089577
:103940008B8D9C8D892B21F08EAD9FAD0E947010C8
:10395000EFA5F8A990818CA9809589238083CECF8B
:10396000EFA5F8A980819CA9892B8083E5CF90E001
:1039700080E00895EF92FF920F931F93CF93DF9310
:103980007B01880F991F880F991FEC01259710E084
:1039900000E061E086E00E940C0DCE010197F1F796
:1039A00060E086E00E940C0DCE010197F1F70F5FF9
:1039B0001F4FE016F10669F7DF91CF911F910F912C
:1039C000FF90EF9008951F93CF93DF93182F0E94DD
:1039D0006B0DEC01812F0E946B0D8C0F9D1F969536
:1039E0008795DF91CF911F9108953F924F925F92FB
:1039F0006F927F928F929F92AF92BF92CF92DF92FF
:103A0000EF92FF920F931F93CF93DF933B014A01F5
:103A10002901E7013C2C0E94E30CF3019183808390
:103A2000F40120813181892B09F059C0C0904603EF
:103A3000D0904703E0904803F090490321303105CE
:103A400031F511821082F20180819181A281B381CE
:103A5000B701A601481B590B6A0B7B0BC801110F5C
:103A6000AA0BBB0B481759076A077B0780F03983FD
:103A70002883F501C082D182E282F382F1E03F1215
:103A80001CC06DE470E088EC90E00E94BA1CF50167
:103A900080819181A281B381A7019601281B390BF6
:103AA0004A0B5B0BDA01C9018C329140A105B105CB
:103AB00020F083E090E099838883DF91CF911F917C
:103AC0000F91FF90EF90DF90CF90BF90AF909F90BD
:103AD0008F907F906F905F904F903F900895232B31
:103AE00061F781E090E0918380838091460390911B
:103AF0004703A0914803B0914903F2018083918369
:103B0000A283B38388819981892BB9F282E090E006
:103B1000D2CF2091FF0330910004C901079697FD91
:103B2000079623E0959587952A95E1F72091FD0367
:103B30003091FE03829FA001839F500D929F500DF4
:103B4000112470E060E080911804909119040C94A5
:103B50000635EF92FF920F931F9360E08FE00E9473
:103B60000C0D0E94891D8FE3E82EF12C0CE710E06C
:103B700025E633E150E040E070E060E089EF93E05B
:103B80000E94D0150E94301B64E670E088EC90E043
:103B90000E94BA1C62E370E080E090E00E94A50DF4
:103BA00064E670E088EC90E00E94BA1C62E370E08A
:103BB00080E090E00E94A50D64E670E088EC90E063
:103BC0000E94BA1C6CED75E080E090E00E94A50DAB
:103BD000809153038630B0F082E00E94E30C892B81
:103BE00031F08091560390915703019759F4109248
:103BF00053031092550310925403109257031092DE
:103C00005603EACF0E94891D1F910F91FF90EF90FC
:103C10000C94301B0E940135FB0101900020E9F754
:103C20003197AF01461B570BDC01ED91FC910280EF
:103C3000F381E02D09948F929F92AF92BF920F93E0
:103C40001F93CF93DF93CDB7DEB7A1970FB6F8944C
:103C5000DEBF0FBECDBF19A2423008F44AE08E018C
:103C60000F5D1F4F842E912CB12CA12CA501940126
:103C70000E94A033E62FB901CA01EA3004F5E05DE5
:103C8000D801EE938D01232B242B252B79F790E07F
:103C900080E0109729F0BD0189EF93E00E940C1E8F
:103CA000A1960FB6F894DEBF0FBECDBFDF91CF91C6
:103CB0001F910F91BF90AF909F908F900895E95CF6
:103CC000DFCFCF92DF92EF92FF92CF93DF936B0122
:103CD0007C016DE289EF93E00E94AE12EC01662751
:103CE0007727CB016C197D098E099F094AE00E9454
:103CF0001B1E8C0F9D1FDF91CF91FF90EF90DF90E7
:103D0000CF900895BC01990F880B990B97FD0C94E7
:103D1000611E4AE00C941B1EBC0189EF93E00C94D9
:103D20000C1ECF92DF92EF92FF920F931F93CF93CF
:103D3000DF93CDB7DEB728970FB6F894DEBF0FBE7E
:103D4000CDBF20911503211142C07F936F939F93A4
:103D50008F9384E691E09F938F93CE0101966C013F
:103D60009F938F930E940D35F12CE12C07E010E01A
:103D700020E230E049E350E06FE570E089EF93E046
:103D80000E94331481E080930D0480930E0481E03F
:103D900090E090930C0480930B0490930A0480931A
:103DA00009048FE590E0909306048093050489E36D
:103DB00090E09093080480930704C6010E948C1E33
:103DC0000E94301B0FB6F894DEBF0FBECDBF289601
:103DD0000FB6F894DEBF0FBECDBFDF91CF911F911C
:103DE0000F91FF90EF90DF90CF9008950F931F9366
:103DF000811150C08091150381114CC0233021F1F5
:103E000081E080930D0480930E04243051F18EE301
:103E100090E00436110514F082E090E090930604DF
:103E20008093050489E390E090930804809307044D
:103E3000CA016130F9F010920C0410920B04109238
:103E40000A041092090420C020930D0420930E044C
:103E500082E090E090930604809305048AE090E06D
:103E6000E3CF8FE590E0909306048093050482E011
:103E700090E0DACF21E030E030930C0420930B0483
:103E800030930A04209309040E948C1E1F910F9105
:103E90000C94301B1F910F91089585ED8093BC0009
:103EA0008091610290916202A0916302B0916402DC
:103EB0000796A11DB11D23E0B695A7959795879507
:103EC0002A95D1F72091BC0024FD03C01092AA02CC
:103ED0000895409161025091620260916302709175
:103EE0006402452B462B472B69F30097A105B105CA
:103EF00041F02AE22A95F1F700C00197A109B10922
:103F0000E1CF809160020C948C181F920F920FB633
:103F10000F9211242F933F938F939F93AF93BF934F
:103F200080914B0390914C03A0914D03B0914E03AF
:103F300030914A0323E0230F2D3758F50196A11D38
:103F4000B11D20934A0380934B0390934C03A0939D
:103F50004D03B0934E0380914F0390915003A09175
:103F60005103B09152030196A11DB11D80934F03DF
:103F700090935003A0935103B0935203BF91AF911C
:103F80009F918F913F912F910F900FBE0F901F9097
:103F9000189526E8230F0296A11DB11DD2CF1F92BE
:103FA0000F920FB60F9211242F933F934F935F936D
:103FB0006F937F938F939F93AF93BF93EF93FF93F1
:103FC0008CE593E00E94170CFF91EF91BF91AF91A8
:103FD0009F918F917F916F915F914F913F912F9121
:103FE0000F900FBE0F901F9018951F920F920FB653
:103FF0000F9211242F938F939F93EF93FF93E09150
:104000006C03F0916D038081E0917203F091730372
:1040100082FD1BC09081809175038F5F8F7320910B
:104020007603821741F0E0917503F0E0E45AFC4F0B
:10403000958F80937503FF91EF919F918F912F91B1
:104040000F900FBE0F901F9018958081F4CF1F9294
:104050000F920FB60F9211242F933F934F935F93BC
:104060006F937F938F939F93AF93BF93EF93FF9340
:104070008091B900887F803609F44AC0F0F5883213
:1040800009F4A7C018F5803109F49BC0B8F488235F
:1040900009F4F9C0883009F494C0FF91EF91BF9101
:1040A000AF919F918F917F916F915F914F913F91D0
:1040B0002F910F900FBE0F901F901895883109F423
:1040C00088C0803251F78093A90214C0803409F46B
:1040D0009DC040F48033B9F38833F9F68093A90288
:1040E00085ECB0C0803509F485C0883509F496C0E8
:1040F000883499F60E944D1FD0CF883909F48CC0BE
:1041000038F5883729F050F4883611F0803729F6D1
:1041100083E08093AA021092A80257C0883809F45D
:104120007BC0803919F0803809F0B7CF8091A802A0
:10413000803208F071C0E091A80281E08E0F809378
:10414000A8028091BB00F0E0E857FD4F80833DC09E
:10415000803B39F0E0F4803A09F479C0883A09F0FC
:104160009CCF84E08093AA0210928702109286026C
:10417000E091D302F091D4020995809186028111D9
:104180000FC081E0809386021092660209C0803CD5
:1041900009F4A6CF883C09F4A3CF883B09F07DCF72
:1041A000E091870281E08E0F80938702F0E0EA5968
:1041B000FD4F80818093BB009091870280918602A1
:1041C00029C08091CF028093BB0085EC8093BC0016
:1041D00064CF9091CE028091CD02981758F5E0916E
:1041E000CE0281E08E0F8093CE02F0E0E355FD4FCA
:1041F0008081E9CFE091CE0281E08E0F8093CE02E4
:104200008091BB00F0E0E355FD4F80839091CE029A
:104210008091CD029817C8F285E8D8CFE091CE0200
:1042200081E08E0F8093CE028091BB00F0E0E355D9
:10423000FD4F80838091AC0281115CCF81E080933F
:10424000AB0284EA8093BC001092AA0226CF85ECD0
:104250008093BC001092AA028091A802803230F4B0
:10426000E091A802F0E0E857FD4F10826091A802AB
:1042700070E0E091D102F091D20288E892E00995D5
:104280001092A8020ACF1092A90234CF71E03D9A91
:104290003C980000000000000E94F4223D980E941B
:1042A000F422A894000000000000359B0E94DC224C
:1042B000D2F0889434990894771F48F73D9A80305B
:1042C00019F03C980C9465213C9A00000000000015
:1042D0000E94F4223D98A89400000000359B0E94A3
:1042E000DC220E94F422000000003D9A872F9927CB
:1042F000089580E208950894881F0C948021880F07
:10430000F1F03D9A00000000000020F400003C980D
:104310000C948D213C9A0C948D210E94F4223D989E
:10432000A894000000000000359B0E94DC221AF4D3
:1043300088270C94B2210E94F4220C947F213D9A8C
:10434000000000003C980E94F422992788273D989D
:10435000A8940000359B0E94DC2252F3349B81E03C
:104360000E94F422000000003D9A089581E0089523
:104370003D9A3C9A0E94F4223D980E94F422359B7B
:104380000E94DC223C980E94F422789408958F9336
:10439000F1E0E4EF8F918F93F894359B0E94DC223B
:1043A0003C9A0E94F4220E947B21882331F40E94CF
:1043B000B821319711F00C94CA2199270F900895D4
:1043C0000895F8943D9A0E94F4223C980E94F422A9
:1043D0003D980E94F422359B0E94DC223C9A0E9468
:1043E000F4220E947B21089581E00895F894359B82
:1043F0000E94DC223C9A0E94F4220E947B210895B4
:1044000081E00895DF92EF92FF920F931F93CF9375
:10441000DF93D82E0E94B82161E070E080E090E048
:104420000E94A50D0E94B82161E070E080E090E05C
:104430000E94A50D8AE0E82EF12C01E010E080EC4E
:104440000E94F621C1E0D0E0811104C010E000E03C
:10445000D0E0C0E084E40E947B21811104C010E020
:1044600000E0D0E0C0E08D2D0E947B21811102C0D0
:10447000D0E0C0E00E94B82161E070E080E090E010
:104480000E94A50DCD2B21F481E0E81AF108B9F6C0
:10449000012B41F1DF91CF911F910F91FF90EF9090
:1044A000DF90089501501109A9F380EC0E94F621D4
:1044B000C82F84E40E947B21811101C0C0E0D0E0BC
:1044C0008D2D0E947B21811102C0D0E0C0E00E94AE
:1044D000B82161E070E080E090E00E94A50DCD2B56
:1044E00009F3D8CF0AE010E0E0CFEF92FF920F93EC
:1044F0001F93CF93DF93813009F449C0EB016233FE
:10450000710564F4009130031091310324E04EE60C
:1045100051E061E0809145030E94F61E8CEA0E9402
:10452000022261E08FE00E940C0D61E470E080E007
:1045300090E00E94A50D08E610E083E7E82E80E0F9
:10454000F82EF80184910E9402226FE070E080E072
:1045500090E00E94A50D0F5F1F4FE016F10689F74E
:10456000E0913203F0913303E258FD4E84910E94B2
:104570000222E29764F4009130031091310324E0A9
:104580004EE651E062E0809145030E94F61EDF9105
:10459000CF911F910F91FF90EF9008953C983D9817
:1045A0004498459888279927349B0895359B08950A
:1045B00081E0089581E00895B0E0A4E000240E9425
:1045C000EC223AF40A94D9F71197C1F728940C9485
:1045D000F322A8940C94F322A89435990C94F12218
:1045E00028940000089508959BE69A95F1F70895A0
:1045F0000895ECE5F3E01382128288EE93E0A0E0E8
:10460000B0E084839583A683B7838AE291E09183A7
:10461000808385EC90E09587848784EC90E0978791
:10462000868780EC90E0918B808B81EC90E0938B7F
:10463000828B82EC90E0958B848B86EC90E0978B5C
:10464000868B118E128E138E148EE9EFF3E0138297
:10465000128220E830E03583248380E490E0978361
:1046600086833187208793878287168A15861486EA
:104670001786168681E0858B848B2FEF3FEF338B77
:10468000228B318B208B878B108E128E118E8CE3B8
:1046900091E091838083148E138E168E158E10A256
:1046A000178E8BE084A38DE085A38CE086A38AE03F
:1046B00087A388E080A780E586AF17AE0895CF93E3
:1046C000DF93CDB7DEB728970FB6F894DEBF0FBEE5
:1046D000CDBF789484B5826084BD84B5816084BD8B
:1046E00085B5826085BD85B5816085BD80916E0090
:1046F000816080936E0010928100809181008260C1
:1047000080938100809181008160809381008091FD
:1047100080008160809380008091B10084608093EC
:10472000B1008091B00081608093B00080917A00E8
:10473000846080937A0080917A00826080937A000E
:1047400080917A00816080937A0080917A008068FD
:1047500080937A001092C10060E089E00E940C0D05
:1047600061E089E00E943A0D80911804909119044B
:10477000892B39F10E94891D8091FF0390910004DB
:104780006091FD037091FE03813291050CF03DC5EF
:10479000AC014052510957FF02C04F5F5F4F559522
:1047A00047956357710977FF02C06F5F7F4F75951B
:1047B0006795F0E2EF2EF12C03E710E025E935E0F4
:1047C0003CC52091FF0330910004C901079697FD75
:1047D000079623E0959587952A95E1F72091FD03AB
:1047E0003091FE038C01029FC001039F900D129F28
:1047F000900D11240E94DC339093190480931804C7
:10480000892B09F0B7CF0E94CE221092450360E0B9
:1048100089E00E940C0D61E089E00E943A0D60E0A1
:104820008EE00E943A0D60E080E10E943A0D60E067
:1048300081E10E943A0D60E084E00E943A0D60E060
:1048400083E00E943A0D61E086E00E943A0D60E04C
:1048500082E00E943A0D60E085E10E943A0D60E03E
:1048600084E10E943A0D61E08FE00E943A0D61E020
:1048700087E00E943A0D60E085E00E943A0D60E01A
:1048800089E00E940C0D60E087E00E940C0D60E062
:1048900086E00E940C0D61E082E00E940C0D0E94F7
:1048A000891DA0E3EA2EF12C06E410E025E33AE0AE
:1048B0004AE050E06DE170E089EF93E00E94D0158E
:1048C0000E94301B60ED77E080E090E00E94A50D33
:1048D0000E94891D87E080930D0480930E0481E07F
:1048E00090E090930C0480930B0490930A048093BF
:1048F000090481E290E00E9445328A3D09F44BC0F0
:104900006AE090E080E00E944D3264E181E090E056
:104910000E944D3268E282E090E00E944D3262E3F4
:1049200083E090E00E944D326BE084E090E00E94D2
:104930004D3265E185E090E00E944D3269E286E00B
:1049400090E00E944D3263E387E090E00E944D3298
:104950006CE088E090E00E944D3266E189E090E0F2
:104960000E944D326AE28AE090E00E944D3264E398
:104970008BE090E00E944D3261E080E290E00E9486
:104980004D3260E089E190E00E944D326AED81E2B3
:1049900090E00E944D3290E080E00E944532182F56
:1049A00080931A0381E090E00E94453280931B03BC
:1049B00082E090E00E94453280931C0383E090E007
:1049C0000E94453280931D0384E090E00E944532AE
:1049D00080931E0385E090E00E94453280931F0380
:1049E00086E090E00E9445328093200387E090E0CB
:1049F0000E9445328093210388E090E00E94453276
:104A00008093220389E090E00E9445328093230343
:104A10008AE090E00E944532809324038BE090E08E
:104A20000E9445328093250380E290E00E94453247
:104A30008093060389E190E00E94453290E09093D4
:104A400002038093010360E0892B09F061E087E0B5
:104A50000E940C0D812F90E09093330380933203DA
:104A60000E94D70D6093FD027093FE028093FF02B7
:104A7000909300036093F5027093F6028093F7021F
:104A80009093F80260934103709342038093430331
:104A900090934403609334037093350380933603FB
:104AA0009093370388248394912CDD24D3940E941F
:104AB000D70DAB01BC01409346035093470360936D
:104AC00048037093490380914503811173C080911D
:104AD000410390914203A0914303B09144038A01A2
:104AE0009B01081B190B2A0B3B0BD901C801209114
:104AF0001701213009F08DC5813117E29107A10519
:104B0000B10508F457C000913D0310913E03209178
:104B10003F0330914003800F911FA21FB31F80936A
:104B20003D0390933E03A0933F03B0934003409313
:104B30004103509342036093430370934403BC01C9
:104B4000CD0128EE33E040E050E00E94A03329017F
:104B50003A0121E942162EE752066104710430F051
:104B6000E0E94E2EEEE75E2E612C712CC301B201FE
:104B700020E13EE040E050E00E94A0337901309314
:104B80003C0320933B03C301B2012CE330E040E03F
:104B900050E00E94A033CA01B9012CE330E040E0AC
:104BA00050E00E94A03370933A0360933903C70129
:104BB0000E94911E8091460390914703A091480363
:104BC000B09149034091340350913503609136030D
:104BD00070913703841B950BA60BB70B81389E4E43
:104BE000A643B10508F48CC00E94891D0E94301BA9
:104BF00010E000E023E044E751E061E080914503EC
:104C00000E94F61E60ED77E080E090E00E94A50D26
:104C10000E94891D0E94301B84E00E94E30C8C01DD
:104C20000E94D70D60934603709347038093480317
:104C300090934903112784E00E94E30C7C0180E1FA
:104C40000E94E30CCC24C394892B21F00E151F0580
:104C500009F4C12C82E00E94E30C892B11F4CC24CE
:104C6000C39481E10E94E30C892B11F0CC2019F34D
:104C70000E94891D0E94301B10E000E023E04CE7F9
:104C800051E061E0809145030E94F61E64E670E009
:104C900088EC90E00E94BA1C68EE73E080E090E03F
:104CA0000E94A50D0E94891D0E94301B80E10E9478
:104CB000E30C019709F0DDC482E00E94E30C019748
:104CC00009F0D7C481E10E94E30C019709F0D1C437
:104CD0000E94891D0E94301B0E94D70D60934603DD
:104CE0007093470380934803909349036093340380
:104CF000709335038093360390933703D092160157
:104D000080911601813009F0E9C0109216010091DE
:104D1000320310913303F801E258FD4E84910E9452
:104D20000222F801EF50FE4E6491462E512C509213
:104D300031034092300370E090E080E00E949132B5
:104D400026E636E646EA50E40E94F7320E945B32DD
:104D500070932F0360932E0387E080930D0480935C
:104D60000E0490920C0480920B0490920A0480929C
:104D700009040E94891DC2016AE070E00E948C3320
:104D80007B0126EF26038001279F100D1124040DBF
:104D9000151D54E6451651040CF476C483E590E0E5
:104DA0000E94121579E5672E712C1092060410925C
:104DB00005041092080410920704C7010E94821E85
:104DC0007092060460920504109208041092070481
:104DD000B801012E000C880B990B17FF5DC40E94CF
:104DE000611E60EA71E089EF93E00E940C1E0E9450
:104DF000301B80911501813009F066C093E09093DB
:104E000015019091150391115FC060902C03709073
:104E10002D0380930D0480930E0490920C048092D5
:104E20000B0490920A0480920904F12CE12C0DE00D
:104E300010E025E230E043E350E070E060E089EF0D
:104E400093E00E943314EE24E394F12C22E230E04C
:104E500043E350E070E060E089EF93E00E943F138D
:104E60006114710409F01CC483E090E0909306047F
:104E700080930504E6E3F0E0F0930804E093070470
:104E800021E030E049E350E06CE070E089EF93E02E
:104E90000E94B90F21E030E049E350E063E170E0A7
:104EA00089EF93E00E94B90F21E030E049E350E040
:104EB0006AE170E089EF93E00E94B90FC3010196A7
:104EC0000E94821E0E94301B6091390370913A0348
:104ED00080913B0390913C030E94911E80912A0394
:104EE00090912B03019709F048C08091460390915F
:104EF0004703A0914803B091490340912603509184
:104F000027036091280370912903841B950BA60B3E
:104F1000B70B803D9740A105B10578F180912C0336
:104F200090912D0360913203FC01E65EFC4F60839B
:104F300090E00E944D3210922B0310922A030091B0
:104F400030031091310321E043EA51E061E08091A8
:104F500045030E94F61E6CE271E080E090E00E9442
:104F6000A50D009130031091310321E043EA51E097
:104F700062E0809145030E94F61E80911501833006
:104F800061F58091460390914703A0914803B09149
:104F900049034091160350911703609118037091D3
:104FA0001903841B950BA60BB70B813D9740A105F8
:104FB000B10598F082E080931501F12CE12C0DE011
:104FC00010E025E230E043E350E070E060E089EF7C
:104FD00093E00E9433140E94301B809115038823B4
:104FE00009F473C4109216010E94891D43E0F42E47
:104FF000F0920D04F0920E0490920C0480920B0437
:1050000090920A04809209040AE010E020E430E063
:1050100040E850E070E060E090E080E00E9403171C
:1050200080911503813009F09AC381E290E090935A
:1050300006048093050488E090E090930804809330
:10504000070487EA91E00E948C1E8BE290E0909327
:1050500006048093050483E290E090930804809313
:1050600007048CEA91E00E948C1E0E94301B809104
:10507000460390914703A0914803B09149034091A2
:105080001103509112036091130370911403841B58
:10509000950BA60BB70B85389340A105B10520F001
:1050A00010921503D092160180910F039091100376
:1050B000029709F045C080911503811141C01092FB
:1050C000100310920F0380910D0390910E03892B12
:1050D00009F00CC410922B0310922A03009146038E
:1050E0001091470320914803309149030093340302
:1050F00010933503209336033093370380912C03AC
:1051000090912D03019664E070E00E948C3390939F
:105110002D0380932C03865E9C4FFC01808190E0E0
:105120009093330380933203D0921601D0921501ED
:105130000093160310931703209318033093190359
:1051400080910F0390911003039709F0E3C39092AD
:105150000E0380920D030091130110911401013090
:10516000110541F5109214011092130167E370E0EC
:1051700088EC90E00E94BA1C6FE070E080E090E064
:105180000E94A50D67E370E088EC90E00E94BA1CD5
:105190008091560390915703019709F0ACC3109288
:1051A000570310925603109255031092540382E055
:1051B000809315032091090330910A0322303105B1
:1051C00009F0BAC310920A031092090380911503E3
:1051D00081116EC78091460390914703A0914803C7
:1051E000B09149038093340390933503A093360321
:1051F000B093370380914503811191C3D092450349
:10520000D092080310921601D8C6AC01405451093F
:1052100057FF02C04F5F5F4F559547956255710923
:1052200077FF02C06F5F7F4F7595679510E4E12EA1
:10523000F12C02E510E025E737E089EF93E00E94CA
:10524000D01582E080931B0480911604909117047E
:10525000892B09F4E8C08091FF03909100048097A6
:1052600009F0DFC08CE380931A041092D6021092EA
:10527000D50210925903109258030E946E1883EEC3
:105280009DE09093D4028093D30284EE9DE09093AE
:10529000D2028093D1028091210487FD1EC061E07B
:1052A0000E943A0D61E0809121040E940C0D61E0A2
:1052B00070E080E090E00E94A50D60E08091210404
:1052C0000E940C0D6AE070E080E090E00E94A50D65
:1052D00061E0809121040E940C0D80911604909150
:1052E0001704892B09F45EC120912E0430912F04FC
:1052F000409130045091310460E074E284EF90E01A
:105300000E94A03320513109410951095695479512
:10531000379527952093B80064E081E995E00E94D5
:10532000191A6091FF03615089EF93E00E94CE1A31
:1053300064E08DE895E00E94191A80911B0460E1F9
:10534000813009F064E189EF93E00E94CE1A64E0B5
:1053500089E895E00E94191A8FE8809336048091BD
:10536000FD039091FE038038910509F034C18091CE
:10537000FF03909100048034910509F03CC18091B5
:105380001B04813009F025C18FE98093360412E1B6
:105390006AED89EF93E00E94CE1A612F89EF93E0C6
:1053A0000E94CE1A61E889EF93E00E94CE1A6091C4
:1053B000360489EF93E00E94CE1A69ED89EF93E0FD
:1053C0000E94CE1A80911B0462E2813009F061EFE5
:1053D00089EF93E00E94CE1A66E083E895E00E9490
:1053E000191A8091160490911704892B09F407C1AA
:1053F00020913204309133044091340450913504AB
:1054000060E074E284EF90E00E94A0332051310903
:105410004109510956954795379527952093B8002E
:10542000F2C98DE320CF61E080911F040E943A0D04
:1054300061E0809120040E943A0D80911F04082EA3
:10544000000C990BFC01E75DFC4EE491F0E0EE0FDF
:10545000FF1FEB5EFC4E259134913093270420937F
:105460002604FC01E35CFC4EE491E0932C04809163
:105470002004082E000C990BFC01E75DFC4EE49122
:10548000F0E0EE0FFF1FEB5EFC4EA591B491B093E0
:105490002904A0932804FC01E35CFC4EE491E09312
:1054A0002D048C91E82BEC938091140490911504B9
:1054B000892B09F434C01FB7F8948091D002811170
:1054C00027C0E3E3F3E18491E7E4F3E19491E82F6B
:1054D000F0E0EE0FFF1FE55FFC4EA591B491EC915B
:1054E000E92321F461E08AE00E940C0D61E08AE08A
:1054F0000E943A0D8CB580618CBD8CB580648CBDEA
:1055000061E08DE00E943A0D61E08BE00E943A0D6F
:105510008091D0028F5F8093D0021FBFBCCE61E02C
:1055200080911D040E943A0D61E080911E040E944A
:105530003A0D80911D04082E000C990BFC01E75DCB
:10554000FC4EE491F0E0EE0FFF1FEB5EFC4E259168
:1055500034913093230420932204FC01E35CFC4E3D
:10556000E491E0932A0480911E04082E000C990B0C
:10557000FC01E75DFC4EE491F0E0EE0FFF1FEB5EF7
:10558000FC4EA591B491B0932504A0932404FC0192
:10559000E35CFC4EE491E0932B048C91E095E823CE
:1055A000EC9379CE8091140490911504892B31F0FD
:1055B00080913704909138040E947010E091280483
:1055C000F0912904908180912D0480958923808316
:1055D000A3CE8FECDACE8036910569F48091FF037B
:1055E00090910004409739F480911B04813029F494
:1055F00080E18093360412E0CBCE8FEAFACFE091BF
:105600002804F0912904808190912D04892B8083B6
:10561000FAC8893E9340A105B10508F4CBCA40936E
:10562000410350934203609343037093440380917A
:105630003803813059F41092380360913903709126
:105640003A0380913B0390913C03B2CAD092380355
:10565000F12CE12C07E010E020E230E049E350E0DB
:105660006FE570E089EF93E00E9433140E94301BD5
:10567000A1CA06E910E021E04BE851E061E0809129
:1056800045030E94F61E12CB89E290E00E9412159B
:1056900065E3662E712C89CB4AE00E941B1EA1CBCC
:1056A000F1E06F16710499F40BE010E0109306041A
:1056B0000093050426E330E03093080420930704A8
:1056C00021E030E049E350E065E070E0DFCB32E01C
:1056D00063167104E9F441E150E0509306044093ED
:1056E000050486E390E0909308048093070421E08A
:1056F00030E049E350E065E070E089EF93E00E941C
:10570000B90F21E030E049E350E06CE070E0C8CB35
:10571000E9E1F0E0F0930604E093050406E310E00D
:10572000109308040093070421E030E049E350E0BF
:1057300065E070E089EF93E00E94B90F21E030E06E
:1057400049E350E06CE070E089EF93E00E94B90F0C
:1057500021E030E049E350E063E170E0ABCB823020
:10576000F9F481E290E0909306048093050488E0C8
:1057700090E0909308048093070487EA91E00E94E8
:105780008C1E84E290E0909306048093050483E2EB
:1057900090E090930804809307048FEA91E063CC33
:1057A000833009F049C08AE190E090930604809329
:1057B000050485E090E0909308048093070483EB50
:1057C00091E00E948C1E86E0EEE1F1E0DE01119690
:1057D00001900D928A95E1F718861F8280913A0315
:1057E0008F93809139038F9380913C038F938091A5
:1057F0003B038F9389EB91E09F938F9341E050E0BF
:105800004C0F5D1F5F934F930E940D358CE190E02C
:10581000909306048093050483E290E0909308043B
:1058200080930704CE0101960E948C1E0FB6F89457
:10583000DEBF0FBECDBF19CC843009F016CC8CE191
:1058400090E0909306048093050485E090E09093A7
:1058500008048093070483EC91E00E948C1E86E08C
:10586000EEE1F1E0DE01119601900D928A95E1F7EB
:1058700018861F8280913A038F93809139038F930A
:1058800080913C038F9380913B038F9389EB91E050
:105890009F938F93E1E0F0E0EC0FFD1FFF93EF93F8
:1058A0000E940D35F0920D04F0920E0490920C04BB
:1058B00080920B0490920A048092090409E110E09E
:1058C0001093060400930504A7CF8091460390919E
:1058D0004703A0914803B09149038093110390932B
:1058E0001203A0931303B0931403DECB10920E03A4
:1058F00010920D0325CC1093570300935603109379
:10590000550300935403D092150310930C03009396
:105910000B0350CC90921401809213014BCC813038
:1059200009F05CC390910703923009F43CC308F07E
:1059300030C3992309F44BC38091090390910A0362
:10594000039709F0B5C380910F0190911001019761
:1059500031F51092100110920F0110924503109230
:105960000803D092160167E370E088EC90E00E9493
:10597000BA1C6FE070E080E090E00E94A50D67E344
:1059800070E088EC90E00E94BA1C80911701813091
:1059900009F08AC31092170184E080931503709078
:1059A0004503711016C029EFA22E22E0B22ECC249E
:1059B000C3943FE0E32E33E0F32E04E610E02DEF36
:1059C00032E04BE051E06DE071E080E190E00E9458
:1059D000F51CAFEEAA2EA2E0BA2EC12CB3EFEB2E2F
:1059E000B2E0FB2E08EC10E025EF32E047E051E09A
:1059F00069E071E082E090E00E94F51C87EEA82E3D
:105A000082E0B82ECC24C39499E0E92E93E0F92EDD
:105A10002BEE32E043E051E065E071E081E190E09F
:105A20000E94F51C0E94D70D1B012C0120924603F9
:105A300030924703409248035092490384E00E9409
:105A4000E30C7C0166246394892B09F4612C609239
:105A5000E6028091E502882309F476C0E114F1049E
:105A600009F072C02092340330923503409236031D
:105A70005092370383E00E94E30C892B09F01DC389
:105A80008FEF9FEF9093E4028093E3020091E30293
:105A90001091E40280910101909102010817190709
:105AA000B9F08091DF029091E002A091E102B09103
:105AB000E202A2019101281B390B4A0B5B0BDA01B0
:105AC000C9014E97A105B10508F4FCC2D0920001AE
:105AD000C090000131E0C31237C01093020100935F
