:100000000C94AE0B0C94D60B0C94D60B0C94D60B14
:100010000C94D60B0C94D60B0C94D60B0C94D60BDC
:100020000C94D60B0C94D60B0C94D60B0C94D60BCC
:100030000C94D60B0C94D60B0C94D60B0C94D60BBC
:100040000C94A21E0C94D60B0C94D60B0C94D60BCD
:100050000C94D60B0C94D60B0C94D60B0C94D60B9C
:100060000C94EC1E0C94D60B01020B152433445057
:100070005D6062636363605E5A5A5A5A01030B15EE
:1000800024333F474A4B4C4C4C4B4A49494847471D
:1000900000000000003E5B4F5B3E3E6B4F6B3E1C22
:1000A0003E7C3E1C183C7E3C181C577D571C1C5E39
:1000B0007F5E1C00183C1800FFE7C3E7FF00182410
:1000C0001800FFE7DBE7FF30483A060E26297929BA
:1000D00026407F050507407F05253F5A3CE73C5AEF
:1000E0007F3E1C1C08081C1C3E7F14227F22145FCC
:1000F0005F005F5F06097F017F006689956A606027
:1001000060606094A2FFA29408047E040810207E20
:10011000201008082A1C08081C2A08081E101010A5
:10012000100C1E0C1E0C30383E3830060E3E0E06EB
:10013000000000000000005F00000007000700143E
:100140007F147F14242A7F2A1223130864623649FD
:100150005620500008070300001C224100004122E5
:100160001C002A1C7F1C2A08083E080800807030EA
:100170000008080808080000606000201008040259
:100180003E5149453E00427F40007249494946215F
:1001900041494D331814127F1027454545393C4AD3
:1001A00049493141211109073649494936464949EA
:1001B000291E000014000000403400000008142232
:1001C00041141414141400412214080201590906A0
:1001D0003E415D594E7C1211127C7F494949363EA1
:1001E000414141227F4141413E7F494949417F0987
:1001F0000909013E414151737F0808087F00417F92
:1002000041002040413F017F081422417F4040408F
:10021000407F021C027F7F0408107F3E4141413E27
:100220007F090909063E4151215E7F0919294626A9
:100230004949493203017F01033F4040403F1F20AD
:1002400040201F3F4038403F631408146303047884
:1002500004036159494D43007F41414102040810A4
:1002600020004141417F04020102044040404040DF
:10027000000307080020545478407F28444438384D
:1002800044444428384444287F38545454180008BF
:100290007E090218A4A49C787F0804047800447D99
:1002A00040002040403D007F1028440000417F4036
:1002B000007C047804787C0804047838444444388A
:1002C000FC1824241818242418FC7C08040408486A
:1002D0005454542404043F44243C4040207C1C20BB
:1002E00040201C3C4030403C44281028444C909016
:1002F000907C4464544C4400083641000000770070
:1003000000004136080002010204023C2623263C7C
:100310001EA1A161123A4040207A38545455592107
:1003200055557941225454784221555478402054EF
:100330005579400C1E52721239555555593954543D
:10034000545939555454580000457C410002457DAC
:10035000420001457C407D1211127DF0282528F0D5
:100360007C545545002054547C547C0A097F493202
:10037000494949323A4444443A324A4848303A4179
:1003800041217A3A42402078009DA0A07D3D424222
:10039000423D3D4040403D3C24FF2424487E4943AB
:1003A000662B2FFC2F2BFF0929F620C0887E09031E
:1003B00020545479410000447D413048484A323845
:1003C0004040227A007A0A0A727D0D19317D262971
:1003D000292F28262929292630484D402038080869
:1003E000080808080808382F10C8ACBA2F1028349D
:1003F000FA00007B000008142A142222142A140890
:100400005500550055AA55AA55AAFF55FF55FF009E
:100410000000FF00101010FF00141414FF00101053
:10042000FF00FF1010F010F0141414FC001414F767
:1004300000FF0000FF00FF1414F404FC1414171054
:100440001F10101F101F1414141F00101010F000A4
:100450000000001F101010101F10101010F01000DE
:100460000000FF101010101010101010FF100000EE
:1004700000FF140000FF00FF00001F10170000FC29
:1004800004F414141710171414F404F40000FF00FB
:10049000F714141414141414F700F7141414171484
:1004A00010101F101F141414F4141010F010F0008A
:1004B000001F101F0000001F14000000FC140000AB
:1004C000F010F01010FF10FF141414FF141010108F
:1004D0001F00000000F010FFFFFFFFFFF0F0F0F042
:1004E000F0FFFFFF0000000000FFFF0F0F0F0F0FD6
:1004F0003844443844FC4A4A4A347E020206060222
:100500007E027E0263554941633844443C04407E88
:10051000201E2006027E020299A5E7A5991C2A4901
:100520002A1C4C7201724C304A4D4D30304878488C
:1005300030BC625A463D3E494949007E0101017E78
:100540002A2A2A2A2A44445F444440514A444040CB
:10055000444A51400000FF0103E080FF000008080A
:100560006B6B083612362436060F090F060000188A
:10057000180000001010003040FF0101001F0101B1
:100580001E00191D1712003C3C3C3C0000000000FE
:10059000000103070F1F3F7F0080C0E0F0F8FCFE62
:1005A00000000000230026002900000000080002CF
:1005B000010000030407000000000000000000002C
:1005C0000000240027002A00DB40A4A62EAF200054
:1005D000A1C8D300408DAED580A801020408102028
:1005E00040800102040810200102040810200000CD
:1005F0000000250028002B00040404040404040463
:10060000020202020202030303030303000060006C
:1006100000000000000000000000000000E00000FA
:10062000000000000000000000000001E0000000E9
:100630000000000000000000000001F000000000C9
:1006400000000000000000000003F00000000000B7
:10065000000000000000000007F0000000000000A3
:100660000000000000000007F8000000000000008B
:100670000000000000000FF800000003C0007E0032
:100680000001E0007F0FF800000003C000FE000042
:1006900001E000FFEFF800000003C000FE000001D1
:1006A000E000FFFFF800000003C000F00000000FB2
:1006B000007FFE7FC0000003C000F00000000F00BC
:1006C0003FFE7FF83FF1FBCFFCFEF3BC3DEFE01FA8
:1006D000FE7FFF7FFBFFDFFEFEFFBC3DEFE01FC69E
:1006E000FFFF7FFBFFDFFEFEFFBC3DEFE00FE3C738
:1006F000FE787BC3DE1EF0FFBC3DEF0007FF87FCEA
:10070000787BC3DE1EF0F83C3DEF0001FFFFF000F8
:100710007BC3C01EF0F03C3DEF0001F37FE03FFBE8
:10072000C3CFFEF0F03C3DEF0003E33F807FFBC30F
:10073000DFFEF0F03C3DEF0007E73C00787BC3DED6
:100740001EF0F03C3DEF0007FFBE00787BC3DE1ECD
:10075000F0F03C3DEF0007FFFE00787BC3DE1EF0AB
:10076000F03C3DEF000FFFFE007FFBFFDFFEF0F0EF
:100770003FFDEFE00FFFFF007FFBFFDFFEF0F03FEC
:10078000FDEFE00FF9FF003E79F9CF9EF0F01F3D3D
:10079000E7E01FF1FF000000000000000000000083
:1007A000001F80FF007FFFFFFFFFFFFFFFFFFFE055
:1007B0001C007F007FFFFFFFFEB46D888D18E000F6
:1007C000001F007FFFFFFFFE95AD7DB577E00000C5
:1007D0000F007FFFFFFFFEA5AD9D8D19E000000615
:1007E000007FFFFFFFFEB5ADEDB57EE0000000002D
:1007F00000018000000000000000000003800000F5
:100800000000000000000007C00000000000000021
:10081000000007C00000000000000000000FC00042
:1008200000000000000000001FE0000000000000C9
:100830000000001FE00000000000000000003FE09A
:100840000000000000000000003FF0000000000079
:10085000000000007FF0000000000000001FF87F93
:10086000F0000000000000003FFE7FF000000000EC
:100870000000003FFF7FF0000000000000001FFFAD
:10088000FBE0000000000000000FFFF9FFC00000C7
:10089000000000000FFFF9FFF80000000000000753
:1008A000FFF1FFFF00000000000003FC73FFFF806A
:1008B000000000000001FE3FFFFF8000000000007C
:1008C00000FF1E0FFF000000000000007FFE1FFC65
:1008D000000000000000003FFFFFF80000000000E3
:1008E00000000FDFFFE0000000000000001F19FF04
:1008F000C0000000000000003F3CFF0000000000BE
:100900000000007E7CF800000000000000007FFE78
:100910007C0000000000000000FFFFFC0000000061
:1009200000000000FFFFFE0000000000000000FFCC
:10093000FFFE0000000000000001FFEFFE000000CD
:100940000000000001FFCFFE0000000000000003D7
:10095000FF07FE0000000000000003FC07FE00008F
:10096000000000000003F003FE0000000000000093
:10097000018000FE000000000000000000007E007A
:100980000000000000000000003E00000000000029
:10099000000000000C000000000000078000FC00C8
:1009A0000003C0000000078001FC000003C000003D
:1009B00000078001FC000003C0000000078001E088
:1009C0000000001E000000078001E00000001E0083
:1009D0007FE3F79FF9FDE7787BDFC0FFF7FFBFFDFF
:1009E000FDFF787BDFC0FFF7FFBFFDFDFF787BDFFA
:1009F000C0F0F787BC3DE1FF787BDE00F0F787BCF5
:100A00003DE1F0787BDE0000F787803DE1E0787B18
:100A1000DE007FF7879FFDE1E0787BDE00FFF78750
:100A2000BFFDE1E0787BDE00F0F787BC3DE1E078D8
:100A30007BDE00F0F787BC3DE1E0787BDE00F0F77D
:100A400087BC3DE1E0787BDE00FFF7FFBFFDE1E022
:100A50007FFBDFC0FFF7FFBFFDE1E07FFBDFC07C76
:100A6000F3F39F3DE1E03E7BCFC0000000000000BB
:100A70000000000000FFFFFFFFFFFFFFFFFFFFC0C0
:100A8000FFFFFFFFFD68DB111A31C0FFFFFFFFFD15
:100A90002B5AFB6AEFC0FFFFFFFFFD4B5B3B1A3396
:100AA000C0FFFFFFFFFD6B5BDB6AFDC0E006300CA3
:100AB0003F00FC00E006300C7181FE00E00E300CBF
:100AC00060C30300E00E300CC0620300A00A300CCB
:100AD000C0620100B00A300CC0660180B00A300C60
:100AE000C0660180901A300CC00601809012300C54
:100AF000C00601809812300C600601809832300CDC
:100B0000700601809832300C180601808832300C53
:100B10000E0601808C22300C070601808C62300C9E
:100B2000038601808C62300C00C601808462300C28
:100B300000C601808442300C006601808642300C81
:100B4000C066018086C2300CC066018082C2301C43
:100B5000C06601008282301CC062010083821818C6
:100B6000C0C3030083821C3061C1FE0083820FE09A
:100B70003F80FC00000000000000000000000000BA
:100B800000000000000000000000000007FE0F84CD
:100B900002201000002010840220100000202044B9
:100BA00004201000002020440820100000204024D1
:100BB00000201000002040241020100000204024BD
:100BC000202010000020402420201000002040247D
:100BD00040201000002040248020100000204024ED
:100BE000802010000020402580201000002040269A
:100BF000C02010000020402640201000002040248B
:100C0000202010000020402410201000002040244C
:100C10001020100000204024082010000020204454
:100C20000830300000202044041020000020204420
:100C30000210200000201F84020FC00000000001ED
:100C4000C0000000000000000000000000000003E1
:100C5000E000003FFCF00000000000000000000386
:100C6000F000003FFCF00000000000000000000366
:100C7000F800003FFC000000000000000000000140
:100C8000FC000003C0F3DE700F83DC0000000000F6
:100C9000FE000003C0F3FFF83FE3FC00000000008B
:100CA0007F000003C0F3FFFC3FE3F80000000000FA
:100CB0003F800003C0F3CF3C78F3E00000007F806A
:100CC0001FC00003C0F3CF3C7FF3C0000003FFF060
:100CD0001FE00003C0F3CF3C7FF3C000000FFFFC18
:100CE0003FF00003C0F3CF3C7803C000003FFFFF9C
:100CF0007FF80003C0F3CF3C7CF3C000007FFFFF10
:100D0000FFFC0003C0F3CF3C3FE3C00000FF847F43
:100D1000FCFE0003C0F3CF3C3FE3C00003FE041F12
:100D2000F87F0003C0F3CF3C0F83C00003F8040733
:100D3000F83F0000000000000000000007F0000184
:100D4000F81F000000000000000000000FC00000BD
:100D5000FC0E000000000000000000001FC00000AA
:100D60007E00000000000000000000001FA0000046
:100D7000FE00000000000000000000003F10000125
:100D80003F00000000000000000000003E080000DE
:100D90001F00000000000000000000007E040000B2
:100DA0001F80000000000000000000007C00000028
:100DB0000F80000000000000000000007C00000028
:100DC0000F80000000000000000000007C00000018
:100DD0000F8000000000000000000000FC00000088
:100DE00007C000000000000000000000F800000044
:100DF00007C000000000000000000000F8003C00F8
:100E000027C000000000000000000000F8003C00C7
:100E100037C000000000000000000000FF003FFF9E
:100E2000FFE000000000000000000000F8003C00AF
:100E300037C000000000000000000000F8003C0087
:100E400027C000000000000000000000F8000000C3
:100E500007C000000000000000000000F8000000D3
:100E600007C0000000000000000000007C0000003F
:100E70000F80000000000000000000007C00000067
:100E80000F80000000000000000000007C00000057
:100E90000F80000000000000000000007E00000045
:100EA0001F80000000000000000000003E00000263
:100EB0001F00000000000000000000003F080001CB
:100EC0003F00000000000000000000001F90000034
:100ED000FE00000000000000000000001FA0000055
:100EE0007E00000000000000000000000FC00000B5
:100EF000FC003000000000000000000007F00001CE
:100F0000F800380001FFF0000000000007F80407B7
:100F1000F8003E0001FFF0000000000003FE041F87
:100F2000F0003F0001FFF000E007038001FF847F35
:100F3000E0003FC001FFF001F00F87C0007FFFFF1E
:100F4000C0003FE001FFF003B81DCEE0003FFFFF0F
:100F500000003FF001FFF003BB9DCEE0000FFFFE5D
:100F600000003FF801FFF003BB9DCEE00003FFF857
:100F700000003FFC01FFF003BB9DCEE00000FFC07E
:100F800000003FFC01FFF003B81DCEE000000000B0
:100F900000003FF801FFF003BB9DCEE00000000021
:100FA00000003FF001FFF001F38F87C00000000058
:100FB00000003FE001FFF001F38F87C00000000058
:100FC00000003F8001FFF000E00703800000000008
:100FD00000003F0001FFF0000000000000000000E2
:100FE00000003E00000000000000000000000000C3
:100FF00000003800000000000000000001FFC000F9
:101000000000000000000000000001FFC000000020
:10101000000000000000000001FFC0000000000010
:1010200000000000000001FFC00000000000000000
:101030000000000001FFC0000000000000000000F0
:10104000000001FFC00000000000000000000000E0
:101050007FFFFF00000000000000000000007FFF95
:10106000FF00000000000000000000007FFFFF0004
:10107000000F00000000000000007FFFFF00001FC5
:1010800000000000000000007FFFFF00003F0000A4
:101090000000000000007C001F00007E0000000037
:1010A000000000007C001F0000FC000000000000A9
:1010B00000007C001F0001F800E038F0C0000000D4
:1010C0007C001F0003F000F038F3C00000007C003B
:1010D0001F0007E000F83803C00000007C001F007C
:1010E0000FE000F838F7F3DC7C007C001F001FC025
:1010F00000FC38F7F3FCFF007C001F003F8000FE7F
:1011000038F7F3F9FF007C001F007F0000FF38F381
:10111000C3E3EF807C001F00FFFF00F738F3C3C379
:10112000C7807C001F01FFFF00F3B8F3C3C3C78073
:101130007C001F01FFFF00F1F8F3C3C3C7807C00F0
:101140001F01FFFE00F0F8F3C3C3EF807C001F0017
:10115000FFFC00F0F8F3F3C1FF007C001F0001FC6E
:1011600000F078F3F3C0FE007C001F0003F800F0ED
:1011700038F1F3C07C007C001F0003F00000000089
:10118000000000007C001F0007E0000000000000DD
:1011900000007C001F000FC00000000000000000E5
:1011A0007C001F001FC000000000000000007C0049
:1011B0001F023F8000000000000000007C001F03B1
:1011C0007F0000000000000000007C001F03FE0004
:1011D00000000000000000007C001F03FC00000075
:1011E0000000000000007C001F03FC000000000065
:1011F000000000007C001F03F80000000000000059
:1012000000007FFFFF03F800000000000000000066
:101210007FFFFF03FC0000000000000000007FFFD4
:10122000FF03FE0000000000000000007FFFFF0041
:10123000000000000000000000007FFFFF00000031
:1012400000000000000000001415161718191A1BE2
:101250001C1D1E1F202122232425262728292A2B56
:101260002C2D2E2F303132333435363738393A3B46
:101270003C3D3E3F404142434445464748494A4B36
:101280004C4D4E4F505152535455565758595A5B26
:101290005C5D5E5F606162636465666768696A6B16
:1012A0006C6D6E6F707172737475767778797A7B06
:1012B0007C7D7E7F808182838485868788898A8BF6
:1012C0008C8D8E8F909192939495969798999A9BE6
:1012D0009C9D9E9FA0C8A8681898D838780484C49C
:1012E000A4E4945434B4F48CCCACEC1C5CDCBC7C36
:1012F0000282C22262E2925232B2F20A4ACAAA6A56
:101300001A9ADA3A7AFA864626A6E61656D6B676B5
:101310000E8ECE2E6EEE9E5E3EBEFE8141C1A1615E
:101320001191D13171F1894929A9E91959D9B979AD
:101330000585C52565E5955535B5F50D4DCDAD6DE5
:101340001D9DDD3D7DFD834323A3E3139353D333E1
:10135000B373F38B4BCB2BAB6BEB9B5BDB7BFB0759
:1013600087C700007FFFFFFFC000000000000000F3
:1013700000000000FFFFFFFFE00000000000000091
:1013800000000001FFFFFFFFF0000000F8633E7C5B
:1013900000000001FFFFFFFFF0000001FC633E7E44
:1013A00000000003FFFFFFFFF80000038E633066BC
:1013B00000000003E0000000F800000306363E666F
:1013C00000000007E0000000FC00000306363E7E3F
:1013D00000000007C00000007E0000030636307CDD
:1013E0000000000FC00000007E0000038E1C306C67
:1013F0000000001F800000003F000001FC1C3E6652
:101400000000001F800000003F000000F81C3E6646
:101410000000003F000000001F80000000000000EE
:101420000000003F000000000F80000000000000EE
:101430000000007E000000000FC00000000000005F
:101440000000007C0000000007C003C333E3E3E6B4
:101450001BF000FC0000000007E007F333F3F3E7A4
:101460001BF000F80000000003E00E2333333307C5
:1014700098C001F80000000003F00C03333333E799
:1014800098C001F00000000001F00C0333F3F3E614
:10149000D8C003F00000000001F80C0333E3E306BA
:1014A00078C003E0F0FF8703F0F80E233363630690
:1014B00078C007E0F8FF9F83F8FC07F3F33333E6C7
:1014C00038C007C3FCFFBFC3F87E03C1E33333E674
:1014D00018C00FC39E1839C39C7E00000000000096
:1014E00000001F839E1879E39C3F0000000000006D
:1014F00000001F839E1879E39C3F0000000000005D
:1015000000003F03801879E39C1F8000000000006A
:1015100000003F03801879E39C0F8000000000006A
:1015200000007E01801879E39C0FC00000070000D6
:1015300000007C01F01879E3FC07C000000F800078
:101540000000FC00FC1879E3F807E000000F8000C1
:101550000000F800FC1879E3F003E000000F8000C1
:101560000000FC001E1879E38007E000000F8000F7
:1015700000007C001E1879E38007C000000F800087
:1015800000007E001E1879E3800FC000000F80006D
:1015900000003E031E1879E3800F8000000F8000DA
:1015A00000003F031E1839E3801F8000000F8000F9
:1015B00000001F839E183DC3801F0000000F8000A5
:1015C00000001F81FC183FC3803F0000000F800017
:1015D00000000FC0FC181F83807E0000000F8000F9
:1015E00000000FC000000000007E0000000F80001F
:1015F000000007E00000000000FC0000000F800079
:10160000000003E00000000000FC0000000F80006C
:10161000000003F00000000001F80000000F80004F
:10162000000001F00000000001F00000000F800049
:10163000000001F80000000003F00000000F80002F
:10164000000000F80000000003E00000000F800030
:10165000000000FC0000000007E00000000F800018
:101660000000007C0000000007C00000000F8000A8
:101670000000007E000000000FC00000000F80008E
:101680000000003F000000000F8000000007000085
:101690000000003F000000001F800000000000006C
:1016A0000000001F800000003F000000000000005C
:1016B0000000001F800000003F000000000000004C
:1016C0000000000FC00000007E00000000070000C6
:1016D00000000007C00000007E000000000F800036
:1016E00000000007E0000000FC000000001FC00038
:1016F00000000003E0000000F8000000001FC00030
:1017000000000003FFFFFFFFF8000000000F800053
:1017100000000001FFFFFFFFF000000000070000D5
:1017200000000001FFFFFFFFF000000000000000CC
:1017300000000000FFFFFFFFE000000000000000CD
:10174000000000007FFFFFFFC0000000000000005D
:1017500000002200FF210000ED21833111241FBE73
:10176000CFEFD8E0DEBFCDBF11E0A0E0B1E0EEE703
:10177000FEE602C005900D92A83DB107D9F723E01F
:10178000A8EDB1E001C01D92AE35B207E1F71BE054
:10179000CDEADBE004C02197FE010E942333CC3A5E
:1017A000D107C9F70E9427220C9432370C9400000D
:1017B000089508950895AF92BF92CF92DF92EF926D
:1017C000FF920F931F93CF93DF936C017B018B01EB
:1017D000040F151FEB015E01AE18BF08C017D1073B
:1017E00059F06991D601ED91FC910190F081E02DC5
:1017F000C6010995892B79F7C501DF91CF911F911A
:101800000F91FF90EF90DF90CF90BF90AF90089531
:10181000833081F028F4813099F08230A9F0089566
:101820008730A9F08830C9F08430B1F4809180000D
:101830008F7D03C0809180008F7780938000089512
:1018400084B58F7784BD089584B58F7DFBCF80915B
:10185000B0008F778093B00008958091B0008F7DA5
:10186000F9CFCF93DF93282F30E0F901E655FA4FF7
:101870008491F901E652FA4FD491F901E850FA4FF8
:10188000C491CC23A1F081110E94080CEC2FF0E050
:10189000EE0FFF1FE056FA4FA591B491EC91ED23A6
:1018A00081E090E009F480E0DF91CF91089580E03D
:1018B00090E0FACF1F93CF93DF93282F30E0F90108
:1018C000E655FA4F8491F901E652FA4FD491F901A5
:1018D000E850FA4FC491CC23A9F0162F81110E9431
:1018E000080CEC2FF0E0EE0FFF1FE251FA4FA5912C
:1018F000B4918FB7F894EC91111108C0D095DE2304
:10190000DC938FBFDF91CF911F910895DE2BF8CF2D
:10191000CF93DF9390E0FC01E652FA4F2491885078
:101920009A4FFC0184918823D1F090E0880F991F91
:10193000FC01E254FA4FA591B491FC01E251FA4F37
:10194000C591D49161110EC09FB7F8948C91E22F8C
:10195000E0958E238C932881E223E8839FBFDF915B
:10196000CF9108958FB7F894EC91E22BEC938FBF51
:10197000F6CF8E3008F08E508770806480937C00A4
:1019800080917A00806480937A0080917A0086FD4D
:10199000FCCF809178009091790008953FB7F8943A
:1019A00080918D0290918E02A0918F02B091900251
:1019B00026B5A89B05C02F3F19F00196A11DB11DAA
:1019C0003FBFBA2FA92F982F8827BC01CD01620FE6
:1019D000711D811D911D42E0660F771F881F991FA1
:1019E0004A95D1F708958F929F92AF92BF92CF926E
:1019F000DF92EF92FF926B017C010E94CE0C4B01B3
:101A00005C01C114D104E104F104B9F00E94CE0CD0
:101A1000681979098A099B09683E73408105910517
:101A200080F321E0C21AD108E108F10888EE880E9F
:101A300083E0981EA11CB11CE4CFFF90EF90DF90D3
:101A4000CF90BF90AF909F908F9008952FB7F8944C
:101A50006091890270918A0280918B0290918C0230
:101A60002FBF0895EF92FF920F931F93CF93DF93B1
:101A7000EC01EC80FD806E157F050CF070C057FF07
:101A800004C0240F351F50E040E08E819F81FA0191
:101A9000E20FF31F8E179F071CF49C01241B350BCC
:101AA000121613060CF05BC0922F842F8695869534
:101AB00086958E9DD0018F9DB00D11246A0F7B1FDE
:101AC000AF8DB8A1A60FB71F477049F188E0841BFE
:101AD000482F682F70E0FB01E856FA4FE491281771
:101AE00008F063C0621B71092FEF30E002C035952A
:101AF00027956A95E2F7E2230130110539F0B0F13C
:101B00000230110561F58C91E82702C08C91E82B19
:101B1000EC93941720F12C813D81A20FB31FE92F84
:101B2000E41BE83078F00230110521F58E2F9C91EE
:101B300090959C932C813D81A20FB31F88508830D3
:101B4000B0F7E770EE2359F0F0E0E057FA4FE49178
:101B500001301105F9F010F10230110519F1DF9192
:101B6000CF911F910F91FF90EF900895E0958C9188
:101B7000E823CECF81E00115110509F480E08195BD
:101B80009E2F8C932C813D81A20FB31F98509830CB
:101B9000C0F7D7CF8C91E82BEC93E1CFE0958C91F7
:101BA000E823FACF8C91E827F7CF0130110509F42B
:101BB000ADCFE0F20230110509F4A5CFAE0DBF1D87
:101BC000AECF0F931F93CF93DF9377FF04C0260F01
:101BD000371F70E060E0DC011496CD91DC91FB01D1
:101BE000E20FF31FCE17DF071CF49E01261B370BF5
:101BF000121613064CF5FA0157FD3796A3E0F5953A
:101C0000E795AA95E1F7EC9FD001ED9FB00DFC9F01
:101C1000B00D11246A0F7B1FDC015F96ED91FC91E2
:101C2000E60FF71F4770552781E090E001C0880F4D
:101C30004A95EAF7482F0130110559F0A8F02E0F08
:101C40003F1F02301105E1F0DF91CF911F910F91FD
:101C500008952E0F3F1FE217F307B1F38191DF01C3
:101C60001197842B8C93F7CF80952E0F3F1FE2178F
:101C7000F30751F39191DF01119798239C93F7CFCC
:101C8000E217F30709F38191DF01119784278C9301
:101C9000F7CF0F931F93FA01DC0156964C9156979C
:101CA0004230E9F04330A1F1413061F514964D9195
:101CB0005C91DA01AE1BBF0BFD01E21BF30B77FD5C
:101CC0000BC0DC0116964D915C916417750724F4E6
:101CD000AB01BF010E94E10D1F910F910895149671
:101CE0004D915C91DA01A61BB70BBD0161507109E2
:101CF000DC0116964D915C91DA01AE1BBF0BFD0124
:101D0000E21BF30B77FDE8CFAF010E94320DE4CF69
:101D100016964D915C91DA01A61BB70BBD0161507F
:101D20007109CDCF0F931F93FA01DC0156964C91A8
:101D300056974230A9F0433091F1413019F514968D
:101D40004D915C91DA01AE1BBF0BFD013197F7FDA0
:101D500004C0AB01BF010E94320D1F910F91089585
:101D600014964D915C91DA01A61BB70BBD01DC0105
:101D700016964D915C91DA01AE1BBF0BFD013197B8
:101D8000621B730BF7FDE9CFDC0116964D915C9158
:101D9000E417F50714F7AF010E94E10DDECF1696A8
:101DA0004D915C91DA01A61BB70BBD01621B730B51
:101DB000CECFFC0177FD64C08085918568177907D7
:101DC0000CF05EC057FD5CC08285938548175907AB
:101DD0000CF056C086898230B1F0833029F1813011
:101DE00041F484819581841B950BAB01BC0161504A
:101DF00071092130310509F108F443C02230310561
:101E000009F463C0089584819581DC01A61BB70B9A
:101E1000BD016150710986819781DC01A41BB50B5E
:101E2000AD0141505109E5CF86819781861B970B03
:101E3000BA01AC0141505109DCCFCA0157FD0796E8
:101E4000A3E095958795AA95E1F7A481B5818A9F2E
:101E500090018B9F300D9A9F300D1124620F731FDC
:101E6000078CF0A1E02DE60FF71F4770552721E002
:101E700030E001C0220F4A95EAF78081822B8083EF
:101E80000895CA0157FD079633E0959587953A95D1
:101E9000E1F7A481B5818A9F90018B9F300D9A9FB5
:101EA000300D1124620F731F078CF0A1E02DE60F97
:101EB000F71F4770552781E090E001C0880F4A95D1
:101EC000EAF7809590818923DACFCA0157FD0796FA
:101ED00023E0959587952A95E1F7A481B5818A9F9E
:101EE00090018B9F300D9A9F300D1124620F731F4C
:101EF000078CF0A1E02DE60FF71F4770552721E072
:101F000030E001C0220F4A95EAF780818227B7CFDF
:101F100008958EBD00000DB407FEFDCF8EB5089567
:101F20008CBD9DBD08950895FC016370668B84810E
:101F3000958126813781613039F0633029F09187AE
:101F40008087338722870895318720879387828708
:101F500008952F923F924F925F926F927F928F924D
:101F60009F92AF92BF92CF92DF92EF92FF920F9328
:101F70001F93CF93DF93CDB7DEB76A970FB6F89470
:101F8000DEBF0FBECDBF9A8F898F7A8369834A01E6
:101F9000D22E18870F833701BC2CDC0159962D9166
:101FA0003C915A972115310509F015C118968D916C
:101FB0009C911997681779070CF0D7C11A968D91E3
:101FC0009C91481759070CF0D0C14C2C512CB6E00D
:101FD000CB9E600D711D11247C876B87161617062A
:101FE0000CF0C3C1EA2DF0E0FA87E98793E0EE0F29
:101FF000FF1F9A95E1F7F88BEF87CF01840F951FAC
:10200000181619060CF0B1C1A98DBA8D58968C918D
:10201000811104C0BFEABD1508F4D394A98DBA8D0F
:10202000ED91FC9111970284F385E02DCD01099586
:10203000B5E0DB9EC0011124E981FA81FC83EB83CA
:10204000312C212C9C0120573F4F388F2F8B4A2D4C
:1020500050E05E8B4D8BEF89F88DE20DF31D4491BE
:102060009E828D82D12CC12C69817A81620D731D73
:102070007A8B698B842F90E09C8B8B8BE98DFA8D0A
:10208000A081B18140FF82C0F1E0BF126FC0AF12EA
:102090006DC01C96ED91FC912F813885A4014C0DEB
:1020A0005D1D69897A89898D9A8D0995EB89FC89ED
:1020B000F595E7954E2F5FEFC51AD50A6D817E81A4
:1020C0008D899E89680F791F7E836D8398E0C9167C
:1020D000D10481F6AFEF2A1A3A0AEB81FC81E40DB4
:1020E000F51DFC83EB83F5E02F16310409F0B3CF27
:1020F0002F81388526153705B9F0A98DBA8DED9158
:10210000FC91B1E0BB1257C0AB1255C069817A8116
:102110006B5F7F4F0088F189E02D830128E030E07C
:10212000A401898D9A8D0995A98DBA8DED91FC91A7
:1021300011970688F789E02DCD016A960FB6F894BD
:10214000DEBF0FBECDBFDF91CF911F910F91FF90EA
:10215000EF90DF90CF90BF90AF909F908F907F9047
:102160006F905F904F903F902F9009941E96ED9145
:10217000FC91EF80F88409851A8592014D815E817A
:102180006B817C81898D9A8D099590CF2F813885BF
:102190002615370509F48ACF31E0B31207C0A31220
:1021A00005C01C96ED91FC91930178CF1E96ED91A0
:1021B000FC917301E0CF6B857C85641975090684F9
:1021C000F785E02D73010F8518899201A401898D8F
:1021D0009A8D0995A9CFF90134969491329745913A
:1021E0005491D91AB7E0DB9E400D511D1124F9011D
:1021F000259134913C8B2B8BFA0125903490FA0178
:102200003296749031963491398B3296649031962F
:10221000449041E04C1518F04A1508F07FC0662D37
:10222000062C000C770B7C836B83842D042C000C14
:10223000990B9E838D83A98DBA8DED91FC91119799
:102240000284F385E02DCD010995512CD12CC12CB0
:10225000EA2DF0E0FA87E9872B2D30E03C872B87C9
:10226000A401440D511D47FC5A95588F4F8B69812D
:102270007A81660D711D67FC7A957E876D877989F5
:10228000C71608F051CF2C2D30E04D815E81420FF2
:10229000531FA985BA854A9FC0014B9F900D5A9F35
:1022A000900D1124FC01E80DF91DF88BEF87852DA9
:1022B000612C4F89588D420F531F5E8B4D8B6714D5
:1022C00008F050C044244394480E877041F4C10183
:1022D0000196EB89FC89E20DF31DD4901C01D7FE19
:1022E00019C0A98DBA8DED91FC91662D70E0B1E019
:1022F000BB1219C0AB1217C02D853E85620F731F2C
:102300000484F585E02D2F8138854D895E89898D7E
:102310009A8D0995DD0C6394842DD1CF1E821D8288
:102320001C821B8288CF4B815C81640F751FAB853B
:10233000BC856A9FC0016B9F900D7A9F900D112400
:1023400069817A81680F791F0684F785E02DEF8017
:10235000F88409851A859D014F855889898D9A8D44
:102360000995D8CF570CC3948ACF6A960FB6F894C4
:10237000DEBF0FBECDBFDF91CF911F910F91FF90B8
:10238000EF90DF90CF90BF90AF909F908F907F9015
:102390006F905F904F903F902F9008958F929F92F3
:1023A000AF92CF92EF92FF920F931F93CF93DF9351
:1023B000EC01262F898D9A8D0097B1F56A30D1F402
:1023C0001D861C868D8998E0899F900111248E8539
:1023D0009F85820F931F9F878E8781E090E0DF911A
:1023E000CF911F910F91FF90EF90CF90AF909F9062
:1023F0008F9008956D3089F3EA88FB8808891989E0
:102400004E855F856C857D85AD88CC88CE010E9428
:10241000A90F2C898C859D8536E0239F800D911D09
:1024200011249D878C87D9CF6A3069F41D861C865C
:10243000FC013896E4912D898E859F85E29F800D61
:10244000911D1124C8CF6D3041F2FC0134963491B6
:10245000631708F4C2CF3296E491E61708F4BDCFB3
:10246000FC01329685909490862F831B97E0899F7C
:10247000800C911C1124F401329684913196E491E0
:10248000882391F0EE2381F0F4013596E491EA88F7
:10249000FB88088919894E855F856C857D85AD88A7
:1024A000CC88CE010E94A90FF4013496E4912C89C6
:1024B0008C859D85E29F800D911D1124B2CF6F9276
:1024C0007F928F929F92AF92BF92CF92DF92EF92C4
:1024D000FF920F931F93CF93DF93EC016B015A018F
:1024E00039014801E881F9810284F385E02D0995DD
:1024F000E881F9810288F389E02D87019301A50124
:10250000B601CE010995A501480D591D415051094B
:10251000E881F9810288F389E02D9301B601CE01AB
:102520000995E881F9810088F189E02D9401A501E0
:10253000B601CE010995C60CD71CB60161507109D0
:10254000E881F9810088F189E02D9401A501CE018F
:102550000995E881F9810688F789E02DCE01DF91A0
:10256000CF911F910F91FF90EF90DF90CF90BF9090
:10257000AF909F908F907F906F9009946F927F9211
:102580008F929F92AF92BF92CF92DF92EF92FF9283
:102590000F931F93CF93DF935C01EB016A01490115
:1025A00038018701DC01ED91FC916217730719F581
:1025B000641675062CF0962D872D3A01C92ED82E5B
:1025C0009601261937092F5F3F4F048CF58DE02DBA
:1025D000A301BE01C5010995DF91CF911F910F9114
:1025E000FF90EF90DF90CF90BF90AF909F908F9033
:1025F0007F906F9008954615570591F42617370779
:1026000024F0892D4B01C22FD82F9E01281939099A
:102610002F5F3F4F068CF78DE02DA601B401DACF76
:102620000284F385E02D0995D501ED91FC91048894
:10263000F589E02D83019401A601BE01C50109952C
:10264000D501ED91FC910688F789E02DC501DF9158
:10265000CF911F910F91FF90EF90DF90CF90BF909F
:10266000AF909F908F907F906F900994EF92FF9220
:102670000F931F93DC011A960D911C911B971896CE
:102680002D913C911997ED91FC9100A0F1A1E02DC5
:102690007B0150E040E070E060E009951F910F91F0
:1026A000FF90EF9008954F925F926F927F928F927A
:1026B0009F92AF92BF92CF92DF92EF92FF920F93D1
:1026C0001F93CF93DF936C012B015A01390148010D
:1026D000DC01ED91FC910284F385E02D0995E20186
:1026E000640C751CD601ED91FC91C615D7055CF400
:1026F0000088F189E02D87019401A501BE01C60182
:1027000009952196EFCF0688F789E02DC601DF9164
:10271000CF911F910F91FF90EF90DF90CF90BF90DE
:10272000AF909F908F907F906F905F904F900994A3
:102730008F929F92AF92BF92CF92DF92EF92FF92D1
:102740000F931F93CF93DF93EC015B014A01690163
:10275000E881F9810284F385E02D099595012C0D1E
:102760003D1D21503109E881F9810488F589E02D6A
:1027700078018401A401B501CE010995E881F981B0
:102780000688F789E02DCE01DF91CF911F910F913F
:10279000FF90EF90DF90CF90BF90AF909F908F9081
:1027A00009948F929F92AF92BF92CF92DF92EF9255
:1027B000FF920F931F93CF93DF93EC015B014A01CC
:1027C00069017801E881F9810284F385E02D09959A
:1027D000C80CD91C860101501109E881F9810488CF
:1027E000F589E02D9501A401B501CE010995E88197
:1027F000F9810688F789E02DCE01DF91CF911F91F5
:102800000F91FF90EF90DF90CF90BF90AF909F908F
:102810008F900994EF92FF920F931F93DC01ED913B
:10282000FC9100A0F1A1E02D09951F910F91FF905F
:10283000EF9008950F931F93DC01ED91FC91068CAE
:10284000F78DE02D09951F910F9108950F931F9318
:10285000DC01ED91FC91048CF58DE02D09951F9123
:102860000F9108952F923F924F925F926F927F92B5
:102870008F929F92AF92BF92CF92DF92EF92FF9290
:102880000F931F93CF93DF9300D000D0CDB7DEB767
:102890006C0101E010E029E030E043E350E0BC01CE
:1028A0008AE193E00E94261454E0452E512C222404
:1028B0002394312CF12CE12C84E090E09C838B83D9
:1028C00088EF9FEF9A8389837DEF672E77247A9430
:1028D0009FEFE91AF90A82E0280E311C620C731C82
:1028E0008B819C818E159F050CF457C04C01880C80
:1028F000991C9FEF891A990A01E010E0940147E3BF
:10290000A42EB12C8B819C81A81AB90AA501B7010C
:102910006C0D7D1D8AE193E00E9426149401A501AF
:10292000B6016E197F098AE193E00E9426148B811B
:102930009C8184159505F9F0B601640D751D01E0C3
:1029400010E0410192E0891A9108940188E3A82ED1
:10295000B12CAE18BF08A5018AE193E00E942614AD
:10296000B601641975099401A5018AE193E00E94FA
:1029700026144B805C808B819C81E816F90694F4C8
:1029800077FCA6CF01979C838B8389819A810296DD
:102990009A838983680E791E9BCF8B819C818415D5
:1029A000950551F60F900F900F900F90DF91CF91FA
:1029B0001F910F91FF90EF90DF90CF90BF90AF905D
:1029C0009F908F907F906F905F904F903F902F904F
:1029D0000895DC01ED91FC910084F185E02D0994CE
:1029E0003F924F925F926F927F928F929F92AF929F
:1029F000BF92CF92DF92EF92FF920F931F93CF93EC
:102A0000DF9300D000D0CDB7DEB75C013B016A0197
:102A10004901280187E0480E511C93E055944794E2
:102A20009A95E1F7CA018E0D9F1D9A838983F12C37
:102A3000E12C312C1C821B828B819C818770992711
:102A4000330C892B61F4EB81FC8183E0F595E795EC
:102A50008A95E1F7EE0DFF1DE80DF91D349037FE64
:102A60000AC021E030E0A6016B817C81660D771DF4
:102A7000C5010E94E9148B819C8101969C838B8304
:102A800008171907C9F69FEFC91AD90AE40CF51CF3
:102A900089819A81C816D90669F60F900F900F9018
:102AA0000F90DF91CF911F910F91FF90EF90DF90EA
:102AB000CF90BF90AF909F908F907F906F905F90DE
:102AC0004F903F9008952F923F924F925F926F9256
:102AD0007F928F929F92AF92BF92CF92DF92EF92AE
:102AE000FF920F931F93CF93DF937C016B01EA0159
:102AF00081E090E05C01A41AB50A66247724641A88
:102B0000750A660C771C10E000E088248394912CF1
:102B1000822F8470582E822F8270482E822F8870C8
:102B2000382E2170222E0C171D070CF079C0B7FC2F
:102B300006C0219782E0680E711CA60CB71C0F5FBF
:102B40001F4F82E0880E911CA80CB91C5520C1F0C3
:102B500021E030E0AE014C0D5D1DB701600F711F2B
:102B60008AE193E00E94E91421E030E0A601400FE1
:102B7000511FBE016E0D7F1D8AE193E00E94E91492
:102B80004420C1F021E030E0A6014C1B5D0BB701F1
:102B9000600F711F8AE193E00E94E91421E030E0A8
:102BA000A601401B510BBE016E0D7F1D8AE193E013
:102BB0000E94E9143320C1F021E030E0A601400F6B
:102BC000511FB7016C1B7D0B8AE193E00E94E91451
:102BD00021E030E0AE014C0D5D1DB701601B710BB3
:102BE0008AE193E00E94E914222009F49CCF21E0BD
:102BF00030E0A601401B510BB7016C1B7D0B8AE135
:102C000093E00E94E91421E030E0A6014C1B5D0B2B
:102C1000B701601B710B8AE193E00E94E91483CF36
:102C2000DF91CF911F910F91FF90EF90DF90CF90A8
:102C3000BF90AF909F908F907F906F905F904F90DC
:102C40003F902F9008952F923F924F925F926F92F4
:102C50007F928F929F92AF92BF92CF92DF92EF922C
:102C6000FF920F931F93CF93DF9300D000D0CDB787
:102C7000DEB72C013B011A0179011C830B8358013B
:102C8000AA0CBB1C4A018A189B086801C40CD51CFD
:102C900001E010E09401AB01B6018AE193E00E94EB
:102CA0001A14C701860D971D9A838983AC01415080
:102CB00051099401B6018AE193E00E941A14EA18BE
:102CC000FB088B819C81680E791E9701A301B201DC
:102CD0008AE193E00E942614420C531CB201615019
:102CE00071099701A3018AE193E00E94261421E073
:102CF0004B815C81B301C6010E9463158B819C816D
:102D0000481A590A91E0491A510822E04B815C8126
:102D1000B301C2010E946315E980FA808B819C8116
:102D2000E81AF90A91E0E91AF10824E04B815C8184
:102D3000B701C2010E94631528E04B815C81B70195
:102D4000C6010F900F900F900F90DF91CF911F91C0
:102D50000F91FF90EF90DF90CF90BF90AF909F903A
:102D60008F907F906F905F904F903F902F900C943A
:102D700063152F923F924F925F926F927F928F9244
:102D80009F92AF92BF92CF92DF92EF92FF920F93FA
:102D90001F93CF93DF9300D000D000D0CDB7DEB724
:102DA0003C016A013E832D83FC82EB825801A41A08
:102DB000B50AB7FE03C0B194A194B1088D809E807E
:102DC000861A970A97FE03C09194819491088A14F9
:102DD0009B045CF0902F812F0D811E819D838E833B
:102DE0009C2D8D2D6B01692F782F0C151D055CF026
:102DF0009D818E817E836D83692F782F902F812F07
:102E00008601C92ED82E1601201A310A2B012D81D8
:102E10003E81421A530A57FE03C05194419451080F
:102E2000710137FE03C03FEFE31AF30AF594E7940C
:102E30008D819E81861797075CF5A1E0B0E0BA838B
:102E4000A983C016D1064CF1D301ED91FC91048405
:102E5000F585E02D2B813C81A8016D817E818A144E
:102E60009B041CF04D815E81B801C3010995E418F3
:102E7000F508F7FE0AC02D813E8189819A81280FCD
:102E8000391F3E832D83E20CF31C0F5F1F4FD9CFF8
:102E90002FEF3FEF3A832983D4CF26960FB6F894CD
:102EA000DEBF0FBECDBFDF91CF911F910F91FF907D
:102EB000EF90DF90CF90BF90AF909F908F907F90DA
:102EC0006F905F904F903F902F90089508952091BC
:102ED0003E02260F3327331F21323105ECF42091B7
:102EE0006202FC0190E080E0243069F082E0089505
:102EF000A0913E022191AC01425E5D4FA40FB52F1F
:102F0000B11D2C930196861798F380913E02680FAD
:102F100060933E0280E0089581E00895109262027D
:102F200081E0809364021092630261E082E10E947A
:102F30005A0C61E083E10E945A0CE9EBF0E08081D9
:102F40008E7F808380818D7F808388E48093B8002A
:102F500085E48093BC000895CF93DF9391E0909334
:102F60001D028823B9F0C091B800D091BA008091B9
:102F7000BC008A7B8093BC0060E082E10E945A0C16
:102F800060E083E10E945A0C0E948E17D093BA0031
:102F9000C093B800DF91CF910895E091970280919E
:102FA0009602E81730F4F0E0E850FE4F808190E0A0
:102FB00008958FEF9FEF0895909197028091960268
:102FC0002FEF3FEF981748F4E92FF0E0E850FE4F5D
:102FD000208130E09F5F90939702C901089580910E
:102FE000960290919702891B990B0895CF92DF92D8
:102FF000EF92FF920F931F93CF93DF937C01CB014E
:103000008A0120911903222389F0EB016B01C40E80
:10301000D51ECC15DD0569F06991D701ED91FC91C4
:103020000190F081E02DC7010995F3CF642F0E9434
:103030006717C801DF91CF911F910F91FF90EF901B
:10304000DF90CF900895CF93DF931F92CDB7DEB777
:103050006983209119032223F9F02091160320326D
:1030600058F021E030E0FC013383228390E080E0DF
:103070000F90DF91CF91089580911703E82FF0E032
:10308000E852FE4F998190838F5F8093170380935E
:10309000160381E090E0ECCF61E0CE0101960E9442
:1030A0006717F7CFCF92DF92EF92FF920F931F93A4
:1030B000CF93DF93D091160381E0D13208F09CC00A
:1030C000C09118030E94CE0C6B017C0180916202BA
:1030D00081116CC082E08093620281E0809364027F
:1030E0008FEF8093610210928602D0938502A8ED43
:1030F000B1E0E5E6F2E080E0D8138DC010928702DF
:1031000080918702CC0FC82BC09387028091630205
:10311000813009F084C0109263020E94CE0C6B01D2
:103120007C01809187028093BB008091190290916D
:103130001A02A0911B02B0911C02892B8A2B8B2BA7
:10314000A1F00E94CE0C0091190210911A02209158
:103150001B0230911C026C197D098E099F0906170C
:1031600017072807390708F442C08091BC0083FD87
:10317000D8CF85EC8093BC000E94CE0C6B017C0103
:1031800080916202823009F44CC0809161028F3FCD
:1031900009F469C080916102803209F466C08091AF
:1031A0006102803309F463C084E026C08091190273
:1031B00090911A02A0911B02B0911C02892B8A2BBC
:1031C0008B2B09F483CF0E94CE0C00911902109131
:1031D0001A0220911B0230911C026C197D098E0984
:1031E0009F09061717072807390708F06FCF809146
:1031F00018020E94AC1785E0109217031092160374
:1032000010921903DF91CF911F910F91FF90EF90D2
:10321000DF90CF9008959D9191938F5F6DCF85EE54
:10322000A9CF8091190290911A02A0911B02B0912E
:103230001C02892B8A2B8B2B09F4A2CF0E94CE0C67
:103240000091190210911A0220911B0230911C0268
:103250006C197D098E099F0906171707280739077A
:1032600008F08ECFC4CF80E0C7CF82E0C5CF83E027
:10327000C3CFEF92FF920F931F93CF93DF937C0105
:10328000C62F8091370390913803009709F459C0F5
:1032900020913B0331E030931903209318031092DF
:1032A000170310921603DC01ED91FC910190F0815F
:1032B000E02D60E009958701EE24E394F12CD1E044
:1032C000C1508091370390913803CF3F91F1B0E224
:1032D000EB16F104D8F00E945218809137039091B8
:1032E000380320913B03D0931903209318031092C5
:1032F000170310921603DC01ED91FC910190F0810F
:10330000E02D60E00995EE24E394F12C80913703E1
:1033100090913803F8016491DC01ED91FC910190EA
:10332000F081E02D0995BFEFEB1AFB0A0F5F1F4FED
:10333000C7CFDF91CF911F910F91FF90EF900C9429
:103340005218E0914703F0914803908180914D031A
:103350008095892380838701C15008F438C0F80123
:1033600084912091350330913603232B29F00E945C
:10337000890F0F5F1F4FF0CF28E030E040E8E09169
:103380004303F091440390914B03582F5423D9F0F9
:103390005081952B9083E0914503F09146039081F5
:1033A00050914C03952B9083E0914503F091460397
:1033B000508190914C039095952390834695215090
:1033C0003109E9F6D6CF508190959523E3CFDF916F
:1033D000CF911F910F91FF90EF9008951F93CF937E
:1033E000DF93EC018D8D9E8D009721F1162F29A181
:1033F00031E03093190320931803109217031092B1
:103400001603DC01ED91FC910190F081E02D60E06C
:1034100009958D8D9E8DDC01ED91FC910190F081DF
:10342000E02D612F09958D8D9E8DDF91CF911F919C
:103430000C945218ADA5BEA59C918BA980958923AB
:103440008C938B8D9C8D892B31F0862FDF91CF91C2
:103450001F910C94890F28E030E080E8A9A5BAA557
:1034600099A9462F4823C1F04C91942B9C93ABA56E
:10347000BCA59C914AA9942B9C93ABA5BCA54C914F
:103480009AA9909594239C9386952150310931F700
:10349000DF91CF911F9108954C9190959423E6CFA1
:1034A000DF92EF92FF920F931F93CF93DF93809160
:1034B000370390913803892B09F498C020914F036A
:1034C00030915003409151035091520360E074E2F7
:1034D00084EF90E00E94ED322051310941095109F9
:1034E00056954795379527952093B80065E082E576
:1034F00097E10E94391960911E0361508AE193E0BF
:103500000E94EE192091200330912103C9010796F2
:1035100097FD079633E0959587953A95E1F72091C9
:103520001E0330911F03829F8001839F100D929F85
:10353000100D1124C0913903D0913A0380913703C3
:10354000909138030C0F1D1F009709F48FC0209134
:103550003B0331E0309319032093180310921703B3
:1035600010921603DC01ED91FC910190F081E02DA9
:1035700060E40995EE24E394F12CDD24D39480914A
:103580003703909138030C171D0709F446C0B0E2C9
:10359000EB16F104D8F00E945218809137039091F5
:1035A000380320913B03D092190320931803109203
:1035B000170310921603DC01ED91FC910190F0814C
:1035C000E02D60E40995EE24E394F12C809137031B
:1035D000909138036991DC01ED91FC910190F081AB
:1035E000E02D0995BFEFEB1AFB0AC9CF8091350397
:1035F00090913603892B31F08091580390915903B3
:103600000E94900FE0914903F0914A0390818091CC
:103610004E0380958923808369CF0E945218809140
:10362000370390913803892B09F461C0209153032B
:1036300030915403409155035091560360E074E279
:1036400084EF90E00E94ED32205131094109510987
:1036500056954795379527952093B800DF91CF91E0
:103660001F910F91FF90EF90DF900895E091470335
:10367000F0914803808190914D03892B80830C1732
:103680001D0769F289912091350330913603232B70
:1036900019F00E94890FF3CF28E030E040E8E09174
:1036A0004303F091440390914B03582F5423D9F0D6
:1036B0005081952B9083E0914503F09146039081D2
:1036C00050914C03952B9083E0914503F091460374
:1036D000508190914C03909595239083469521506D
:1036E0003109E9F6CCCF508190959523E3CFE09155
:1036F0004903F0914A03808190914E03892B808386
:10370000ADCF1F93CF93DF93EC01162F8D8D9E8D40
:10371000892BB1F12DA93EA94FA958AD60E074E203
:1037200084EF90E00E94ED322051310941095109A6
:1037300056954795379527952093B80066EA11115D
:1037400067EACE010E94EE198D8D9E8D892B41F185
:1037500029AD3AAD4BAD5CAD60E074E284EF90E032
:103760000E94ED3220513109410951095695479582
:10377000379527952093B800DF91CF911F91089539
:103780008B8D9C8D892B21F08EAD9FAD0E94900F6B
:10379000EFA5F8A990818CA9809589238083CECF4D
:1037A000EFA5F8A980819CA9892B8083E5CF90E0C3
:1037B00080E00895EF92FF920F931F93CF93DF93D2
:1037C0007B01880F991F880F991FEC01259710E046
:1037D00000E061E086E00E945A0CCE010197F1F70B
:1037E00060E086E00E945A0CCE010197F1F70F5F6E
:1037F0001F4FE016F10669F7DF91CF911F910F91EE
:10380000FF90EF9008951F93CF93DF93182F0E949E
:10381000B90CEC01812F0E94B90C8C0F9D1F96955D
:103820008795DF91CF911F9108953F924F925F92BC
:103830006F927F928F929F92AF92BF92CF92DF92C0
:10384000EF92FF920F931F93CF93DF933B014A01B7
:103850002901E7013C2C0E94310CF3019183808304
:10386000F40120813181892B09F059C0C0900D03EA
:10387000D0900E03E0900F03F0901003213031053B
:1038800031F511821082F20180819181A281B38190
:10389000B701A601481B590B6A0B7B0BC801110F1E
:1038A000AA0BBB0B481759076A077B0780F03983BF
:1038B0002883F501C082D182E282F382F1E03F12D7
:1038C0001CC06DE470E088EC90E00E94DA1BF5010A
:1038D00080819181A281B381A7019601281B390BB8
:1038E0004A0B5B0BDA01C9018C329140A105B1058D
:1038F00020F083E090E099838883DF91CF911F913E
:103900000F91FF90EF90DF90CF90BF90AF909F907E
:103910008F907F906F905F904F903F900895232BF2
:1039200061F781E090E09183808380910D03909115
:103930000E03A0910F03B0911003F20180839183D5
:10394000A283B38388819981892BB9F282E090E0C8
:10395000D2CFFC0101900020E9F73197AF01481B5D
:10396000590BBC018AE193E00C94DB0B8F929F9280
:10397000AF92BF920F931F93CF93DF93CDB7DEB774
:10398000A1970FB6F894DEBF0FBECDBF19A242308B
:1039900008F44AE08E010F5D1F4F842E912CB12C4C
:1039A000A12CA50194010E94ED32E62FB901CA01B4
:1039B000EA30F4F4E05DD801EE938D01232B242B43
:1039C000252B79F790E080E0109719F0CD010E9447
:1039D000A91CA1960FB6F894DEBF0FBECDBFDF9134
:1039E000CF911F910F91BF90AF909F908F900895AE
:1039F000E95CE1CFCF92DF92EF92FF92CF93DF931A
:103A00006B017C016DE28AE193E00E94CE11EC0132
:103A100066277727CB016C197D098E099F094AE03B
:103A20000E94B61C8C0F9D1FDF91CF91FF90EF90ED
:103A3000DF90CF900895BC01990F880B990B97FDEB
:103A40000C94FA1C4AE00C94B61C0C94A91C0F931D
:103A50001F93811150C08091DC0281114CC0233032
:103A600021F181E080932E0380932F03243051F1C4
:103A70008EE390E00436110514F082E090E090931C
:103A800027038093260389E390E090932903809392
:103A90002803CA016130F9F010922D0310922C0313
:103AA00010922B0310922A0320C020932E03209300
:103AB0002F0382E090E090932703809326038AE00F
:103AC00090E0E3CF8FE590E0909327038093260367
:103AD00082E090E0DACF21E030E030932D032093B4
:103AE0002C0330932B0320932A030E94251D1F9142
:103AF0000F910C94501A1F910F910895209120035B
:103B000030912103C901079697FD079623E095950B
:103B100087952A95E1F720911E0330911F03829F1C
:103B2000A001839F500D929F500D112470E060E022
:103B30008091390390913A030C945334EF92FF92A1
:103B40000F931F9360E08FE00E945A0C0E947E1D2D
:103B50008FE3E82EF12C0CE710E022E633E150E091
:103B600040E070E060E08AE193E00E94F0140E947F
:103B7000501A64E670E088EC90E00E94DA1B62E381
:103B800070E080E090E00E94F30C64E670E088EC66
:103B900090E00E94DA1B62E370E080E090E00E9417
:103BA000F30C64E670E088EC90E00E94DA1B6CEDA8
:103BB00075E080E090E00E94F30C80911103863064
:103BC000D0F082E00E94310C892B31F080911403F7
:103BD00090911503019779F4109211031092130339
:103BE00010921203109215031092140360E081E00A
:103BF0000E945A0CE6CF0E947E1D1F910F91FF90EC
:103C0000EF900C94501ACF92DF92EF92FF920F93A5
:103C10001F93CF93DF93CDB7DEB728970FB6F894F5
:103C2000DEBF0FBECDBF2091DC02211142C07F93C9
:103C30006F939F938F9382E591E09F938F93CE0133
:103C400001966C019F938F930E945A34F12CE12CC2
:103C500007E010E020E230E049E350E06FE570E07B
:103C60008AE193E00E94531381E080932E038093B6
:103C70002F0381E090E090932D0380932C03909389
:103C80002B0380932A038FE590E090932703809382
:103C9000260389E390E09093290380932803C601CB
:103CA0000E94251D0E94501A0FB6F894DEBF0FBE69
:103CB000CDBF28960FB6F894DEBF0FBECDBFDF9103
:103CC000CF911F910F91FF90EF90DF90CF900895CB
:103CD0000E944E3485ED8093BC0080911902909132
:103CE0001A02A0911B02B0911C020796A11DB11DE2
:103CF00023E0B695A795979587952A95D1F72091BA
:103D0000BC0024FD03C01092620208954091190284
:103D100050911A0260911B0270911C02452B462B98
:103D2000472B69F30097A105B10541F025E32A95DA
:103D3000F1F700000197A109B109E1CF80911802C4
:103D40000C94AC171F920F920FB60F9211242F9361
:103D50003F938F939F93AF93BF93809189029091EC
:103D60008A02A0918B02B0918C023091880223E0EC
:103D7000230F2D3758F50196A11DB11D2093880200
:103D80008093890290938A02A0938B02B0938C0255
:103D900080918D0290918E02A0918F02B09190023D
:103DA0000196A11DB11D80938D0290938E02A09368
:103DB0008F02B0939002BF91AF919F918F913F91ED
:103DC0002F910F900FBE0F901F90189526E8230F8C
:103DD0000296A11DB11DD2CF1F920F920FB60F9266
:103DE00011242F933F934F935F936F937F938F9300
:103DF0009F93AF93BF93EF93FF938091B900887F18
:103E0000803609F44AC0F0F5883209F4A7C018F5E5
:103E1000803109F49BC0B8F4882309F4F9C08830D4
:103E200009F494C0FF91EF91BF91AF919F918F9151
:103E30007F916F915F914F913F912F910F900FBEA6
:103E40000F901F901895883109F488C0803251F77F
:103E50008093610214C0803409F49DC040F4803323
:103E6000B9F38833F9F68093610285ECB0C08035F0
:103E700009F485C0883509F496C0883499F60E9403
:103E80006A1ED0CF883909F48CC038F5883729F0FC
:103E900050F4883611F0803729F683E0809362026F
:103EA0001092600257C0883809F47BC0803919F03D
:103EB000803809F0B7CF80916002803208F071C07D
:103EC000E091600281E08E0F809360028091BB00E0
:103ED000F0E0E05CFD4F80833DC0803B39F0E0F4D2
:103EE000803A09F479C0883A09F09CCF84E0809345
:103EF000620210923F0210923E02E0919402F09111
:103F00009502099580913E0281110FC081E0809356
:103F10003E0210921E0209C0803C09F4A6CF883CE4
:103F200009F4A3CF883B09F07DCFE0913F0281E007
:103F30008E0F80933F02F0E0E25EFD4F8081809320
:103F4000BB0090913F0280913E0229C08091870280
:103F50008093BB0085EC8093BC0064CF9091860277
:103F600080918502981758F5E091860281E08E0FC6
:103F700080938602F0E0EB59FD4F8081E9CFE0911C
:103F8000860281E08E0F809386028091BB00F0E074
:103F9000EB59FD4F8083909186028091850298179E
:103FA000C8F285E8D8CFE091860281E08E0F809339
:103FB00086028091BB00F0E0EB59FD4F8083809139
:103FC000640281115CCF81E08093630284EA809374
:103FD000BC001092620226CF85EC8093BC00109248
:103FE000620280916002803230F4E0916002F0E081
:103FF000E05CFD4F10826091600270E0E0919202FF
:10400000F091930280E492E00995109260020ACF49
:104010001092610234CF71E03D9A3C98000000009C
:1040200000000E94E8213D980E94E821A894000029
:1040300000000000359B0E94D021D2F08894349972
:104040000894771F48F73D9A803019F03C980C94FB
:104050002A203C9A0000000000000E94E8213D98C0
:10406000A89400000000359B0E94D0210E94E82106
:10407000000000003D9A872F9927089580E2089557
:104080000894881F0C944520880FF1F03D9A000099
:104090000000000020F400003C980C9452203C9A50
:1040A0000C9452200E94E8213D98A8940000000042
:1040B0000000359B0E94D0211AF488270C947720A9
:1040C0000E94E8210C9444203D9A000000003C9896
:1040D0000E94E821992788273D98A8940000359BE5
:1040E0000E94D02152F3349B81E00E94E82100001D
:1040F00000003D9A089581E008953D9A3C9A0E94FF
:10410000E8213D980E94E821359B0E94D0213C98EF
:104110000E94E821789408958F93F1E0E4EF8F9165
:104120008F93F894359B0E94D0213C9A0E94E821FD
:104130000E944020882331F40E947D20319711F0A5
:104140000C948F2099270F9008950895F8943D9A24
:104150000E94E8213C980E94E8213D980E94E821B5
:10416000359B0E94D0213C9A0E94E8210E94402069
:10417000089581E00895F894359B0E94D0213C9ADF
:104180000E94E8210E944020089581E00895DF9276
:10419000EF92FF920F931F93CF93DF93D82E0E943D
:1041A0007D2061E070E080E090E00E94F30C0E94CE
:1041B0007D2061E070E080E090E00E94F30C8AE0F6
:1041C000E82EF12C01E010E080EC0E94BB20C1E061
:1041D000D0E0811104C010E000E0D0E0C0E084E451
:1041E0000E944020811104C010E000E0D0E0C0E057
:1041F0008D2D0E944020811102C0D0E0C0E00E94BD
:104200007D2061E070E080E090E00E94F30CCD2B17
:1042100021F481E0E81AF108B9F6012B41F1DF91B0
:10422000CF911F910F91FF90EF90DF900895015073
:104230001109A9F380EC0E94BB20C82F84E40E94DE
:104240004020811101C0C0E0D0E08D2D0E944020AF
:10425000811102C0D0E0C0E00E947D2061E070E0EA
:1042600080E090E00E94F30CCD2B09F3D8CF0AE058
:1042700010E0E0CFEF92FF920F931F93CF93DF9365
:104280006F3571050CF077C0813009F474C0EB0113
:10429000E5EDF2E184910E94C72061E08FE00E9489
:1042A0005A0C88E6E82E80E0F82EC233D1050CF0D7
:1042B0003CC00091F7021091F80224E04CE551E077
:1042C00061E080910C030E94271D9CE7E92E90E09D
:1042D000F92EF7011491E12FF0E0EB52FD4E84919D
:1042E0000E94C7206AE070E080E090E00E94F30C3A
:1042F000FFEFEF1AFF0A80E9E81680E0F80649F7B9
:10430000E12FF0E0CF018C1B9D0B181619062CF540
:10431000EB52FD4E84910E94C72062E070E080E085
:1043200090E00E94F30C1150EBCFF7011491E12FB4
:10433000F0E0EB52FD4E84910E94C7206AE070E0ED
:1043400080E090E00E94F30CFFEFEF1AFF0A8CE789
:10435000E81680E0F80649F7D3CFE29764F40091BD
:10436000F7021091F80224E04CE551E062E0809100
:104370000C030E94271DDF91CF911F910F91FF9099
:10438000EF9008953C983D98449845988827992740
:10439000349B0895359B089581E0089581E0089548
:1043A000B0E0A4E000240E94E0213AF40A94D9F796
:1043B0001197C1F728940C94E721A8940C94E72155
:1043C000A89435990C94E521289400000895089547
:1043D0009BE69A95F1F708950895EAE1F3E01382D8
:1043E000128220E830E03583248380E490E09783D4
:1043F00086833187208793878287168A158614865D
:104400001786168681E0858B848B2FEF3FEF338BE9
:10441000228B318B208B878B108E128E118E8AE22D
:1044200091E091838083148E138E168E158E10A2C8
:10443000178E8BE084A38DE085A38CE086A38AE0B1
:1044400087A388E080A780E586AF17AE0895CF9355
:10445000DF93CDB7DEB728970FB6F894DEBF0FBE57
:10446000CDBF789484B5826084BD84B5816084BDFD
:1044700085B5826085BD85B5816085BD80916E0002
:10448000816080936E001092810080918100826033
:104490008093810080918100816080938100809170
:1044A00080008160809380008091B100846080935F
:1044B000B1008091B00081608093B00080917A005B
:1044C000846080937A0080917A00826080937A0081
:1044D00080917A00816080937A0080917A00806870
:1044E00080937A001092C10060E089E00E945A0C2B
:1044F00061E089E00E94880C8091390390913A0331
:10450000892B39F10E947E1D809120039091210317
:1045100060911E0370911F03813291050CF0AAC5B2
:10452000AC014052510957FF02C04F5F5F4F559594
:1045300047956357710977FF02C06F5F7F4F75958D
:104540006795F0E2EF2EF12C03E710E02CE036E067
:10455000A9C52091200330912103C901079697FD39
:10456000079623E0959587952A95E1F720911E03FC
:1045700030911F038C01029FC001039F900D129F79
:10458000900D11240E94293390933A0380933903AC
:10459000892B09F0B7CF0E94C22110920C0360E072
:1045A00089E00E945A0C61E089E00E94880C60E07A
:1045B0008EE00E94880C60E080E10E94880C60E040
:1045C00081E10E94880C60E084E00E94880C60E039
:1045D00083E00E94880C61E086E00E94880C60E025
:1045E00082E00E94880C60E085E10E94880C60E017
:1045F00084E10E94880C61E08FE00E94880C61E0F9
:1046000087E00E94880C61E081E00E94880C61E0F4
:1046100080E00E94880C60E085E00E94880C60E0E9
:1046200081E00E945A0C60E080E00E945A0C60E039
:1046300089E00E945A0C60E087E00E945A0C60E01A
:1046400086E00E945A0C61E082E00E945A0C0E94AF
:104650007E1DEE24E394F12C00E410E027E430E02A
:1046600050E040E06DE170E08AE193E00E945F126B
:1046700072E3E72EF12C09E310E02CEA3AE047E080
:1046800050E064E270E08AE193E00E94F0140E943E
:10469000501AC12CD12C7601C3941AE0F5E14F2EAB
:1046A000512C612C712C00E0530142018C189D08A3
:1046B000AE08BF0861E089E00E945A0CC701B6014C
:1046C0000E94F30C60E089E00E945A0CC501B4011D
:1046D0000E94F30C0F5F0113EDCF1150153008F459
:1046E00015E02FEFC21AD20AE20AF20A34E1C31629
:1046F000D104E104F104B9F661E089E00E945A0CAA
:1047000068EE73E080E090E00E94F30C0E947E1D52
:1047100087E080932E0380932F0381E090E09093B5
:104720002D0380932C0390932B0380932A0381E223
:1047300090E00E9492318A3D09F44BC06AE090E01B
:1047400080E00E949A3164E181E090E00E949A3119
:1047500068E282E090E00E949A3162E383E090E0B8
:104760000E949A316BE084E090E00E949A3165E10A
:1047700085E090E00E949A3169E286E090E00E9434
:104780009A3163E387E090E00E949A316CE088E020
:1047900090E00E949A3166E189E090E00E949A31AF
:1047A0006AE28AE090E00E949A3164E38BE090E054
:1047B0000E949A3161E080E290E00E949A3160E0CC
:1047C00089E190E00E949A316AED81E290E00E94D6
:1047D0009A3190E080E00E949231182F8093E1029C
:1047E00081E090E00E9492318093E20282E090E0CA
:1047F0000E9492318093E30283E090E00E94923124
:104800008093E40284E090E00E9492318093E5027C
:1048100085E090E00E9492318093E60286E090E08D
:104820000E9492318093E70287E090E00E949231EB
:104830008093E80288E090E00E9492318093E90240
:1048400089E090E00E9492318093EA028AE090E051
:104850000E9492318093EB028BE090E00E949231B3
:104860008093EC0280E290E00E9492318093CD022E
:1048700089E190E00E94923190E09093C902809388
:10488000C80260E0892B09F061E087E00E945A0CC1
:10489000812F90E09093FA028093F9020E94260DF6
:1048A0006093C4027093C5028093C6029093C702BE
:1048B0006093BC027093BD028093BE029093BF02CE
:1048C000609308037093090380930A0390930B038A
:1048D0006093FB027093FC028093FD029093FE02B2
:1048E00088248394912CDD24D3940E94260DAB015F
:1048F000BC0140930D0350930E0360930F0370931C
:10490000100380910C03811173C080910803909172
:104910000903A0910A03B0910B038A019B01081BB4
:10492000190B2A0B3B0BD901C8012091170121302B
:1049300009F0A4C5813117E29107A105B10508F47A
:1049400057C0009104031091050320910603309194
:104950000703800F911FA21FB31F8093040390933E
:104960000503A0930603B0930703409308035093F5
:10497000090360930A0370930B03BC01CD0128EE79
:1049800033E040E050E00E94ED3229013A0121E994
:1049900042162EE752066104710430F040E9442EBD
:1049A0004EE7542E612C712CC301B20120E13EE090
:1049B00040E050E00E94ED327901309303032093F0
:1049C0000203C301B2012CE330E040E050E00E945A
:1049D000ED32CA01B9012CE330E040E050E00E9422
:1049E000ED327093010360930003C7010E94031E20
:1049F00080910D0390910E03A0910F03B0911003CD
:104A00004091FB025091FC026091FD027091FE0208
:104A1000841B950BA60BB70B81389E4EA643B105A0
:104A200008F48CC00E947E1D0E94501A10E000E025
:104A300023E042E651E061E080910C030E94271DD3
:104A400060ED77E080E090E00E94F30C0E947E1D14
:104A50000E94501A84E00E94310C8C010E94260DA5
:104A600060930D0370930E0380930F0390931003D4
:104A7000112784E00E94310C7C0180E10E94310CFE
:104A8000CC24C394892B21F00E151F0509F4C12CE9
:104A900082E00E94310C892B11F4CC24C39481E173
:104AA0000E94310C892B11F0CC2019F30E947E1D3D
:104AB0000E94501A10E000E023E04AE651E061E075
:104AC00080910C030E94271D64E670E088EC90E062
:104AD0000E94DA1B68EE73E080E090E00E94F30C25
:104AE0000E947E1D0E94501A80E10E94310C0197A5
:104AF00009F0F4C482E00E94310C019709F0EEC481
:104B000081E10E94310C019709F0E8C40E947E1DEA
:104B10000E94501A0E94260D60930D0370930E039D
:104B200080930F03909310036093FB027093FC0239
:104B30008093FD029093FE02D0921601809116019F
:104B4000813009F0E7C0109216010091F90210912E
:104B5000FA02F801EB52FD4E84910E94C720F80141
:104B6000E85BFD4E6491462E512C5092F802409223
:104B7000F70270E090E080E00E94DE3126E636E643
:104B800046EA50E40E9444320E94A8317093F60233
:104B90006093F50287E080932E0380932F03909219
:104BA0002D0380922C0390922B0380922A030E9463
:104BB0007E1DC2016AE070E00E94D9327B0126EFBF
:104BC00026038001279F100D1124040D151D54E6A6
:104BD000451651040CF48DC483E590E00E94321414
:104BE00039E5632E712C1092270310922603109240
:104BF000290310922803C7010E941B1D70922703EE
:104C0000609226031092290310922803B801012E06
:104C1000000C880B990B17FF74C40E94FA1C8EE8D5
:104C200091E00E94A91C0E94501A809115018130C8
:104C300009F066C093E0909315019091DC02911108
:104C40005FC06090F3027090F40280932E03809313
:104C50002F0390922D0380922C0390922B0380922D
:104C60002A03F12CE12C0DE010E025E230E043E3D3
:104C700050E070E060E08AE193E00E945313EE247C
:104C8000E394F12C22E230E043E350E070E060E096
:104C90008AE193E00E945F126114710409F035C447
:104CA00083E090E0909327038093260306E310E0CF
:104CB000109329030093280321E030E049E350E0FA
:104CC0006CE070E08AE193E00E94D90E21E030E0D0
:104CD00049E350E063E170E08AE193E00E94D90E7D
:104CE00021E030E049E350E06AE170E08AE193E0DE
:104CF0000E94D90EC30101960E941B1D0E94501AEA
:104D0000609100037091010380910203909103036D
:104D10000E94031E8091F1029091F202019709F026
:104D200048C080910D0390910E03A0910F03B091A4
:104D300010034091ED025091EE026091EF027091EC
:104D4000F002841B950BA60BB70B803D9740A10585
:104D5000B10578F18091F3029091F4026091F9022B
:104D6000FC01EF51FD4F608390E00E949A31109258
:104D7000F2021092F1020091F7021091F80221E084
:104D800041E951E061E080910C030E94271D6CE233
:104D900071E080E090E00E94F30C0091F702109126
:104DA000F80221E041E951E062E080910C030E94A9
:104DB000271D80911501833061F580910D0390913D
:104DC0000E03A0910F03B09110034091DD025091AA
:104DD000DE026091DF027091E002841B950BA60B4E
:104DE000B70B813D9740A105B10598F082E0809313
:104DF0001501F12CE12C0DE010E025E230E043E359
:104E000050E070E060E08AE193E00E9453130E945A
:104E1000501A8091DC02882309F4AAC4109216016A
:104E20000E947E1D83E0F82EF0922E03F0922F0355
:104E300090922D0380922C0390922B0380922A0350
:104E40000AE010E020E430E040E850E070E060E08C
:104E500090E080E00E9423168091DC02813009F00E
:104E6000BCC388E090E0909329038093280380914D
:104E7000F3029091F402892B09F0A6C388E290E036
:104E8000909327038093260385E991E00E94251DD6
:104E900080E390E0909327038093260383E290E0E1
:104EA00090932903809328038FE991E00E94251DA8
:104EB0000E94501A80910D0390910E03A0910F0350
:104EC000B09110034091D8025091D9026091DA025A
:104ED0007091DB02841B950BA60BB70B81329340BC
:104EE000A105B10520F01092DC02D092160160916C
:104EF000D6027091D7026230710509F052C08091DC
:104F0000DC0281115EC41092D7021092D602809109
:104F1000D4029091D502892B09F03BC41092F20281
:104F20001092F10240900D0350900E0360900F0319
:104F3000709010034092FB025092FC026092FD02BE
:104F40007092FE028091120390911303892B09F055
:104F500038C48091F3029091F40201960E94D932F4
:104F60008C019093F4028093F30260E0892B09F0A6
:104F700061E080E00E945A0CF801EF51FD4F808102
:104F800090E09093FA028093F902D0921601D092A9
:104F900015014092DD025092DE026092DF027092B3
:104FA000E0028091D6029091D702039709F009C4DC
:104FB0009092D5028092D4020091130110911401B5
:104FC0000130110561F5109214011092130167E38D
:104FD00070E088EC90E00E94DA1B6FE070E080E007
:104FE00090E00E94F30C67E370E088EC90E00E9490
:104FF000DA1B8091140390911503019709F0CEC339
:1050000060E081E00E945A0C109215031092140384
:10501000109213031092120382E08093DC0220911D
:10502000D0023091D1022230310509F0DCC3109258
:10503000D1021092D0028091DC02811158C7809178
:105040000D0390910E03A0910F03B0911003809374
:10505000FB029093FC02A093FD02B093FE028091AC
:105060000C038111B3C3D0920C03D092CF021092E3
:105070001601C2C6AC014054510957FF02C04F5F30
:105080005F4F559547956255710977FF02C06F5F75
:105090007F4F7595679510E4E12EF12C02E510E045
:1050A0002CEE37E08AE193E00E94F01482E08093D6
:1050B0003C038091370390913803892B09F4E8C0B1
:1050C0008091200390912103809709F0DFC08CE349
:1050D00080933B031092970210929602109217034E
:1050E000109216030E948E1789ED9BE09093950213
:1050F000809394028AED9BE09093930280939202B6
:105100008091420387FD1EC061E00E94880C61E02F
:10511000809142030E945A0C61E070E080E090E0D0
:105120000E94F30C60E0809142030E945A0C6AE0F6
:1051300070E080E090E00E94F30C61E08091420317
:105140000E945A0C8091370390913803892B09F4FF
:105150005EC120914F033091500340915103509113
:10516000520360E074E284EF90E00E94ED3220513F
:10517000310941095109569547953795279520934F
:10518000B80064E086ED95E00E9439196091200333
:1051900061508AE193E00E94EE1964E082ED95E0AF
:1051A0000E94391980913C0360E1813009F064E18B
:1051B0008AE193E00E94EE1964E08EEC95E00E9493
:1051C00039198FE88093570380911E0390911F0334
:1051D0008038910509F034C180912003909121031A
:1051E0008034910509F03CC180913C03813009F085
:1051F00025C18FE98093570312E16AED8AE193E0BC
:105200000E94EE19612F8AE193E00E94EE1961E895
:105210008AE193E00E94EE19609157038AE193E0DE
:105220000E94EE1969ED8AE193E00E94EE198091E7
:105230003C0362E2813009F061EF8AE193E00E9471
:10524000EE1966E088EC95E00E94391980913703E9
:1052500090913803892B09F407C1209153033091B1
:105260005403409155035091560360E074E284EF7B
:1052700090E00E94ED3220513109410951095695C3
:105280004795379527952093B80085C98DE320CFA2
:1052900061E0809140030E94880C61E080914103AD
:1052A0000E94880C80914003082E000C990BFC0191
:1052B000E850FA4FE491F0E0EE0FFF1FE251FA4F91
:1052C000259134913093480320934703FC01E65223
:1052D000FA4FE491E0934D0380914103082E000CB6
:1052E000990BFC01E850FA4FE491F0E0EE0FFF1F3C
:1052F000E251FA4FA591B491B0934A03A0934903A8
:10530000FC01E652FA4FE491E0934E038C91E82BB6
:10531000EC938091350390913603892B09F434C0C6
:105320001FB7F89480919102811127C0E2E0F6E066
:105330008491E4EEF5E09491E82FF0E0EE0FFF1F8A
:10534000E254FA4FA591B491EC91E92321F461E084
:105350008AE00E945A0C61E08AE00E94880C8CB5B9
:1053600080618CBD8CB580648CBD61E08DE00E9455
:10537000880C61E08BE00E94880C809191028F5F25
:10538000809391021FBFBCCE61E080913E030E94DA
:10539000880C61E080913F030E94880C80913E035D
:1053A000082E000C990BFC01E850FA4FE491F0E054
:1053B000EE0FFF1FE251FA4F2591349130934403D1
:1053C00020934303FC01E652FA4FE491E0934B0330
:1053D00080913F03082E000C990BFC01E850FA4F16
:1053E000E491F0E0EE0FFF1FE251FA4FA591B49166
:1053F000B0934603A0934503FC01E652FA4FE491B3
:10540000E0934C038C91E095E823EC9379CE809166
:10541000350390913603892B31F080915803909198
:1054200059030E94900FE0914903F0914A03908143
:1054300080914E03809589238083A3CE8FECDACEB2
:105440008036910569F48091200390912103409763
:1054500039F480913C03813029F480E18093570333
:1054600012E0CBCE8FEAFACFE0914903F0914A03E4
:10547000808190914E03892B80838DC8893E934013
:10548000A105B10508F4B4CA409308035093090379
:1054900060930A0370930B038091FF02813059F4EB
:1054A0001092FF026091000370910103809102034A
:1054B000909103039BCAD092FF02F12CE12C07E0EC
:1054C00010E020E230E049E350E06FE570E08AE16F
:1054D00093E00E9453130E94501A8ACA06E910E012
:1054E00021E049E751E061E080910C030E94271D13
:1054F000FBCA89E290E00E94321425E3622E712CEF
:1055000072CB4AE00E94B61C8ACB11E0611671048E
:1055100099F42BE030E0309327032093260346E3F1
:1055200050E0509329034093280321E030E049E301
:1055300050E065E070E0C6CB52E065167104E9F416
:1055400081E190E0909327038093260306E310E027
:10555000109329030093280321E030E049E350E051
:1055600065E070E08AE193E00E94D90E21E030E02E
:1055700049E350E06CE070E0AFCB29E130E03093DC
:1055800027032093260346E350E0509329034093DA
:10559000280321E030E049E350E065E070E08AE173
:1055A00093E00E94D90E21E030E049E350E06CE046
:1055B00070E08AE193E00E94D90E21E030E049E3F7
:1055C00050E063E170E092CB84E190E09093270398
:1055D0008093260389E991E059CC8230A1F580912E
:1055E000F3029091F402892BF9F488E290E0909311
:1055F00027038093260388E090E09093290380930B
:10560000280385E991E00E94251D89E290E09093AE
:1056100027038093260383E290E0909329038093ED
:10562000280386EA91E042CC88E290E09093270339
:105630008093260388E090E09093290380932803C9
:1056400082EA91E0E0CF833009F049C08AE190E03E
:10565000909327038093260385E090E0909329039D
:10566000809328038AEA91E00E94251D86E0EEE1FE
:10567000F1E0DE01119601900D928A95E1F718860E
:105680001F82809101038F93809100038F938091FB
:1056900003038F93809102038F9380EB91E09F939C
:1056A0008F9321E030E02C0F3D1F3F932F930E94FA
:1056B0005A348CE190E0909327038093260383E291
:1056C00090E09093290380932803CE0101960E94D5
:1056D000251D0FB6F894DEBF0FBECDBFE9CB8430D9
:1056E00009F0E6CB8CE190E09093270380932603AA
:1056F00085E090E090932903809328038AEB91E062
:105700000E94251D86E0EEE1F1E0DE011196019098
:105710000D928A95E1F718861F82809101038F937D
:10572000809100038F93809103038F9380910203F4
:105730008F9380EB91E09F938F9381E090E08C0FAB
:105740009D1F9F938F930E945A34F0922E03F092E4
:105750002F0390922D0380922C0390922B03809222
:105760002A0309E110E01093270300932603A7CF33
:1057700080910D0390910E03A0910F03B09110033F
:105780008093D8029093D902A093DA02B093DB02FF
:10579000AECB1092D5021092D40203CC61E081E02E
:1057A0000E945A0C109315030093140310931303D3
:1057B00000931203D092DC021093D3020093D20222
:1057C0002ECC909214018092130129CC813009F0E3
:1057D00024C39091CE02923009F404C308F0F8C2B9
:1057E000992309F413C38091D0029091D1020397B9
:1057F00009F07DC380910F0190911001019731F55F
:105800001092100110920F0110920C031092CF020F
:10581000D092160167E370E088EC90E00E94DA1BFA
:105820006FE070E080E090E00E94F30C67E370E0CE
:1058300088EC90E00E94DA1B80911701813009F01A
:1058400052C31092170184E08093DC0270900C0325
:10585000711016C010ECA12E12E0B12ECC24C3940E
:1058600006EDE02E02E0F02E04E610E024EC32E03B
:105870004BE051E06DE071E080E190E00E94151C8A
:10588000E6EBAE2EE2E0BE2EC12CFAEBEF2EF2E0FC
:10589000FF2E08EC10E02CEB32E047E051E069E02D
:1058A00071E082E090E00E94151CAEEAAA2EA2E010
:1058B000BA2ECC24C394B0EDEB2EB2E0FB2E22EB3B
:1058C00032E043E051E065E071E081E190E00E9468
:1058D000151C0E94260D1B012C0120920D033092F5
:1058E0000E0340920F035092100384E00E94310C8B
:1058F0007C0166246394892B09F4612C6092AD02CB
:105900008091AC02882309F476C0E114F10409F017
:1059100072C02092FB023092FC024092FD02509233
:10592000FE0283E00E94310C892B09F0E5C28FEF63
:105930009FEF9093AB028093AA020091AA0210916C
:10594000AB02809101019091020108171907B9F08B
:105950008091A6029091A702A091A802B091A902FD
:10596000A2019101281B390B4A0B5B0BDA01C9011B
:105970004E97A105B10508F4C4C2D0920001C090B1
:10598000000131E0C31237C01093020100930101FE
:105990002092A6023092A7024092A8025092A90239
:1059A0001092DC027110B0C262E070E084EF91E00E
:1059B0000E94DA1BC09216019092F2028092F102CC
:1059C0002092ED023092EE024092EF025092F002ED
:1059D0008091F9029091FA02080F191F17FD07C074
:1059E00078010D38110518F07CE8E72EF12CF092C3
:1059F000FA02E092F9026092AC0270900C037720F8
:105A000009F46BC03090CF0231E0331266C01092BF
:105A1000CF0240901101509012010E947E1D41E082
:105A20007412D3C262E0F62EF0922E03F0922F038E
:105A300090922D0380922C0390922B0380922A0344
:105A400003E210E0109327030093260385E090E023
:105A500090932903809328038FEB91E00E94251DEA
:105A600010932703009326038AE190E09093290383
:105A7000809328038CE591E00E94251D1093270355
:105A8000009326038FE290E09093290380932803EC
:105A900085EC91E00E94251D52E04516510409F461
:105AA0007CC283E04816510409F483C24A94452815
:105AB00091F483E08093CE02EE24E394F12C05E18F
:105AC00010E026E430E041E050E06DE170E08AE172
:105AD00093E00E945F120E94501A0091BA02109146
